:020000040800F2
:1000000000800120D5010108338900083B890008E0
:10001000438900084B89000853890008000000004C
:10002000000000000000000000000000795C0008F3
:100030005B89000800000000355C0008655B000873
:1000400025020108250201082502010825020108F0
:1000500025020108250201082502010825020108E0
:100060002502010825020108250201086989000806
:10007000891F000825020108250201082502010840
:1000800077890008858900089389000825020108FE
:1000900025020108250201082502010825020108A0
:1000A00025020108A189000825020108250201088E
:1000B0002502010825020108250201082502010880
:1000C0002502010825020108250201082502010870
:1000D0002502010825020108250201082502010860
:1000E0002502010825020108250201082502010850
:1000F0002502010825020108250201082502010840
:10010000250201082502010825020108250201082F
:10011000250201082502010825020108250201081F
:10012000250201082502010825020108250201080F
:1001300025020108250201082502010825020108FF
:10014000250201082502010825020108B5890008D9
:1001500025020108250201082502010825020108DF
:1001600025020108250201082502010825020108CF
:1001700025020108250201082502010800000000EF
:08018000250201082502010817
:1001880081F0004102E000BF83F0004330B54FEA40
:1001980041044FEA430594EA050F08BF90EA020FAD
:1001A8001FBF54EA000C55EA020C7FEA645C7FEA40
:1001B800655C00F0E2804FEA5454D4EB5555B8BF63
:1001C8006D420CDD2C4480EA020281EA030382EAD4
:1001D800000083EA010180EA020281EA0303362D66
:1001E80088BF30BD11F0004F4FEA01314FF4801C39
:1001F8004CEA113102D0404261EB410113F0004F4B
:100208004FEA03334CEA133302D0524263EB430301
:1002180094EA050F00F0A780A4F10104D5F1200E9F
:100228000DDB02FA0EFC22FA05F2801841F10001FA
:1002380003FA0EF2801843FA05F359410EE0A5F1CE
:1002480020050EF1200E012A03FA0EFC28BF4CF0FF
:10025800020C43FA05F3C01851EBE37101F00045B5
:1002680007D54FF0000EDCF1000C7EEB00006EEBC2
:100278000101B1F5801F1BD3B1F5001F0CD349084C
:100288005FEA30004FEA3C0C04F101044FEA4452A3
:1002980012F5800F80F09A80BCF1004F08BF5FEA2A
:1002A800500C50F1000041EB045141EA050130BD0A
:1002B8005FEA4C0C404141EB0101013C28BFB1F51C
:1002C800801FE9D291F0000F04BF01460020B1FA67
:1002D80081F308BF2033A3F10B03B3F120020CDA3A
:1002E8000C3208DD02F1140CC2F10C0201FA0CF018
:1002F80021FA02F10CE002F11402D8BFC2F1200C7D
:1003080001FA02F120FA0CFCDCBF41EA0C01904032
:10031800E41AA2BF01EB0451294330BD6FEA04047B
:100328001F3C1CDA0C340EDC04F11404C4F1200266
:1003380020FA04F001FA02F340EA030021FA04F378
:1003480045EA030130BDC4F10C04C4F1200220FACF
:1003580002F001FA04F340EA0300294630BD21FA0D
:1003680004F0294630BD94F0000F83F4801306BFD3
:1003780081F480110134013D4EE77FEA645C18BFC7
:100388007FEA655C29D094EA050F08BF90EA020F5E
:1003980005D054EA000C04BF1946104630BD91EA56
:1003A800030F1EBF0021002030BD5FEA545C05D159
:1003B8004000494128BF41F0004130BD14F5800498
:1003C8003CBF01F5801130BD01F0004545F0FE410C
:1003D80041F470014FF0000030BD7FEA645C1ABF41
:1003E800194610467FEA655C1CBF0B46024650EA78
:1003F800013406BF52EA033591EA030F41F40021A4
:1004080030BD00BF90F0000F04BF0021704730B529
:100418004FF4806404F132044FF000054FF00001FE
:1004280050E700BF90F0000F04BF0021704730B5BF
:100438004FF4806404F1320410F0004548BF404294
:100448004FF000013EE700BF42004FEAE2014FEAE9
:1004580031014FEA02701FBF12F07F4393F07F4FC4
:1004680081F06051704732F07F4208BF704793F0C7
:100478007F4F04BF41F40021704730B54FF46074DA
:1004880001F0004521F000411CE700BF50EA0102DD
:1004980008BF704730B54FF000050AE050EA010286
:1004A80008BF704730B511F0004502D5404261EBF6
:1004B80041014FF4806404F132045FEA915C3FF437
:1004C800D8AE4FF003025FEADC0C18BF03325FEAD4
:1004D800DC0C18BF033202EBDC02C2F1200300FA85
:1004E80003FC20FA02F001FA03FE40EA0E0021FAAA
:1004F80002F11444BDE600BF70B54FF0FF0C4CF498
:10050800E06C1CEA11541DBF1CEA135594EA0C0F49
:1005180095EA0C0F00F0DEF82C4481EA030621EA84
:100528004C5123EA4C5350EA013518BF52EA0335BF
:1005380041F4801143F4801338D0A0FB02CE4FF071
:100548000005E1FB02E506F00042E0FB03E54FF0A1
:100558000006E1FB03569CF0000F18BF4EF0010E99
:10056800A4F1FF04B6F5007F64F5407404D25FEA95
:100578004E0E6D4146EB060642EAC62141EA555148
:100588004FEAC52040EA5E504FEACE2EB4F1FD0C8A
:1005980088BFBCF5E06F1ED8BEF1004F08BF5FEA08
:1005A800500E50F1000041EB045170BD06F00046BA
:1005B80046EA010140EA020081EA0301B4EB5C0467
:1005C800C2BFD4EB0C0541EA045170BD41F480115F
:1005D8004FF0000E013C00F3AB8014F1360FDEBF84
:1005E800002001F0004170BDC4F10004203C35DA60
:1005F8000C341BDC04F11404C4F1200500FA05F3E3
:1006080020FA04F001FA05F240EA020001F0004283
:1006180021F0004110EBD37021FA04F642EB0601F9
:100628005EEA430E08BF20EAD37070BDC4F10C0423
:10063800C4F1200500FA04F320FA05F001FA04F2E7
:1006480040EA020001F0004110EBD37041F10001D3
:100658005EEA430E08BF20EAD37070BDC4F12005DE
:1006680000FA05F24EEA020E20FA04F301FA05F246
:1006780043EA020321FA04F001F0004121FA04F2EE
:1006880020EA020000EBD3705EEA430E08BF20EABE
:10069800D37070BD94F0000F0FD101F000464000F8
:1006A80041EB010111F4801F08BF013CF7D041EA7A
:1006B800060195F0000F18BF704703F0004652007E
:1006C80043EB030313F4801F08BF013DF7D043EA4F
:1006D8000603704794EA0C0F0CEA135518BF95EA05
:1006E8000C0F0CD050EA410618BF52EA4306D1D18C
:1006F80081EA030101F000414FF0000070BD50EAAB
:10070800410606BF1046194652EA430619D094EA34
:100718000C0F02D150EA013613D195EA0C0F05D11E
:1007280052EA03361CBF104619460AD181EA030172
:1007380001F0004141F0FE4141F470014FF000002A
:1007480070BD41F0FE4141F4780170BD70B54FF0C5
:10075800FF0C4CF4E06C1CEA11541DBF1CEA135545
:1007680094EA0C0F95EA0C0F00F0A7F8A4EB050427
:1007780081EA030E52EA03354FEA013100F088801E
:100788004FEA03334FF0805545EA131343EA1263E7
:100798004FEA022245EA111545EA10654FEA00269C
:1007A8000EF000419D4208BF964244F1FD0404F555
:1007B800407402D25B084FEA3202B61A65EB0305B1
:1007C8005B084FEA32024FF480104FF4002CB6EB6E
:1007D800020E75EB030E22BFB61A754640EA0C00EE
:1007E8005B084FEA3202B6EB020E75EB030E22BF2E
:1007F800B61A754640EA5C005B084FEA3202B6EB6F
:10080800020E75EB030E22BFB61A754640EA9C002D
:100818005B084FEA3202B6EB020E75EB030E22BFFD
:10082800B61A754640EADC0055EA060E18D04FEABB
:10083800051545EA16754FEA06164FEAC30343EA5B
:1008480052734FEAC2025FEA1C1CC0D111F4801F28
:100858000BD141EA00014FF000004FF0004CB6E721
:1008680011F4801F04BF01430020B4F1FD0C88BFC0
:10087800BCF5E06F3FF6AFAEB5EB030C04BFB6EBCB
:10088800020C5FEA500C50F1000041EB045170BDBE
:100898000EF0004E4EEA113114EB5C04C2BFD4EBEB
:1008A8000C0541EA045170BD41F480114FF0000E6F
:1008B800013C90E645EA060E8DE60CEA135594EAEB
:1008C8000C0F08BF95EA0C0F3FF43BAF94EA0C0FEE
:1008D8000AD150EA01347FF434AF95EA0C0F7FF463
:1008E80025AF104619462CE795EA0C0F06D152EAB7
:1008F80003353FF4FDAE1046194622E750EA41069B
:1009080018BF52EA43067FF4C5AE50EA41047FF4AB
:100918000DAF52EA43057FF4EBAE12E74FF0FF3C10
:1009280006E000BF4FF0010C02E000BF4FF0010CE1
:100938004DF804CD4FEA410C7FEA6C5C4FEA430C5A
:1009480018BF7FEA6C5C1BD001B050EA410C0CBFA9
:1009580052EA430C91EA030F02BF90EA020F00200B
:10096800704710F1000F91EA030F58BF994208BF72
:1009780090422CBFD8176FEAE37040F0010070472F
:100988004FEA410C7FEA6C5C02D150EA013C07D186
:100998004FEA430C7FEA6C5CD6D152EA033CD3D0D1
:1009A8005DF8040B704700BF8446104662468C46CB
:1009B8001946634600E000BF01B5FFF7B7FF0028FE
:1009C80048BF10F1000F01BD4DF808EDFFF7F4FF27
:1009D8000CBF012000205DF808FB00BF4DF808EDB2
:1009E800FFF7EAFF34BF012000205DF808FB00BFD5
:1009F8004DF808EDFFF7E0FF94BF012000205DF8F7
:100A080008FB00BF4DF808EDFFF7CEFF94BF0120AB
:100A180000205DF808FB00BF4DF808EDFFF7C4FFA4
:100A280034BF012000205DF808FB00BF4FEA410CED
:100A38007FEA6C5C02D150EA013C0AD14FEA430CD0
:100A48007FEA6C5C02D152EA033C02D14FF000000D
:100A580070474FF0010070474A0011D212F500129A
:100A680011D20DD56FF47873B3EB62520ED44FEAFE
:100A7800C12343F0004343EA505323FA02F070477E
:100A88004FF00000704750EA013002D14FF0FF30BC
:100A980070474FF0000070470348044B834202D070
:100AA800034B03B118477047C0020020C002002062
:100AB800000000000548064B1B1AD90F01EBA301E3
:100AC800491002D0034B03B118477047C0020020F9
:100AD800C00200200000000010B5064C237843B97E
:100AE800FFF7DAFF044B13B10448AFF3008001238A
:100AF800237010BDC0020020000000007407010828
:100B080008B5054B1BB105490548AFF30080BDE8A2
:100B18000840FFF7CFBF00BF00000000C40200205C
:100B28007407010880B485B000AF78607B681B68E3
:100B380003F06003FB60FB68002B04D17B681B6833
:100B480003F01003FB60FB6818461437BD465DF8D8
:100B5800047B704780B483B000AF78607B681B6B00
:100B680018460C37BD465DF8047B704780B483B0E7
:100B780000AF786039607B681A6A3B681A437B6803
:100B88001A6200BF0C37BD465DF8047B704780B41D
:100B980083B000AF786039607B681A6A3B68DB43D2
:100BA8001A407B681A6200BF0C37BD465DF8047BAB
:100BB800704780B483B000AF78607B685B6C43F4A7
:100BC80000427B685A6400BF0C37BD465DF8047B61
:100BD800704780B483B000AF78607B68DB6843F00F
:100BE80001027B68DA6000BF0C37BD465DF8047B04
:100BF800704780B483B000AF78607B68DB6823F00F
:100C080001027B68DA6000BF0C37BD465DF8047BE3
:100C1800704780B483B000AF78607B68DB6803F00E
:100C28000103012B01D1012300E0002318460C37F2
:100C3800BD465DF8047B704780B483B000AF786030
:100C48007B68DB6843F002027B68DA6000BF0C3720
:100C5800BD465DF8047B704780B483B000AF786010
:100C68007B68DB6823F002027B68DA6000BF0C3720
:100C7800BD465DF8047B704780B483B000AF7860F0
:100C88007B68DB6803F00203022B01D1012300E03B
:100C9800002318460C37BD465DF8047B704780B4C6
:100CA80083B000AF78607B68DB6843F004027B6840
:100CB800DA6000BF0C37BD465DF8047B704780B42E
:100CC80083B000AF78607B68DB6823F004027B6840
:100CD800DA6000BF0C37BD465DF8047B704780B40E
:100CE80083B000AF78607B68DB6803F00403042BF3
:100CF80001D1012300E0002318460C37BD465DF8FA
:100D0800047B704780B483B000AF78607B68DB6891
:100D180043F008027B68DA6000BF0C37BD465DF817
:100D2800047B704780B483B000AF78607B68DB6871
:100D380023F008027B68DA6000BF0C37BD465DF817
:100D4800047B704780B483B000AF78607B68DB6851
:100D580003F00803082B01D1012300E00023184603
:100D68000C37BD465DF8047B704780B483B000AF94
:100D780078607B68DB6843F010027B68DA6000BF4C
:100D88000C37BD465DF8047B704780B483B000AF74
:100D980078607B68DB6823F010027B68DA6000BF4C
:100DA8000C37BD465DF8047B704780B483B000AF54
:100DB80078607B68DB6803F01003102B01D10123F6
:100DC80000E0002318460C37BD465DF8047B7047E9
:100DD80080B483B000AF78607B68DB6843F02002A2
:100DE8007B68DA6000BF0C37BD465DF8047B70474E
:100DF80080B483B000AF78607B68DB6823F02002A2
:100E08007B68DA6000BF0C37BD465DF8047B70472D
:100E180080B483B000AF78607B68DB6803F02003A0
:100E2800202B01D1012300E0002318460C37BD46D2
:100E38005DF8047B704780B483B000AF78607B684E
:100E4800DB6843F040027B68DA6000BF0C37BD46C0
:100E58005DF8047B704780B483B000AF78607B682E
:100E6800DB6823F040027B68DA6000BF0C37BD46C0
:100E78005DF8047B704780B483B000AF78607B680E
:100E8800DB6803F04003402B01D1012300E000237D
:100E980018460C37BD465DF8047B704780B483B0B4
:100EA80000AF78607B68DB6843F080027B68DA60BB
:100EB80000BF0C37BD465DF8047B704780B483B033
:100EC80000AF78607B68DB6823F080027B68DA60BB
:100ED80000BF0C37BD465DF8047B704780B483B013
:100EE80000AF78607B68DB6803F08003802B01D15A
:100EF800012300E0002318460C37BD465DF8047B4B
:100F0800704780B582B000AF78600B467B807B88E5
:100F180003F00103002B0CD07B681B681846FFF711
:100F2800AAFF0346012B04D07B681B681846FFF70D
:100F380082FF7B8803F00203002B0CD07B681B68C0
:100F48001846FFF799FE0346012B04D07B681B68FF
:100F58001846FFF771FE7B8803F00403002B0CD0C2
:100F68007B681B681846FFF7BAFE0346012B04D0BE
:100F78007B681B681846FFF792FE7B8803F008031E
:100F8800002B0CD07B681B681846FFF7DBFE034676
:100F9800012B04D07B681B681846FFF7B3FE7B88DB
:100FA80003F01003002B0CD07B681B681846FFF772
:100FB800FCFE0346012B04D07B681B681846FFF72C
:100FC800D4FE7B8803F02003002B0CD07B681B68C1
:100FD8001846FFF71EFE0346012B04D07B681B68EA
:100FE8001846FFF7F6FD7B8803F04003002B0CD072
:100FF8007B681B681846FFF771FF0346012B04D076
:101008007B681B681846FFF749FF7B8803F080035D
:10101800002B0CD07B681B681846FFF7F9FE0346C7
:10102800012B04D07B681B681846FFF7D1FE00BF70
:101038000837BD4680BD80B582B000AF78600B46EA
:101048007B807B8803F00103002B0CD07B681B6836
:101058001846FFF710FF0346012B04D17B681B6875
:101068001846FFF7F8FE7B8803F00203002B0CD02C
:101078007B681B681846FFF7FFFD0346012B04D168
:101088007B681B681846FFF7E7FD7B8803F00403BD
:10109800002B0CD07B681B681846FFF720FE034620
:1010A800012B04D17B681B681846FFF708FE7B8874
:1010B80003F00803002B0CD07B681B681846FFF769
:1010C80041FE0346012B04D17B681B681846FFF7D5
:1010D80029FE7B8803F01003002B0CD07B681B686B
:1010E8001846FFF762FE0346012B04D17B681B6894
:1010F8001846FFF74AFE7B8803F02003002B0CD02C
:101108007B681B681846FFF784FD0346012B04D053
:101118007B681B681846FFF76CFD7B8803F040036B
:10112800002B0CD07B681B681846FFF7D7FE0346D8
:10113800012B04D17B681B681846FFF7BFFE7B882C
:1011480003F08003002B0CD07B681B681846FFF760
:101158005FFE0346012B04D17B681B681846FFF726
:1011680047FE00BF0837BD4680BD000080B582B08D
:1011780000AF78600B46FB70FB78022B06D17B68CA
:101188001B6801211846FFF7F1FC31E07B681B68FA
:10119800194A934213D07B681B68184A93420ED0B1
:1011A8007B681B68164A934209D07B681B68154AFE
:1011B800934204D07B681B68134A934218D1FB788A
:1011C800032B06D17B681B6804211846FFF7CEFC69
:1011D8000EE0FB78042B0BD17B681B6801211846B5
:1011E800FFF7C4FC7B681B6804211846FFF7BEFCA8
:1011F80000BF0837BD4680BD002C014000340140C7
:1012080000400140004401400048014080B582B0E0
:1012180000AF78600B46FB70FB78022B06D17B6829
:101228001B6801211846FFF7B2FC31E07B681B6898
:10123800194A934213D07B681B68184A93420ED010
:101248007B681B68164A934209D07B681B68154A5D
:10125800934204D07B681B68134A934218D1FB78E9
:10126800032B06D17B681B6804211846FFF78FFC07
:101278000EE0FB78042B0BD17B681B680121184614
:10128800FFF785FC7B681B6804211846FFF77FFC85
:1012980000BF0837BD4680BD002C01400034014026
:1012A80000400140004401400048014080B582B040
:1012B80000AF78600B46FB70FB78022B06D17B6889
:1012C8001B6810211846FFF751FC31E07B681B684A
:1012D800194A934213D07B681B68184A93420ED070
:1012E8007B681B68164A934209D07B681B68154ABD
:1012F800934204D07B681B68134A934218D1FB7849
:10130800032B06D17B681B6840211846FFF72EFC8B
:101318000EE0FB78042B0BD17B681B681021184664
:10132800FFF724FC7B681B6840211846FFF71EFC6A
:1013380000BF0837BD4680BD002C01400034014085
:1013480000400140004401400048014080B582B09F
:1013580000AF78600B46FB70FB78022B06D17B68E8
:101368001B6810211846FFF712FC31E07B681B68E8
:10137800194A934213D07B681B68184A93420ED0CF
:101388007B681B68164A934209D07B681B68154A1C
:10139800934204D07B681B68134A934218D1FB78A8
:1013A800032B06D17B681B6840211846FFF7EFFB2B
:1013B8000EE0FB78042B0BD17B681B6810211846C4
:1013C800FFF7E5FB7B681B6840211846FFF7DFFB4A
:1013D80000BF0837BD4680BD002C014000340140E5
:1013E80000400140004401400048014080B582B0FF
:1013F80000AF78600B46FB70FB78022B07D17B6847
:101408001B684FF480711846FFF7B0FB34E07B6827
:101418001B681B4A934213D07B681B68194A934286
:101428000ED07B681B68184A934209D07B681B68FA
:10143800164A934204D07B681B68154A93421BD115
:10144800FB78032B07D17B681B684FF48061184633
:10145800FFF78CFB10E0FB78042B0DD17B681B6831
:101468004FF480711846FFF781FB7B681B684FF4C7
:1014780080611846FFF77AFB00BF0837BD4680BD7C
:10148800002C01400034014000400140004401406C
:101498000048014080B582B000AF78600B46FB7011
:1014A800FB78022B07D17B681B684FF480711846C4
:1014B800FFF76DFB34E07B681B681B4A934213D02F
:1014C8007B681B68194A93420ED07B681B68184AD0
:1014D800934209D07B681B68164A934204D07B6804
:1014E8001B68154A93421BD1FB78032B07D17B68F5
:1014F8001B684FF480611846FFF749FB10E0FB7842
:10150800042B0DD17B681B684FF480711846FFF7D8
:101518003EFB7B681B684FF480611846FFF737FB7A
:1015280000BF0837BD4680BD002C01400034014093
:1015380000400140004401400048014080B582B0AD
:1015480000AF78600B46FB70FB78022B06D17B68F6
:101558001B684FF480511846FFF708FB00BF083797
:10156800BD4680BD80B582B000AF78600B46FB7089
:10157800FB78022B06D17B681B684FF48051184614
:10158800FFF705FB00BF0837BD4680BD80B584B0B6
:1015980000AF78600023FB607B681B68304A934289
:1015A80001D1304BFB607B681A68FB681A60FB68E6
:1015B8001B681846FFF7B6FAB860BB68002B06D060
:1015C800BB68102B03D0FB6801221A7102E0FB688C
:1015D80000221A71FB681B68234A934213D0FB68E8
:1015E8001B68224A93420ED0FB681B68204A93422C
:1015F80009D0FB681B681F4A934204D0FB681B682C
:101608001D4A934204D1FB681B681846FFF7D1FABC
:10161800FB681B68144A934213D0FB681B68134A83
:1016280093420ED0FB681B68114A934209D0FB68AD
:101638001B68104A934204D0FB681B680E4A934209
:1016480008D17B681B681846FFF784FA0346DAB2AC
:10165800FB685A71FB6818461037BD4680BD00BF4D
:1016680000040040DC020020002C0140003401404E
:1016780000400140004401400048014080B485B06A
:1016880000AF786039603B68002B03D17B6840333A
:10169800FB6001E0044BFB60FB6818461437BD464D
:1016A8005DF8047B704700BF0C03045080B483B01E
:1016B80000AF78607B68DB6803F44063002B01D1DE
:1016C800012300E0002318460C37BD465DF8047B73
:1016D800704780B483B000AF786039607B681B6B5B
:1016E80023F00F023B681A437B681A6300BF0C376C
:1016F800BD465DF8047B704780B483B000AF786066
:1017080039607B68DB6823F003023B681A437B6817
:10171800DA6000BF0C37BD465DF8047B704780B4C3
:1017280083B000AF78607B68DB6C03F0C003002BEC
:1017380001D1012300E0002318460C37BD465DF8AF
:10174800047B704780B483B000AF78607B689B6887
:1017580023F0004323F03F0343F001027B689A60C3
:1017680000BF0C37BD465DF8047B704780B483B07A
:1017780000AF78607B689B6823F0004323F03F0349
:1017880043F002027B689A6000BF0C37BD465DF8E3
:10179800047B704780B483B000AF78607B689B6837
:1017A80003F00103012B01D1012300E000231846B7
:1017B8000C37BD465DF8047B704780B483B000AF3A
:1017C800786039607B689B6823F0404323F03F03CF
:1017D8003A6802F08042134343F000427B689A6003
:1017E80000BF0C37BD465DF8047B704780B483B0FA
:1017F80000AF78607B689B6803F00043B3F1004F4B
:1018080001D1012300E0002318460C37BD465DF8DE
:10181800047B704780B483B000AF78607B689B68B6
:1018280023F0004323F03F0343F004027B689A60EF
:1018380000BF0C37BD465DF8047B704780B483B0A9
:1018480000AF78607B689B6823F0004323F03F0378
:1018580043F008027B689A6000BF0C37BD465DF80C
:10186800047B704780B483B000AF78607B681B68E6
:1018780003F00803082B01D1012300E000231846D8
:101888000C37BD465DF8047B704780B483B000AF69
:1018980078607B681B6803F01003102B01D10123CB
:1018A80000E0002318460C37BD465DF8047B7047FE
:1018B80080B483B000AF78607B6810221A6000BFE4
:1018C8000C37BD465DF8047B704780B483B000AF29
:1018D80078607B685B6843F008027B685A6000BFE9
:1018E8000C37BD465DF8047B704780B483B000AF09
:1018F80078607B685B6843F040027B685A6000BF91
:101908000C37BD465DF8047B704780B483B000AFE8
:1019180078607B685B6823F008027B685A6000BFC8
:101928000C37BD465DF8047B704780B483B000AFC8
:1019380078607B685B6823F010027B685A6000BFA0
:101948000C37BD465DF8047B704780B483B000AFA8
:1019580078607B685B6823F040027B685A6000BF50
:101968000C37BD465DF8047B704780B483B000AF88
:1019780078607B685B6823F080027B685A6000BFF0
:101988000C37BD465DF8047B704780B483B000AF68
:1019980078607B685B6803F01003102B01D101238A
:1019A80000E0002318460C37BD465DF8047B7047FD
:1019B80080B483B000AF78607B685B6803F0800315
:1019C800802B01D1012300E0002318460C37BD46C7
:1019D8005DF8047B7047000080B485B000AF786084
:1019E80039607B68FB600C4A3B6813441B781A46D5
:1019F800FB6813441B6808493A680A441278114680
:101A0800FA680A4443F00103136000BF1437BD4667
:101A18005DF8047B704700BFE407010880B485B017
:101A280000AF786039607B68FB600C4A3B68134400
:101A38001B781A46FB6813441B6808493A680A442D
:101A480012781146FA680A4423F00103136000BFB4
:101A58001437BD465DF8047B704700BFE4070108F2
:101A680080B485B000AF786039607B68FB60084A55
:101A78003B6813441B781A46FB6813441B6803F041
:101A8800200318461437BD465DF8047B704700BF35
:101A9800E407010880B487B000AFF860B9607A60E5
:101AA800FB687B610D4ABB6813441B781A467B6947
:101AB80013445B681B0C1B040849BA680A44127873
:101AC80011467A690A4411467A6813434B6000BF8D
:101AD8001C37BD465DF8047B704700BFE40701086A
:101AE80080B487B000AFF860B9607A603B60FB688B
:101AF8007B613B6A102B14D1174ABB6813441B78CF
:101B08001A467B6913441A467B68D360124ABB683D
:101B180013441B781A467B6913441A463B68936042
:101B280013E00D4ABB6813441B781A467B691344BB
:101B38001A467B689360084ABB6813441B781A46A8
:101B48007B6913441A463B68D36000BF1C37BD4607
:101B58005DF8047B704700BFE407010880B487B0D4
:101B680000AFF860B9607A60FB687B61074ABB68C0
:101B780013441B781A467B6913441A467B689360A2
:101B880000BF1C37BD465DF8047B7047E4070108B9
:101B980080B483B000AF78607B681B6803F02003D3
:101BA800202B01D1012300E0002318460C37BD4645
:101BB8005DF8047B704780B483B000AF78607B68C1
:101BC80020225A6000BF0C37BD465DF8047B704781
:101BD80080B485B000AF786039607B68FB600C4AE0
:101BE8003B6813441B781A46FB6813441B68084972
:101BF8003A680A4412781146FA680A4443F0020324
:101C0800136000BF1437BD465DF8047B704700BF02
:101C1800E407010880B485B000AF786039607B685C
:101C2800FB600C4A3B6813441B781A46FB68134454
:101C38001B6808493A680A4412781146FA680A4447
:101C480043F00803136000BF1437BD465DF8047BFA
:101C5800704700BFE407010880B485B000AF786022
:101C680039607B68FB600C4A3B6813441B781A4652
:101C7800FB6813441B6808493A680A4412781146FD
:101C8800FA680A4423F00203136000BF1437BD4604
:101C98005DF8047B704700BFE407010880B485B095
:101CA80000AF786039607B68FB600C4A3B6813447E
:101CB8001B781A46FB6813441B6808493A680A44AB
:101CC80012781146FA680A4423F00403136000BF2F
:101CD8001437BD465DF8047B704700BFE407010870
:101CE80080B485B000AF786039607B68FB600C4ACF
:101CF8003B6813441B781A46FB6813441B68084961
:101D08003A680A4412781146FA680A4423F008032C
:101D1800136000BF1437BD465DF8047B704700BFF1
:101D2800E407010880B485B000AF786039607B684B
:101D3800FB600A4A3B6813441B781A46FB68134445
:101D48001B6803F00203022B01D1012300E00023EA
:101D580018461437BD465DF8047B7047E407010850
:101D680080B584B000AF78600123FB817B681B6974
:101D78001846FFF79BFC0346002B2FD07B685B7A45
:101D8800DBB2022B11D07B685B7ADBB2042B0CD060
:101D98007B685B7ADBB2082B07D07B681B69184627
:101DA800FFF760FD0346012B18D1786800F0F8F8BA
:101DB8000346002B12D17B685B7ADBB2082B03D178
:101DC8007B6801225A7202E07B6820225A727B6883
:101DD8001B691846FFF71EFD0023FB81FB89184687
:101DE8001037BD4680BD80B586B002AFF860B960D7
:101DF8007A603B600021F868FFF740FC03461A460A
:101E08007968B868FFF7AAFE0021F868FFF736FC82
:101E180002463B68002100917968B868FFF760FEC8
:101E2800BA697968B868FFF735FE7968B868FFF766
:101E3800CFFE7968B868FFF7EDFE7968B868FFF7F4
:101E4800CBFD00BF1037BD4680BD80B584B000AF64
:101E5800F860B9607A607968B868FFF7DFFD79687B
:101E6800B868FFF71BFF7968B868FFF739FF79682A
:101E7800B868FFF7F1FE00227968B868FFF70AFE34
:101E880000BF1037BD4680BD80B584B000AF786014
:101E980039600223FB737B68DB79012B0FD17B68E8
:101EA800DA687B681B685B00D118FB7B7A6812686C
:101EB80002FB03F31A4638680EF04AFC0AE07B6816
:101EC800D968FB7B7A68126802FB03F31A46386804
:101ED8000EF03EFC00BF1037BD4680BD80B586B011
:101EE80000AFF860B9607A60FB685A69FB689B7953
:101EF80019461046FFF716FF0346DBB2012B37D110
:101F0800FB685A69BB68104698470346012B2FD1D6
:101F1800FB6804225A72FB685A697B681046984726
:101F2800FB685A69FB689B7919461046FFF798FDCC
:101F38000346002B19D1FB685A69FB689B7919463F
:101F48001046FFF76BFDFB685869FB689B791946DB
:101F5800FB681B681A46FFF79DFDFB685A69FB681A
:101F68009B7919461046FFF737FD0123FB7501E001
:101F78000023FB75FB7D18461837BD4680BD000061
:101F880080B500AF034A04490448FFF7A7FF00BF24
:101F980080BD00BFBF1B0008991B00086803002014
:101FA80080B582B000AF78607B681B691846FFF780
:101FB8006CFC0346DBB2012B07D17B681B69184612
:101FC800FFF776FC7B6810225A727B685B7ADBB27B
:101FD800102B0CBF01230023DBB218460837BD467F
:101FE80080BD80B582B000AF78600B46FB70FB788F
:101FF800012B0DD17B681B691846FFF757FB034679
:10200800012B12D07B681B691846FFF703FC0CE014
:102018007B681B691846FFF782FB0346012B04D037
:102028007B681B691846FFF709FC00BF0837BD46E7
:1020380080BD000090B589B002AFF860084611462F
:102048001A4603467B810B463B811346FB800023DF
:102058007B61FB681B693C4A934201D13B4B7B6126
:102068007B69002B6BD0FB681A697B691A617B69F5
:102078000022DA71FB88012B61D03B89002B47D005
:102088007B695B7ADBB2082B42D0FB68DA687B6934
:10209800DA60FB681A687B691A60FB685A697B69B1
:1020A8005A61FB689A797B699A71FB681A797B692E
:1020B8001A717B691B69B96A1846FFF70AFB7B89A5
:1020C800012B21D07B89042B16D17B691B69032145
:1020D8001846FFF711FB7B6918697B6959697B69A9
:1020E8009B791C467B69DA687B691B6800931346F9
:1020F8002246FFF778FE07E07B89022B04D17B6933
:102108001B691846FFF7E1FB7B6908225A7216E043
:102118003B89002B13D17B699B7ADBB2082B0ED04D
:10212800FB685A797B695A717B89022B04D17B69D8
:102138001B691846FFF7D9FB7B6908229A727B69ED
:1021480018461C37BD4690BD0001045068030020A6
:1021580080B582B000AF78607B681B691846FFF7CE
:1021680019FB0346002B04D17B681B691846FFF74F
:10217800E9FA00BF0837BD4680BD80B586B000AF1C
:10218800F8600B467A607B810123FB82FB681B6940
:10219800002B46D07B89012B05D1F868FFF7E0FDBD
:1021A8000346FB823DE07B89042B1FD1FB681B693A
:1021B8001846FFF77BFA0346002B32D0FB68012252
:1021C8005A72FB681B691846FFF724FB00BFFB68BF
:1021D8005B7ADBB2042BFAD17968F868FFF754FE12
:1021E800FB6808225A720023FB821AE07B89022BC3
:1021F80017D1FB685B7ADBB2202B09D0FB685B7ACE
:10220800DBB2042B04D0FB685B7ADBB2102B08D15D
:10221800FB6808225A727968F868FFF735FE0023D0
:10222800FB82FB8A18461837BD4680BD80B582B050
:1022380000AF78600B467B8013463B807B681B6948
:102248001846FFF7A7FA0346002B04D07B681B69E2
:102258001846FFF78BFA7B681B691846FFF7A8FB3F
:102268000346002B04D07B681B691846FFF77DFBEB
:102278007B681B691846FFF788FB0346002B04D0D0
:102288007B681B691846FFF750FB3B88002B38D04A
:102298007B88012B1AD07B88022B05D17B681B69B0
:1022A8001846FFF732FB11E07B88042B0ED17B68C0
:1022B80018697B6859697B689B791A46FFF7C5FDE1
:1022C8007B681B6900211846FFF716FA7B68002215
:1022D800DA607B6800221A607B6800225A617B689A
:1022E80000229A717B6800221A717B6840225A7218
:1022F8007B681A697B681B7919461046FFF7E9F96C
:102308000DE07B6800225A717B6840229A727B88B4
:10231800022B04D17B681B691846FFF716FB00BF28
:102328000837BD4680BD000080B584B000AF786036
:102338000B46FB707B681B691846FFF72BFA0346B0
:10234800FB7397F90F30012B04D17B681B69184682
:10235800FFF70CFAFB78002B0FD17B681B697F21F4
:102368001846FFF72AFA00BF7B681B691846FFF773
:102378003DFA0346012BF7D040E0FB78012B0FD143
:102388007B681B692C491846FFF717FA00BF7B6862
:102398001B691846FFF72AFA0346012BF7D02DE0F0
:1023A8007B681B697F211846FFF707FA00BF7B6827
:1023B8001B691846FFF71AFA0346012BF7D00023CA
:1023C800BB8107E000BFBB891BB29BB201339BB244
:1023D8001BB2BB81BB891BB29BB2032BF2D97B68B2
:1023E8001B6915491846FFF7E8F900BF7B681B69A8
:1023F8001846FFF7FBF90346012BF7D00023BB81F2
:1024080007E000BFBB891BB29BB201339BB21BB272
:10241800BB81BB891BB29BB2032BF2D997F90F3052
:10242800012B04D17B681B691846FFF78BF900BFA5
:102438001037BD4680BD00BF00007F4080B483B028
:1024480000AF78607B681B6843F001027B681A6004
:1024580000BF0C37BD465DF8047B704780B483B07D
:1024680000AF78607B681B6823F001027B681A6004
:1024780000BF0C37BD465DF8047B704780B483B05D
:1024880000AF786039607B681B6823F004023B6802
:102498001A437B681A6000BF0C37BD465DF8047BA1
:1024A800704780B483B000AF78607B681B6803F026
:1024B800040318460C37BD465DF8047B704780B4AA
:1024C80083B000AF78607B68DB6A18460C37BD467E
:1024D8005DF8047B704780B483B000AF78603960E2
:1024E8007B683A681A6300BF0C37BD465DF8047B09
:1024F800704780B483B000AF786039607B683A6811
:102508005A6300BF0C37BD465DF8047B704780B442
:1025180083B000AF786039607B683A689A6300BF1F
:102528000C37BD465DF8047B704780B483B000AFBC
:10253800786039607B683A68DA6300BF0C37BD465B
:102548005DF8047B704780B483B000AF7860396071
:102558007B683A681A6400BF0C37BD465DF8047B97
:10256800704780B483B000AF78607B685B6B1846B7
:102578000C37BD465DF8047B704780B483B000AF6C
:1025880078607B689B6B18460C37BD465DF8047B0A
:10259800704780B483B000AF78607B68DB6B184607
:1025A8000C37BD465DF8047B704780B483B000AF3C
:1025B80078607B681B6C18460C37BD465DF8047B59
:1025C800704780B483B000AF78607B685B6943F084
:1025D80001027B685A6100BF0C37BD465DF8047B79
:1025E800704780B483B000AF78607B681B69184679
:1025F8000C37BD465DF8047B704780B483B000AFEC
:10260800786039607B683A689A6100BF0C37BD46CC
:102618005DF8047B704780B483B000AF78603960A0
:102628007B683A689A6200BF0C37BD465DF8047B48
:102638007047000080B584B000AF786087ED000A6D
:10264800D7ED007AF5EEC07AF1EE10FA03D54FF027
:1026580000033B600AE0D7ED007A9FED167AF4EEAE
:10266800C77AF1EE10FA01DD134B3B607B681B68FB
:102678001846FFF724FFF8607B681B79002B0CBF16
:1026880001230023DBB21A46FB68134407EE903A95
:10269800B8EE677AD7ED007A27EE277ADFED056A7C
:1026A800C7EE267AFCEEE77A17EE903A184610370E
:1026B800BD4680BD0000C8420000C84280B582B057
:1026C80000AF786039607B681B681846FFF749FFE0
:1026D80002463B68934205D07B681B6839681846F8
:1026E800FFF707FF00BF0837BD4680BD80B582B041
:1026F80000AF786039607B681B681846FFF73DFFBC
:1027080002463B68934205D07B681B6839681846C7
:10271800FFF7FDFE00BF0837BD4680BD80B582B01B
:1027280000AF786039607B681B681846FFF731FF97
:1027380002463B68934205D07B681B683968184697
:10274800FFF7F3FE00BF0837BD4680BD80B582B0F5
:1027580000AF786039607B681B681846FFF725FF73
:1027680002463B68934205D07B681B683968184667
:10277800FFF7E9FE00BF0837BD4680BD80B584B0CD
:1027880000AF786087ED000A97ED000A7868FFF7D8
:1027980051FFF860F9687868FFF790FF00BF1037BD
:1027A800BD4680BD80B584B000AF786087ED000A73
:1027B80097ED000A7868FFF73DFFF860F9687868D8
:1027C800FFF794FF00BF1037BD4680BD80B584B0C9
:1027D80000AF786087ED000A97ED000A7868FFF788
:1027E80029FFF860F9687868FFF798FF00BF10378D
:1027F800BD4680BD80B584B000AF786087ED000A23
:1028080097ED000A7868FFF715FFF860F9687868AF
:10281800FFF79CFF00BF1037BD4680BD80B485B070
:1028280000AF78607B681B689A68074B1340FB60B1
:10283800FB68062B0CBF01230023DBB218461437B4
:10284800BD465DF8047B70470700010080B584B081
:1028580000AF78600B46FB707B681B681846FFF773
:1028680020FEF860FB78002B1ED07B681B68324A7C
:10287800934213D07B681B68304A93420ED07B6822
:102888001B682F4A934209D07B681B682D4A9342E4
:1028980004D07B681B682C4A934205D17B681B686F
:1028A80000211846FFF717FEFB68042B11D07B6840
:1028B8001B6804211846FFF7E1FD7B681B68184672
:1028C800FFF77FFE7B681B68F9681846FFF7D6FD9F
:1028D80004E07B681B681846FFF773FE7B681B687B
:1028E8001846FFF7ABFDFB78002B20D07B681B68F0
:1028F800114A934213D07B681B68104A93420ED04A
:102908007B681B680E4A934209D07B681B680D4A96
:10291800934204D07B681B680B4A934207D17B68BB
:102928001A687B685B7919461046FFF7D4FD00BF2B
:102938001037BD4680BD00BF002C01400034014067
:1029480000400140004401400048014080B582B089
:1029580000AF78607B681B681846FFF77FFD00BFF3
:102968000837BD4680BD000080B483B000AF7860F2
:10297800074B5B79002B0CBF01230023DAB27B687D
:1029880001331A7000BF0C37BD465DF8047B7047F1
:10299800F816002080B400AF084B5A790132D2B241
:1029A8005A71064B5B79012B02D9044B00225A71EC
:1029B80000BFBD465DF8047B704700BFF8160020D5
:1029C80080B485B000AF786039607B68012283F8F5
:1029D800D8203B68D3E900237968C1E902237B68E2
:1029E80001221A600023FB600CE07B68D3E9022314
:1029F8007868F9680231C9000144C1E90023FB681D
:102A08000133FB60FB68182BEFDD00BF00BF1437F4
:102A1800BD465DF8047B704780B5B8B000AF87ED60
:102A2800040BF860B9607A60BB68D3E902017B687F
:102A3800D3E90023FDF7C8FF0346002B05D17B68C7
:102A4800D3E90023B968C1E90223F868BB681033E9
:102A5800C82219460DF07CFED7E90423C7E90623EE
:102A6800BB6803F1100107F118030833C0221846A8
:102A78000DF06EFEBB68103307F11801C822184626
:102A88000DF066FE00BFE037BD4680BD80B485B05E
:102A980000AF786039607B68012283F860203B686A
:102AA800D3E900237968C1E902237B6801221A600F
:102AB8000023FB600CE07B68D3E902237868F9689F
:102AC8000231C9000144C1E90023FB680133FB60FE
:102AD800FB68092BEFDD00BF00BF1437BD465DF86A
:102AE800047B704780B59AB000AF87ED040BF8609F
:102AF800B9607A60BB68D3E902017B68D3E9002337
:102B0800FDF762FF0346002B05D17B68D3E900235C
:102B1800B968C1E90223F868BB6810335022194626
:102B28000DF016FED7E90423C7E90623BB6803F1B5
:102B3800100107F118030833482218460DF008FE63
:102B4800BB68103307F11801502218460DF000FE3B
:102B580000BF6837BD4680BD80B483B000AF7860E1
:102B6800AD494FF00002AD4BC1E91023AA494FF01F
:102B78000002AA4BC1E91223A7494FF00002A74B54
:102B8800C1E91423A4494FF00002A44BC1E916235C
:102B9800A1494FF00002A14BC1E918239E494FF00B
:102BA80000029E4BC1E91A239B494FF000029B4B40
:102BB800C1E91C2398494FF00002984BC1E91E2334
:102BC8007B681B78002B56D0954A92F8553023F035
:102BD800060382F85530924A92F8553023F01803CC
:102BE80082F855308E4A92F8553023F0600382F807
:102BF80055308B4A92F8543023F0380382F8543019
:102C0800874A92F85430022161F3020382F8543063
:102C1800814B002283F89C207F494FF000024FF03F
:102C28000003C1E918237C494FF000024FF000036C
:102C3800C1E91A2378494FF000024FF00003C1E9B7
:102C48001C2375494FF000024FF00003C1E91E2311
:102C5800734AB2F85430012161F38813A2F8543052
:102C68006D4B4FF6AB72A3F898206B4B4FF6AB72D7
:102C7800A3F89A2031E16A4B93F85430C3F3C203A6
:102C8800DBB2032B6BD0032B00F3CC80012B02D0DB
:102C9800022B30D0C6E0604B002283F89E20604BA8
:102CA80093F8553003F00603DBB2022B16D15C4BC8
:102CB800B3F85830042B40F20981594A92F855303C
:102CC800022161F3420382F85530534B0022A3F8E6
:102CD8009820514B0022A3F89A20F7E04E4B93F826
:102CE8009C30002B0CBF01230023DBB21A464A4B51
:102CF80083F89C20EAE0484B012283F89D20484B4A
:102D0800B3F85830132B40F2E380454B002283F888
:102D18005C20434A92F85430032161F3C50382F8DA
:102D280054303D4B012283F89C203B4B002283F812
:102D38009D203B4B0022A3F85820394A92F8553081
:102D4800012161F3C40382F85530334B4B22A3F8B9
:102D58009820314B4FF6B572A3F89A20B8E02E4B65
:102D6800002283F89D202E4B93F85C30132B30D92A
:102D78002B4A92F8553023F0180382F85530284B27
:102D8800002283F85C20264A92F85430042161F32B
:102D9800C50382F85430204B002283F89C201E4B38
:102DA800012283F89E201E4B0022A3F858201C4ABB
:102DB80092F85530012161F3461382F85530164BCD
:102DC8004FF6B572A3F89820134B4B22A3F89A201C
:102DD80080E0134B93F8553003F01803DBB2082B4F
:102DE80078D10F4BB3F85830042B73D90C4B002211
:102DF800A3F858200A4A92F85530022161F3C40317
:102E080082F85530044B0022A3F89820024B002288
:102E1800A3F89A205EE000BFF80300200000F03F0E
:102E2800080D0020304B012283F89E202F4B93F889
:102E38005C301D2B28D92D4A92F8553023F06003B9
:102E480082F85530294A92F85430012161F3C503BC
:102E580082F85430244B002283F89E20234B002212
:102E6800A3F85820214A92F85530012161F3420312
:102E780082F855301C4B4B22A3F898201A4B4FF67A
:102E8800B572A3F89A2027E0184B93F8553003F051
:102E98006003DBB2202B1FD1144BB3F85830092B39
:102EA8001AD9124B0022A3F85820104A92F855302C
:102EB800022161F3461382F855300B4B0022A3F828
:102EC8009820094B0022A3F89A2005E000BF04E0EF
:102ED80000BF02E000BF00E000BF00BF0C37BD46E6
:102EE8005DF8047B704700BFF8030020080D002040
:102EF80080B58CB002AF78607B6800221A727B685C
:102F080001225A607B681033BB6100237B741A4B23
:102F1800FB611A4B3B620123BB74002387F8243002
:102F2800022387F825300923FB6009233B7407F146
:102F38000C0008230093042301220421FFF77AF8E8
:102F480002467B68DA607B68DB6802211846FFF777
:102F5800EBF97B68DB681846FFF7FAF87B68DB68F3
:102F680001211846FFF73DF87B6801221A7200BF5D
:102F78002837BD4680BD00BF000104500000024054
:102F880080B5A6B000AF78601A4BBB6000233B73D6
:102F980000237B7307F108031846FEF7F7FA024689
:102FA8007B68DA607B68DB6800211846FDF7A9FFBB
:102FB8007B68DB6802211846FEF7D8F87B68DB6877
:102FC80002211846FEF772F97B68DB681846FFF79E
:102FD80025FC034687F8973097F89730002B05D1E2
:102FE8007B68DB6800211846FFF730FC00BF983784
:102FF800BD4680BD0004004080B5A6B000AF786033
:103008001A4BBB6000233B7300237B7307F1080353
:103018001846FEF7BBFA02467B68DA607B68DB6815
:1030280000211846FDF76DFF7B68DB680221184612
:10303800FEF7DCF97B68DB6802211846FEF77EFAAA
:103048007B68DB681846FFF7E9FB034687F897308B
:1030580097F89730002B05D17B68DB68002118466C
:10306800FFF7F4FB00BF9837BD4680BD0004004061
:1030780080B582B000AFFFF78DFC00237B600CE0C9
:103088002E4A7B68134400221A702D4A7B6800215F
:1030980022F813107B6801337B607B68072BEFDD18
:1030A800284B00221A60284B00221A60274B3B60ED
:1030B800274BD3E910014FF000024FF00003FDF752
:1030C80083FC0346002B02D180237B6001E00023B0
:1030D8007B607B6819463868FFF78FFA7B68DB43AB
:1030E80003F0800319463868FFF795FA194B3B60DF
:1030F800174BD3E912014FF000024FF00003FDF720
:1031080063FC0346002B02D108237B6001E0002307
:103118007B607B6819463868FFF76FFA7B68DB438A
:1031280003F0080319463868FFF775FA02F022F928
:1031380002F036FA00BF0837BD4680BDF003002014
:10314800A40300209C030020A0030020000C0048DA
:103158000000002000040048B0B5BEB000AFA14B8D
:10316800DB68A14A04211846FFF707F89E4BDB8964
:103178009E4AA2F880309C4B1B889C4AA2F88E304D
:10318800994B9B89994AA2F88230974B5B88974A5A
:10319800A2F88C30944B5B89944AA2F88430924B05
:1031A8009B88924AA2F88A308F4B1B898F4AA2F8D3
:1031B80086308D4BDB888D4AA2F888300023C7F80B
:1031C800B43013E0894AD7F8B430403332F81320CA
:1031D800D7F8B4305B00783307F180010B4423F84B
:1031E800702CD7F8B4300133C7F8B430D7F8B430FE
:1031F800072BE7DDB7F888301846FDF703F90446D2
:103208000D467B4A7B497C4845EC104BFFF704FC94
:10321800764BD3E9F023C7E93C230023C7F8B43041
:103228001CE0D7F8B4300133704A7833DB0013441C
:10323800D3E90023C7E92A23D7E92A23D7E93C01A0
:10324800FDF7CCFB0346002B03D0D7E92A23C7E9B7
:103258003C23D7F8B4300133C7F8B430D7F8B430CA
:10326800172BDEDDB7F88A301846FDF7CBF8044691
:103278000D46624A6249634845EC104BFFF732FC41
:103288005A4B03F5DC63D3E90023C7E93A2300234B
:10329800C7F8B4301CE0D7F8B4300133534ADC33F4
:1032A800DB001344D3E90023C7E92A23D7E92A23FB
:1032B800D7E93A01FDF792FB0346002B03D0D7E983
:1032C8002A23C7E93A23D7F8B4300133C7F8B43012
:1032D800D7F8B430082BDEDD4B4A4C494C4897ED03
:1032E8003A0BFFF799FB414B03F5056353E90223BA
:1032F800C7E930230023C7F8B4301DE0D7F8B4304D
:1033080001333A4A03F20913DB001344D3E90023DB
:10331800C7E92A23D7E92A23D7E93001FDF77CFB3F
:103328000346002B03D0D7E92A23C7E93023D7F86F
:10333800B4300133C7F8B430D7F8B430172BDDDD1B
:10334800B7F88C301846FDF75DF804460D46314A4B
:103358003149324845EC104BFFF75EFB234B03F530
:10336800926353E90223C7E93A230023C7F8B4302C
:103378001CE0D7F8B43001331C4A9133DB00134406
:10338800D3E90023C7E92A23D7E92A23D7E93A0151
:10339800FDF724FB0346002B03D0D7E92A23C7E90E
:1033A8003A23D7F8B4300133C7F8B430D7F8B4307B
:1033B800172BDEDDB7F88E301846FDF723F80446E4
:1033C8000D46174A1749184845EC104BFFF724FBE0
:1033D800064BD3E9BE23C7E938230023C7F8B43026
:1033E80041E000BF080D0020B4030020F8030020CE
:1033F800A0000020E8100020B8070020C00000202E
:1034080068140020D80A0020D800002018160020D0
:10341800400C0020A8000020C811002080080020CF
:103428009800002008100020F0060020D7F8B430DB
:103438000133A14A5F33DB001344D3E90023C7E912
:103448002A23D7E92A23D7E93801FDF7C7FA034623
:10345800002B03D0D7E92A23C7E93823D7F8B4309B
:103468000133C7F8B430D7F8B430172BDEDDB7F81E
:1034780090301846FCF7C6FF04460D468F4A90491F
:10348800904845EC104BFFF7C7FA8B4BD3E98C23D8
:10349800C7E936230023C7F8B4301CE0D7F8B430A6
:1034A8000133854A4633DB001344D3E90023C7E9D7
:1034B8002A23D7E92A23D7E93601FDF78FFA0346ED
:1034C800002B03D0D7E92A23C7E93623D7F8B4302D
:1034D8000133C7F8B430D7F8B430172BDEDDB7F8AE
:1034E80092301846FCF78EFF04460D46764A774917
:1034F800774845EC104BFFF78FFA6F4BD3E95A2307
:10350800C7E934230023C7F8B4301CE0D7F8B43037
:103518000133694A2D33DB001344D3E90023C7E99B
:103528002A23D7E92A23D7E93401FDF757FA0346B6
:10353800002B03D0D7E92A23C7E93423D7F8B430BE
:103548000133C7F8B430D7F8B430172BDEDDB7F83D
:1035580094301846FCF756FF04460D465D4A5E490E
:103568005E4845EC104BFFF7BDFA534B03F5E66395
:10357800D3E90023C7E932230023C7F8B4301CE09D
:10358800D7F8B43001334C4AE633DB001344D3E9AF
:103598000023C7E92A23D7E92A23D7E93201FDF70F
:1035A8001DFA0346002B03D0D7E92A23C7E93223A3
:1035B800D7F8B4300133C7F8B430D7F8B430082B93
:1035C800DEDD474A4749484897ED320BFFF724FAB2
:1035D800394B03F5F063D3E90023C7E92E23002311
:1035E800C7F8B4301CE0D7F8B4300133324AF033AE
:1035F800DB001344D3E90023C7E92A23D7E92A23A8
:10360800D7E92E01FDF708FA0346002B03D0D7E9C6
:103618002A23C7E92E23D7F8B4300133C7F8B430CA
:10362800D7F8B430172BDEDDB7F896301846FCF71C
:10363800E9FE04460D462D4A2D492E4845EC104B0F
:10364800FFF7EAF91C4BD3E92823C7E9322397EDA2
:103658003C0B0CF041FEB0EE407AF0EE607A9FED44
:10366800141BB0EE470AF0EE670A0CF0FFFD87ED79
:103678002A0B4FF000024FF00003D7E92A01FDF7AB
:10368800ADF90346002B37D0D7F8A830BB67D7F879
:10369800AC3083F00043FB67D7E91E01FDF7DCF986
:1036A80003469BB25B429BB22CE000BFAFF30080A5
:1036B800000000000000F040F80300209000002007
:1036C800280F00202806002088000020480E00202F
:1036D80060050020C8000020D0140020280B00201E
:1036E800D000002038150020780B00208000002032
:1036F800680D002098040020D7E92A01FDF7ACF9ED
:1037080003469BB2AC4A138097ED300B0CF0E4FDF6
:10371800B0EE407AF0EE607A9FEDA51BB0EE470A56
:10372800F0EE670A0CF0A2FD87ED2A0B4FF00002BD
:103738004FF00003D7E92A01FDF750F90346002BA3
:1037480010D0D7F8A8303B67D7F8AC3083F00043E7
:103758007B67D7E91C01FDF77FF903469BB25B4203
:103768009BB205E0D7E92A01FDF776F903469BB23B
:10377800914A538097ED3A0B0CF0AEFDB0EE407ACB
:10378800F0EE607A9FED8A1BB0EE470AF0EE670A0A
:103798000CF06CFD87ED2A0B4FF000024FF0000390
:1037A800D7E92A01FDF71AF90346002B10D0D7F8FC
:1037B800A830BB66D7F8AC3083F00043FB66D7E986
:1037C8001A01FDF749F903469BB25B429BB205E03B
:1037D800D7E92A01FDF740F903469BB2764A938060
:1037E80097ED380B0CF078FDB0EE407AF0EE607A89
:1037F8009FED6F1BB0EE470AF0EE670A0CF036FD3E
:1038080087ED2A0B4FF000024FF00003D7E92A0199
:10381800FDF7E4F80346002B10D0D7F8A8303B6634
:10382800D7F8AC3083F000437B66D7E91801FDF781
:1038380013F903469BB25B429BB205E0D7E92A0124
:10384800FDF70AF903469BB25B4AD38097ED360B26
:103858000CF042FDB0EE407AF0EE607A9FED541B1A
:10386800B0EE470AF0EE670A0CF000FD87ED2A0B70
:103878004FF000024FF00003D7E92A01FDF7AEF838
:103888000346002B10D0D7F8A830BB65D7F8AC306A
:1038980083F00043FB65D7E91601FDF7DDF8034621
:1038A8009BB25B429BB205E0D7E92A01FDF7D4F849
:1038B80003469BB2404A138197ED340B0CF00CFD84
:1038C800B0EE407AF0EE607A9FED391BB0EE470A11
:1038D800F0EE670A0CF0CAFC87ED2A0B4FF00002E5
:1038E8004FF00003D7E92A01FDF778F80346002BCB
:1038F80010D0D7F8A8303B65D7F8AC3083F0004338
:103908007B65D7E91401FDF7A7F803469BB25B4234
:103918009BB205E0D7E92A01FDF79EF803469BB262
:10392800254A538197ED2E0B0CF0D6FCB0EE407A69
:10393800F0EE607A9FED1E1BB0EE470AF0EE670AC4
:103948000CF094FC87ED2A0B4FF000024FF00003B7
:10395800D7E92A01FDF742F80346002B10D0D7F823
:10396800A830BB64D7F8AC3083F00043FB64D7E9D8
:103978001201FDF771F803469BB25B429BB205E06A
:10398800D7E92A01FDF768F803469BB20A4A9381F2
:103998000A4BB3F87230084A1382094BD3E9F02373
:1039A800C7E930230023C7F8B43040E0AFF3008004
:1039B800000000000000F040C803002000000020C4
:1039C800F8030020D7F8B43001339F4A1433DB00E2
:1039D8001344D3E90023C7E92A23D7E92A23D7E9DF
:1039E8003201FCF7FBFF0346002B03D0D7E92A235B
:1039F800C7E93223D7F8B4300133934A7833DB0070
:103A08001344D3E90023C7E92A23D7E92A23D7E9AE
:103A18003001FDF701F80346002B03D0D7E92A232C
:103A2800C7E93023D7F8B4300133C7F8B430D7F832
:103A3800B430172BC6DD97ED320B0CF04DFCB0EE11
:103A4800407AF0EE607A9FED7E1BB0EE470AF0EE0A
:103A5800670A0CF00BFC87ED2A0B4FF000024FF0C1
:103A68000003D7E92A01FCF7B9FF0346002B10D061
:103A7800D7F8A8303B64D7F8AC3083F000437B64B8
:103A8800D7E91001FCF7E8FF03469BB25B429BB203
:103A980005E0D7E92A01FCF7DFFF03469BB26B4A32
:103AA800D381B7F88A301846FCF7ACFC04460D46BB
:103AB800674A6849684845EC104BFEF7ADFF624B12
:103AC80003F5C46353E90223C7E92E235E4B03F5CC
:103AD800926353E90223C7E93A235B4BD3E9BE2338
:103AE800C7E93823584BD3E98C23C7E93623564B0B
:103AF800D3E95A23C7E934230023C7F8B4307CE05C
:103B0800D7F8B4300133504AC333DB001344D3E948
:103B18000023C7E92A23D7E92A23D7E92E01FCF78E
:103B28007BFF0346002B03D0D7E92A23C7E92E23BE
:103B3800D7F8B4300133444A9133DB001344D3E956
:103B48000023C7E92A23D7E92A23D7E93A01FCF752
:103B580063FF0346002B03D0D7E92A23C7E93A239A
:103B6800D7F8B4300133384A5F33DB001344D3E964
:103B78000023C7E92A23D7E92A23D7E93801FCF724
:103B88004BFF0346002B03D0D7E92A23C7E9382384
:103B9800D7F8B43001332C4A4633DB001344D3E959
:103BA8000023C7E92A23D7E92A23D7E93601FCF7F6
:103BB80033FF0346002B03D0D7E92A23C7E936236E
:103BC800D7F8B4300133204A2D33DB001344D3E94E
:103BD8000023C7E92A23D7E92A23D7E93401FCF7C8
:103BE8001BFF0346002B03D0D7E92A23C7E9342358
:103BF800D7F8B4300133C7F8B430D7F8B430172B3E
:103C08007FF77EAFB7F894301846FCF7FBFB044605
:103C18000D46124A1249134845EC104BFEF7FCFEBC
:103C2800094B03F5AA63D3E90023C7E93223064BFE
:103C3800D3E92823C7E93C230023C7F8B43048E078
:103C4800000000000000F040F8030020C803002036
:103C5800B800002088130020100A0020B0000020BF
:103C6800A812002048090020D7F8B4300133BC4A14
:103C7800AA33DB001344D3E90023C7E92A23D7E991
:103C88002A23D7E93201FCF7C7FE0346002B03D0ED
:103C9800D7E92A23C7E93223D7F8B4300133B04A29
:103CA8001433DB001344D3E90023C7E92A23D7E9F7
:103CB8002A23D7E93C01FCF7AFFE0346002B03D0CB
:103CC800D7E92A23C7E93C23D7F8B4300133C7F82A
:103CD800B430D7F8B430172BC6DD97ED300B0CF0A5
:103CE800FBFAB0EE407AF0EE607A9FED9B1BB0EEE7
:103CF800470AF0EE670A0CF0B9FA87ED2A0B4FF085
:103D080000024FF00003D7E92A01FCF767FE0346DB
:103D1800002B10D0D7F8A830BB63D7F8AC3083F0AD
:103D28000043FB63D7E90E01FCF796FE03469BB2FE
:103D38005B429BB205E0D7E92A01FCF78DFE0346FA
:103D48009BB2884A138097ED2E0B0CF0C5FAB0EEA3
:103D5800407AF0EE607A9FED801BB0EE470AF0EEF5
:103D6800670A0CF083FA87ED2A0B4FF000024FF038
:103D78000003D7E92A01FCF731FE0346002B10D0D7
:103D8800D7F8A8303B63D7F8AC3083F000437B63A7
:103D9800D7E90C01FCF760FE03469BB25B429BB27D
:103DA80005E0D7E92A01FCF757FE03469BB26D4AA6
:103DB800538097ED3A0B0CF08FFAB0EE407AF0EEA4
:103DC800607A9FED651BB0EE470AF0EE670A0CF0CB
:103DD8004DFA87ED2A0B4FF000024FF00003D7E9A8
:103DE8002A01FCF7FBFD0346002B10D0D7F8A830BA
:103DF800BB62D7F8AC3083F00043FB62D7E90A0115
:103E0800FCF72AFE03469BB25B429BB205E0D7E96A
:103E18002A01FCF721FE03469BB2524A938097ED94
:103E2800380B0CF059FAB0EE407AF0EE607A9FED5C
:103E38004A1BB0EE470AF0EE670A0CF017FA87ED56
:103E48002A0B4FF000024FF00003D7E92A01FCF7D4
:103E5800C5FD0346002B10D0D7F8A8303B62D7F831
:103E6800AC3083F000437B62D7E90801FCF7F4FD2E
:103E780003469BB25B429BB205E0D7E92A01FCF7F7
:103E8800EBFD03469BB2374AD38097ED360B0CF017
:103E980023FAB0EE407AF0EE607A9FED2F1BB0EE79
:103EA800470AF0EE670A0CF0E1F987ED2A0B4FF0AC
:103EB80000024FF00003D7E92A01FCF78FFD034603
:103EC800002B10D0D7F8A830BB61D7F8AC3083F0FE
:103ED8000043FB61D7E90601FCF7BEFD03469BB230
:103EE8005B429BB205E0D7E92A01FCF7B5FD034622
:103EF8009BB21C4A138197ED340B0CF0EDF9B0EE30
:103F0800407AF0EE607A9FED141BB0EE470AF0EEAF
:103F1800670A0CF0ABF987ED2A0B4FF000024FF05F
:103F28000003D7E92A01FCF759FD0346002B1BD0F3
:103F3800D7F8A8303B61D7F8AC3083F000437B61F9
:103F4800D7E90401FCF788FD03469BB25B429BB2AC
:103F580010E000BFAFF30080000000000000F04058
:103F6800F8030020DC030020D7E92A01FCF774FDE0
:103F780003469BB2B64A538197ED320B0CF0ACF96D
:103F8800B0EE407AF0EE607A9FEDAF1BB0EE470AD4
:103F9800F0EE670A0CF06AF987ED2A0B4FF0000281
:103FA8004FF00003D7E92A01FCF718FD0346002B60
:103FB80010D0D7F8A830BB60D7F8AC3083F00043F6
:103FC800FB60D7E90201FCF747FD03469BB25B4261
:103FD8009BB205E0D7E92A01FCF73EFD03469BB2F8
:103FE8009B4A938197ED3C0B0CF076F9B0EE407A42
:103FF800F0EE607A9FED941BB0EE470AF0EE670A88
:104008000CF034F987ED2A0B4FF000024FF0000353
:10401800D7E92A01FCF7E2FC0346002B10D0D7F8B9
:10402800A8303B60D7F8AC3083F000437B60D7E919
:104038000001FCF711FD03469BB25B429BB205E011
:10404800D7E92A01FCF708FD03469BB2804AD381D1
:10405800804BB3F874207E4B1A827F48FEF7C1FA72
:10406800C7F8A400D7F8A43003F00403002B0CBF52
:1040780001230023DBB287F8A3307848FEF7B1FAB2
:10408800C7F8A400D7F8A43003F04003C7F8A43059
:10409800D7F8A430002B0CBF01230023DBB287F82C
:1040A80087306F4BB3F8583040F2FE32934207D84E
:1040B8006B4BB3F8583001339AB2694BA3F85820C8
:1040C800674B93F85C301E2B07D8654B93F85C3030
:1040D8000133DAB2624B83F85C20614B93F85630B7
:1040E80003F00203DBB2002B0FD15D4A92F8563081
:1040F80043F0020382F85630594A92F854300321AB
:1041080061F3020382F854309BE2554B93F8543024
:10411800C3F30203DBB2032B00F09F81032B00F3F0
:104128005782012B02D0022B06D051E207F18703F8
:104138001846FEF711FD84E24A494FF000024A4B47
:10414800C1E9102347494FF00002474BC1E9122348
:1041580044494FF00002444BC1E9142341494FF050
:104168000002414BC1E916233E494FF000024FF0CF
:104178000003C1E918233B494FF000024FF0000348
:10418800C1E91A2337494FF000024FF00003C1E993
:104198001C2334494FF000024FF00003C1E91E23ED
:1041A80097F8A330002B3CD02D4A536D23F4C0332D
:1041B80053652B4AB2F8543023F4E073A2F8543014
:1041C800274A92F85430042161F3020382F85430EC
:1041D800244B002283F89C2022494FF000024FF024
:1041E8000003C1E910231F494FF000024FF00003FC
:1041F800C1E912231B494FF000024FF00003C1E947
:10420800142318494FF000024FF00003C1E91623A8
:10421800144B0022A3F89820124B0022A3F89A20EE
:104228000FE20F4BB3F85430C3F38213DBB2032B06
:1042380000F0D980032B00F3F080012B16D0022B5D
:104248006DD0EAE0AFF30080000000000000F0400D
:10425800DC03002000000020000400480010004893
:10426800080D0020F80300200000F03FA34BB3F82E
:104278008A3040F60A72934211D9A14AB2F85430F2
:10428800032161F38813A2F854309C4B0022A3F851
:1042980098209A4B4FF6B572A3F89A20D7E0974B1F
:1042A800B3F8843040F63C72934211D9944AB2F87C
:1042B8005430042161F38813A2F854308F4B4FF621
:1042C800B572A3F898208D4B0022A3F89A20BEE07F
:1042D8008A4BB3F88C30B3F52F6F06D8874BB3F8F9
:1042E8008230B3F52F6F40F2B280854AB2F854306D
:1042F800022161F38813A2F85430804B0022A3F8FE
:1043080098207E4B0022A3F89A207D4B0022A3F828
:1043180058207B4A536D43F4C033536597E0774B7D
:10432800B3F88C3040F6970293421ED8734BB3F81B
:10433800823040F6C312934217D8714A536D23F462
:10434800C03353656E4AB2F85430012161F38813C3
:10435800A2F85430694B4FF6AB72A3F89820674B1C
:104368004FF6AB72A3F89A203CE0654B5B6DC3F344
:10437800C133DBB2012B02D0022B2ED014E0604BEC
:10438800B3F85830B3F5167F29D35D4A536D02212F
:1043980061F3D0335365594B0022A3F89820574B4B
:1043A8000022A3F89A201AE0554BB3F85830042B92
:1043B80017D9534B0022A3F85820514A536D0121B5
:1043C80061F3D03353654D4B4B22A3F898204B4BE8
:1043D8004FF6B572A3F89A2003E000BF3CE000BF97
:1043E8003AE000BF38E0454BB3F88A3040F63B72FC
:1043F80093422ED8424AB2F85430012161F388130F
:10440800A2F854303D4B4FF6AB72A3F898203B4BC3
:104418004FF6AB72A3F89A201BE0384BB3F8843000
:1044280040F6D762934216D8354AB2F85430012183
:1044380061F38813A2F85430304B4FF6AB72A3F8EF
:1044480098202E4B4FF6AB72A3F89A2003E000BFDA
:10445800F7E000BFF5E000BFF3E0D7F8A430002B89
:1044680052D1274A92F85430012161F3020382F8AD
:104478005430224B002283F89C2020494FF0000240
:10448800204BC1E910231D494FF000021D4BC1E923
:1044980012231A494FF000021A4BC1E91423174995
:1044A8004FF00002174BC1E9162314494FF00002E0
:1044B800144BC1E9182311494FF00002114BC1E90F
:1044C8001A230E494FF000020E4BC1E91C230B4979
:1044D8004FF000020B4BC1E91E23094B0022A3F841
:1044E8005820074A92F85430022161F3C50382F834
:1044F8005430024B012283F89D20A2E0F8030020EB
:10450800080D00200000F03F97F8A330002B52D090
:104518009E4A92F85430022161F3020382F8543023
:104528009B4B002283F89C2099494FF00002994B3D
:10453800C1E9102396494FF00002964BC1E91223B6
:1045480093494FF00002934BC1E9142390494FF06F
:104558000002904BC1E916238D494FF000024FF03D
:104568000003C1E918238A494FF000024FF0000305
:10457800C1E91A2386494FF000024FF00003C1E950
:104588001C2383494FF000024FF00003C1E91E23AA
:104598007E4AB2F85430012161F38813A2F85430EE
:1045A8007B4B4FF6AB72A3F89820794B4FF6AB7262
:1045B800A3F89A2045E0764B93F89C30002B0CBF6B
:1045C80001230023DBB21A46714B83F89C2038E0A4
:1045D8006F494FF000024FF00003C1E910236C4906
:1045E8004FF000024FF00003C1E9122368494FF071
:1045F80000024FF00003C1E9142365494FF000029F
:104608004FF00003C1E9162361494FF000024FF053
:104618000003C1E918235E494FF000024FF0000380
:10462800C1E91A235A494FF000024FF00003C1E9CB
:104638001C2357494FF000024FF00003C1E91E2325
:1046480000BF534BD3E91C014FF000024FF00003A9
:10465800FCF7E2F90346002B05D04F4BD3E91423AE
:104668004B49C1E902234A4BD3E914014FF0000238
:104678004FF00003FCF7D0F90346002B05D0464B5A
:10468800D3E914234249C1E90A23414BD3E9100174
:104698004FF000024FF00003FCF7BEF90346002B71
:1046A80005D03B4BD3E910233949C1E90E23384BD8
:1046B800D3E918014FF000024FF00003FCF7ACF902
:1046C8000346002B05D0344BD3E914233049C1E904
:1046D80006232F4BD3E91A014FF000024FF00003D5
:1046E800FCF79AF90346002B05D02B4BD3E914238A
:1046F8002749C1E90423264BD3E912014FF00002F0
:104708004FF00003FCF788F90346002B05D0204B37
:10471800D3E912231E49C1E90C231D4BD3E9160125
:104728004FF000024FF00003FCF776F90346002B28
:1047380005D0194BD3E914231549C1E90823144BB3
:10474800D3E91E014FF000024FF00003FCF764F9B3
:104758000346002B05D0104BD3E914230C49C1E9BB
:1047680000230E4BC7F89C30094BD3E90E014FF0DC
:1047780000024FF00003FCF727F90346002B0FD186
:104788004FF40073C7F8B4300DE000BF080D0020E7
:10479800F80300200000F03F00000020001000484F
:1047A8000023C7F8B430D7F8B4301946D7F89C00BE
:1047B800FDF723FFD7F8B430DB4303F40073194641
:1047C800D7F89C00FDF727FFB34BC7F89C30B34BD5
:1047D800D3E90C014FF000024FF00003FCF7F4F8A6
:1047E8000346002B04D14FF48043C7F8B43002E0ED
:1047F8000023C7F8B430D7F8B4301946D7F89C006E
:10480800FDF7FBFED7F8B430DB4303F480431946C9
:10481800D7F89C00FDF7FFFE9F4BC7F89C309F4BD5
:10482800D3E90A014FF000024FF00003FCF7CCF87F
:104838000346002B04D14FF48073C7F8B43002E06C
:104848000023C7F8B430D7F8B4301946D7F89C001D
:10485800FDF7D3FED7F8B430DB4303F48073194671
:10486800D7F89C00FDF7D7FE8B4BC7F89C308B4BD5
:10487800D3E908014FF000024FF00003FCF7A4F859
:104888000346002B04D14FF40043C7F8B43002E0CC
:104898000023C7F8B430D7F8B4301946D7F89C00CD
:1048A800FDF7ABFED7F8B430DB4303F400431946F9
:1048B800D7F89C00FDF7AFFE774BC7F89C30774BD5
:1048C800D3E906014FF000024FF00003FCF77CF833
:1048D8000346002B04D14FF48053C7F8B43002E0EC
:1048E8000023C7F8B430D7F8B4301946D7F89C007D
:1048F800FDF783FED7F8B430DB4303F48053194641
:10490800D7F89C00FDF787FE654BC7F89C30634BD2
:10491800D3E902014FF000024FF00003FCF754F80E
:104928000346002B04D14FF48053C7F8B43002E09B
:104938000023C7F8B430D7F8B4301946D7F89C002C
:10494800FDF75BFED7F8B430DB4303F48053194618
:10495800D7F89C00FDF75FFE4F4BC7F89C304F4BD4
:10496800D3E900014FF000024FF00003FCF72CF8E8
:104978000346002B04D14FF40053C7F8B43002E0CB
:104988000023C7F8B430D7F8B4301946D7F89C00DC
:10499800FDF733FED7F8B430DB4303F40053194670
:1049A800D7F89C00FDF737FE3B4BC7F89C303B4BD4
:1049B800D3E904014FF000024FF00003FCF704F8BC
:1049C8000346002B04D14FF40063C7F8B43002E06B
:1049D8000023C7F8B430D7F8B4301946D7F89C008C
:1049E800FDF70BFED7F8B430DB4303F40063194638
:1049F800D7F89C00FDF70FFE2A4B93F85A3087F83A
:104A08009B30264BB3F99A30002B04DD254B00224E
:104A180083F85A2003E0234B012283F85A20214BC4
:104A280093F95A3097F99B209A4219D097F99B30FD
:104A3800022B14D0022B13DC002B02D0012B07D041
:104A48000EE0194BB3F96C20144BA3F8922007E041
:104A5800154BB3F96E20114BA3F8902000E000BF6E
:104A6800104B93F95A30002B06D10C4BB3F99A200E
:104A78000A4BA3F892201FE0084BB3F99A30002B99
:104A880014DA064BB3F99A309BB25B429BB21AB266
:104A9800024BA3F890200FE000100048F803002014
:104AA80000040048080D0020000000207F4BB3F9E7
:104AB8009A207E4BA3F890207D4B1B6C7B4AB2F961
:104AC800922007EE902AF8EEE77AB0EE670A1846C9
:104AD800FDF754FE764B1B6C744AB2F9902007EE32
:104AE800902AF8EEE77AB0EE670A1846FDF75AFE04
:104AF8006F4B93F85B3087F89B306C4BB3F9983069
:104B0800002B04DD6A4B002283F85B2003E0684B2E
:104B1800012283F85B20664B93F95B3097F99B2061
:104B28009A4219D097F99B30022B14D0022B13DC30
:104B3800002B02D0012B07D00EE05E4BB3F96820A2
:104B48005A4BA3F8962007E05A4BB3F96A20574B03
:104B5800A3F8942000E000BF554B93F95B30002B7D
:104B680006D1524BB3F99820504BA3F8962015E084
:104B78004E4BB3F99830002B0ADA4C4BB3F9983006
:104B88009BB25B429BB21AB2484BA3F8942005E053
:104B9800464BB3F99820454BA3F89420444B1B6D22
:104BA800424AB2F9962007EE902AF8EEE77AB0EE7C
:104BB800670A1846FDF70AFE3D4B1B6D3B4AB2F9E2
:104BC800942007EE902AF8EEE77AB0EE670A1846C6
:104BD800FDF710FE384BC7F89C30344B93F89C30E7
:104BE800002B04D04FF40053C7F8B43002E0002380
:104BF800C7F8B430D7F8B4301946D7F89C00FDF799
:104C0800FCFCD7F8B430DB4303F400531946D7F85B
:104C18009C00FDF700FD284BC7F89C30234B93F808
:104C28009D30002B04D04FF48043C7F8B43002E025
:104C38000023C7F8B430D7F8B4301946D7F89C0029
:104C4800FDF7DBFCD7F8B430DB4303F480431946A7
:104C5800D7F89C00FDF7DFFC174BC7F89C30134BC7
:104C680093F89E30002B04D04FF40043C7F8B430BB
:104C780002E00023C7F8B430D7F8B4301946D7F8A3
:104C88009C00FDF7BAFCD7F8B430DB4303F40043CB
:104C98001946D7F89C00FDF7BEFC00F06BFB00F04E
:104CA8007FFC00BFF837BD46B0BD00BFF803002049
:104CB800080D0020000000200008004880B582B0E0
:104CC80000AF00237B6011E0824B93F87C10824A8E
:104CD8007B6813440A461A707E4BB3F870107F4AFB
:104CE8007B6822F813107B6801337B607B68072B95
:104CF800EADD784B9B6D7A4A1360764BDB6D794A17
:104D08001360744B1B6E784A1360724B5B6E774A64
:104D18001360704B1B6E744A53606E4B5B6E734A24
:104D280053606C4B1B6E704A93606A4B5B6E6F4AA4
:104D3800936000237B6017E0664BB3F876106C4AEB
:104D48007B6822F81310634BB3F87810694A7B68C4
:104D580022F813105F4BB3F87A10674A7B6822F881
:104D680013107B6801337B607B68082BE4DD634BA1
:104D7800FF2283F85A20614BFF2283F85B2000F062
:104D88008DFB544BB3F96C205D4BA3F89220514B2B
:104D9800B3F96E205A4BA3F890204E4BB3F9682014
:104DA800574BA3F896204B4BB3F96A20544BA3F802
:104DB8009420484BD3E90C235149C1E90223454BC0
:104DC800D3E904234E49C1E90A23424BD3E900231E
:104DD8004B49C1E90E233F4BD3E908234849C1E9B0
:104DE80006233C4BD3E90A234549C1E90423394B3F
:104DF800D3E902234249C1E90C23364BD3E9062300
:104E08003F49C1E90823334BD3E90E233C49C1E9A3
:104E180000233A4B00225A60384B00221A70374858
:104E2800FEF766F837493848FDF7CAFD374938486C
:104E3800FDF72CFE37493848FDF7C2FD3749384899
:104E4800FDF7BEFD37493848FDF7BAFD3749384800
:104E5800FDF7B6FD37493848FDF7B2FD3749384800
:104E6800FDF714FE37493848FDF7AAFD3749384899
:104E7800FDF7A6FD37493848FDF7A2FD3749384800
:104E8800FDF79EFD1D4B002283F834201B4B0022AA
:104E980083F83C20194B01229A633248FEF770F8D8
:104EA800164B012283F83C20144B002283F844203F
:104EB800124B002283F84C20104B01229A642A4896
:104EC800FEF79AF80D4B012283F84C2000BF0837F3
:104ED800BD4680BD00000020F0030020A403002090
:104EE8009C030020A00300208403002090030020DE
:104EF800B4030020C8030020DC030020080D0020B4
:104F0800F8030020A0000020E8100020C0000020C6
:104F180068140020D800002018160020A8000020DF
:104F2800C8110020980000200810002090000020E0
:104F3800280F002088000020480E0020C80000200C
:104F4800D0140020D0000020381500208000002058
:104F5800680D0020B800002088130020B000002051
:104F6800A81200203C0D00204C0D002080B500AF99
:104F7800344B1B78002B11D1324B01221A70314B64
:104F88005B68012B0AD12F4B1B7A002B06D02D4BC7
:104F9800DB68012204211846FDF748F9294B93F8EC
:104FA8003430002B23D1274B012283F83420254BA2
:104FB8009B6B012B1BD1234B93F83C30002B16D055
:104FC800204B1B6C1846FDF7C1FC1E4B1B6C0021C7
:104FD8001846FCF730F81B4B1B6C02211846FCF7EF
:104FE80015F9184B1B6C02211846FCF7AFF9154B45
:104FF80093F84430002B23D1124B012283F844202C
:10500800104B9B6C012B1BD10E4B93F84C30002B93
:1050180016D00C4B1B6D1846FDF798FC094B1B6D01
:1050280000211846FCF707F8064B1B6D02211846AD
:10503800FCF730FA034B1B6D02211846FCF792FA75
:1050480000BF80BD080D002080B489B000AFF860B3
:10505800B9607A60FB68BB610023FB61BB689B0891
:105068007B611B4B1B68B3F5C87F2AD00023FB610B
:1050780022E0174B1B6817497A6841F82320FB691F
:105088009B00BA691A44124B1B681268114903F550
:10509800C87341F823200E4B1B680F4A12680D494C
:1050A80003F5487341F82320094B1B680133084A6C
:1050B8001360FB690133FB61FA697B699A42D8D3B3
:1050C80000E000BF2437BD465DF8047B704700BF91
:1050D80000170020081700200417002080B584B0AE
:1050E80000AF786072B600BF00F0A8FC0346FB6012
:1050F80007F10C037A6804211846FFF7A5FF62B68A
:1051080000BF00BF1037BD4680BD000080B582B02B
:1051180000AF344B1B785A1CD1B2324A1170002BA5
:1051280009D0314B01221A602E4B1B78013BDAB2B1
:105138002C4B1A7053E03B1D1846FDF715FC62B660
:1051480000BF02200BF076F8FDF792FF02200BF06B
:105158007CF872B600BF234B1B78013BDAB2214BB7
:105168001A707B79002B11D0204B5B785A1CD1B276
:105178001E4A5170002B09D01B4B01221A601B4B91
:105188005B78013BDAB2194B5A7028E0174B5B7811
:10519800002B24D0134B5B78002B1FD1114B5B786D
:1051A8000133DAB20F4B5A7062B600BF03200BF01E
:1051B80041F8FDF7D1FF03200BF047F800BF72B6A6
:1051C80000BF0A4B5B78013BDAB2084B5A70054BBB
:1051D8005B78013BDAB2034B5A7000E000BF083736
:1051E800BD4680BDCC290020C8290020D029002038
:1051F80080B584B000AF78603960374BFB60374BBF
:10520800BB60374B00221A70364B00221A7001DF40
:1052180006F02CFB00F0E2FE00F030FF00F090FFFB
:1052280001F056FF01F074FB02F0A0F901F0C0FF95
:1052380002F04CFA01F010FD02F010FD02F068FCDB
:10524800294B1B6800221A6001200AF0F3FFFFF7C0
:1052580035FD01200AF0F9FF72B600BF97ED030A89
:1052680000F08CFC204B1B681B68002B0CBF012333
:105278000023DBB21A461B4B1A7062B600BF62B637
:1052880000BF15E0184B1B681B68002B14BF0123D7
:105298000023DBB21A46124B1A70114B1B78DBB293
:1052A800002B05D0114B1B68104A23F00103136033
:1052B8000C4B1B78DBB2002BE4D104200AF0BAFFB8
:1052C800FFF754FE04200AF0C0FF72B600BF0023A7
:1052D80018461037BD4680BDCDCC4C3D0000A042DD
:1052E800D2290020D3290020EC07010810E000E0B3
:1052F80080B485B000AF0346FB80B7F90630002BB9
:1053080002DBFB88FB8101E0FB88FB81B7F90E30EB
:1053180018461437BD465DF8047B704780B588B0E1
:1053280004AF03460A46FB711346BB71FB799BB277
:105338005B009BB2013399B2BB799AB24FF0FF334D
:1053480002930223019307F10C03009301230848F9
:1053580006F07EFE3B7B1BB21B021AB27B7B1BB2A4
:1053680013431BB29BB218461037BD4680BD00BF21
:10537800002A002080B500AF3B216920FFF7CEFF4F
:1053880003461846FFF7B4FF03461A4613469B0028
:1053980013445B0007EE903AB8EEE77ADFED3B6A1C
:1053A800C7EE267A3A4BC3ED007A3D216920FFF714
:1053B800B5FF03461846FFF79BFF03461A461346F8
:1053C8009B0013445B0007EE903AB8EEE77ADFEDF6
:1053D8002F6AC7EE267A2E4BC3ED017A3F2169204A
:1053E800FFF79CFF03461846FFF782FF03461A465D
:1053F80013469B0013445B0007EE903AB8EEE77A39
:10540800DFED226AC7EE267A214BC3ED027A4321EB
:105418006920FFF783FF03461846FFF769FF034635
:1054280007EE903AB8EEE77ADFED1A6AC7EE267A09
:10543800194BC3ED007A45216920FFF76FFF03463A
:105448001846FFF755FF034607EE903AB8EEE77A9D
:10545800DFED106AC7EE267A0F4BC3ED017A4721BC
:105468006920FFF75BFF03461846FFF741FF034635
:1054780007EE903AB8EEE77ADFED066AC7EE267ACD
:10548800054BC3ED027A00BF80BD00BF0000804617
:1054980084030020000003439003002080B586B0F9
:1054A80004AF0023FB714FF0FF33029301230193F4
:1054B800FB1D009301236B22D2211D4806F0B4FC8A
:1054C8004FF0FF3302930123019307230093012335
:1054D8001922D221164806F0A7FC4FF0FF33029399
:1054E800012301930023009301231C22D221104899
:1054F80006F09AFC4FF0FF33029301230193002337
:10550800009301231B22D221094806F08DFC4FF09D
:10551800FF33029301230193064B00930123752265
:10552800D321034806F094FD00BF0837BD4680BD6F
:10553800002A0020D429002080B582B000AF0023C3
:105548007B600FE07B68432B08D07B68052B05D078
:105558007B685BB2184607F0E9FA00E000BF7B6899
:1055680001337B607B68EF2BECD900BF00BF0837A5
:10557800BD4680BD80B582B000AF00237B6007E0E8
:105588007B685BB2184607F0C3FA7B6801337B601F
:105598007B68EF2BF4D900BF00BF0837BD4680BD3C
:1055A80080B500AF4021AA4806F096FB0346002BC1
:1055B80014BF01230023DAB2A64B1A700421A648AF
:1055C80006F08AFB0346002B14BF01230023DAB23E
:1055D800A04B5A704FF40051A04806F07DFB0346DB
:1055E800002B14BF01230023DAB29D4B1A704FF42D
:1055F80080419A4806F070FB0346002B14BF012334
:105608000023DAB2964B5A704FF40041934806F0E3
:1056180063FB0346002B14BF01230023DAB2904B2F
:105628009A704FF480518C4806F056FB0346002BC5
:1056380014BF01230023DAB28A4B1A704FF4807129
:10564800834806F049FB0346002B14BF01230023BF
:10565800DAB2844B5A704FF400717D4806F03CFB77
:105668000346002B14BF01230023DAB27D4B9A7046
:105678004FF48051764806F02FFB0346002B14BFE9
:1056880001230023DAB2774BDA704FF400617048D7
:1056980006F022FB0346002B14BF01230023DAB2D5
:1056A800704B1A714FF48041694806F015FB0346A8
:1056B800002B14BF01230023DAB26A4B5A714FF44E
:1056C8000041634806F008FB0346002B14BF012382
:1056D8000023DAB2634B9A714FF400515C4806F02C
:1056E800FBFA0346002B14BF01230023DAB25D4BFB
:1056F800DA715D4B5B6B9AB25C4B1A805A4B9B6BB1
:105708009AB25A4B5A80584BDB6B9AB2584B1A8054
:10571800554B1B6C9AB2564B5A80FFF70DFF08E0A9
:105728004FF400714FF0904006F0D6FA0346012B73
:1057380007D103214F4803F0C1F80346002BEFD1EE
:105748000AE000BF08E04FF400714FF0904006F007
:10575800C3FA0346012B07D102213E4803F0AEF8F5
:105768000346002BEFD10AE000BF08E04FF40071B8
:105778004FF0904006F0B0FA0346012B07D1032101
:10578800374803F09BF80346002BEFD10AE000BF2F
:1057980008E04FF400714FF0904006F09DFA034680
:1057A800012B07D10C21344803F088F80346002B5D
:1057B800EFD10AE000BF08E04FF400714FF09040CD
:1057C80006F08AFA0346012B07D10C212B4803F077
:1057D80075F80346002BEFD10AE000BF08E04FF44C
:1057E80000714FF0904006F077FA0346012B07D17D
:1057F8001221234803F062F80346002BEFD10AE098
:1058080000BF08E04FF400714FF0904006F064FAD2
:105818000346012B07D112211A4803F04FF803461B
:10582800002BEFD10AE000BF08E04FF400714FF001
:10583800904006F051FA0346012B07D11221124875
:1058480003F03CF80346002BEFD128E000BF26E028
:1058580000100048D829002000040048000800482B
:10586800DC290020E029002000040040F029002065
:10587800EC290020900701088403002090030020F1
:10588800B4030020C8030020DC0300204FF400719B
:105898004FF0904006F020FA0346012B07D108216B
:1058A800514803F00BF80346002BEFD10AE000BF84
:1058B80008E04FF400714FF0904006F00DFA0346EF
:1058C800012B07D10421494802F0F8FF0346002BB9
:1058D800EFD10AE000BF08E04FF400714FF09040AC
:1058E80006F0FAF90346012B07D10421404802F0DB
:1058F800E5FF0346002BEFD10AE000BF08E04FF4B4
:1059080000714FF0904006F0E7F90346012B07D1EC
:105918000421384802F0D2FF0346002BEFD10AE0F9
:1059280000BF08E04FF400714FF0904006F0D4F942
:105938000346012B07D108212F4802F0BFFF034679
:10594800002BEFD10AE000BF08E04FF400714FF0E0
:10595800904006F0C1F90346012B07D110212748D2
:1059680002F0ACFF0346002BEFD10AE000BF08E0CD
:105978004FF400714FF0904006F0AEF90346012B4A
:1059880007D104211E4802F099FF0346002BEFD1EE
:105998000AE000BF08E04FF400714FF0904006F0B5
:1059A8009BF90346012B07D10421164802F086FF14
:1059B8000346002BEFD10AE000BF08E04FF4007166
:1059C8004FF0904006F088F90346012B07D10421D7
:1059D8000D4802F073FF0346002BEFD100E000BF33
:1059E800FFF7C8FD00BF80BDE0290020E82900209E
:1059F800EC290020F0290020F0030020A403002057
:105A0800A00300209C0300209407010880B584B0FF
:105A180000AF786005F056FFF8607B68BB6000BF98
:105A280005F050FF0246FB68D31ABA689A42F7D8C5
:105A380000BF00BF1037BD4680BD000010B50E4C3A
:105A480082B0636A019305F03DFF0090626A019B92
:105A58009A4207D3009B01984FF47A7202FB030025
:105A680002B010BD05F02EFF636A4FF47A7202FB94
:105A7800003002B010BD00BF002C014080B483B0DC
:105A880000AF03463960FB7197F90730002B0ADB3A
:105A98003B68DAB20C4997F907301201D2B20B44CD
:105AA80083F800230AE03B68DAB20849FB7903F07F
:105AB8000F03043B1201D2B20B441A7600BF0C3715
:105AC800BD465DF8047B704700E100E000ED00E0B2
