:020000040800F2
:100000000080012069F60008C77D0008CF7D000848
:10001000D77D0008DF7D0008E77D000800000000B4
:100020000000000000000000000000000D5100086A
:10003000EF7D000800000000C9500008F94F0008DB
:10004000B9F60008B9F60008B9F60008B9F60008D4
:10005000B9F60008B9F60008B9F60008B9F60008C4
:10006000B9F60008B9F60008B9F60008FD7D0008E9
:10007000891F0008B9F60008B9F60008B9F60008AB
:100080000B7E0008197E0008277E0008B9F60008DC
:10009000B9F60008B9F60008B9F60008B9F6000884
:1000A000B9F60008357E0008B9F60008B9F6000870
:1000B000B9F60008B9F60008B9F60008B9F6000864
:1000C000B9F60008B9F60008B9F60008B9F6000854
:1000D000B9F60008B9F60008B9F60008B9F6000844
:1000E000B9F60008B9F60008B9F60008B9F6000834
:1000F000B9F60008B9F60008B9F60008B9F6000824
:10010000B9F60008B9F60008B9F60008B9F6000813
:10011000B9F60008B9F60008B9F60008B9F6000803
:10012000B9F60008B9F60008B9F60008B9F60008F3
:10013000B9F60008B9F60008B9F60008B9F60008E3
:10014000B9F60008B9F60008B9F60008497E0008BB
:10015000B9F60008B9F60008B9F60008B9F60008C3
:10016000B9F60008B9F60008B9F60008B9F60008B3
:10017000B9F60008B9F60008B9F60008000000005A
:08018000B9F60008B9F6000809
:1001880081F0004102E000BF83F0004330B54FEA40
:1001980041044FEA430594EA050F08BF90EA020FAD
:1001A8001FBF54EA000C55EA020C7FEA645C7FEA40
:1001B800655C00F0E2804FEA5454D4EB5555B8BF63
:1001C8006D420CDD2C4480EA020281EA030382EAD4
:1001D800000083EA010180EA020281EA0303362D66
:1001E80088BF30BD11F0004F4FEA01314FF4801C39
:1001F8004CEA113102D0404261EB410113F0004F4B
:100208004FEA03334CEA133302D0524263EB430301
:1002180094EA050F00F0A780A4F10104D5F1200E9F
:100228000DDB02FA0EFC22FA05F2801841F10001FA
:1002380003FA0EF2801843FA05F359410EE0A5F1CE
:1002480020050EF1200E012A03FA0EFC28BF4CF0FF
:10025800020C43FA05F3C01851EBE37101F00045B5
:1002680007D54FF0000EDCF1000C7EEB00006EEBC2
:100278000101B1F5801F1BD3B1F5001F0CD349084C
:100288005FEA30004FEA3C0C04F101044FEA4452A3
:1002980012F5800F80F09A80BCF1004F08BF5FEA2A
:1002A800500C50F1000041EB045141EA050130BD0A
:1002B8005FEA4C0C404141EB0101013C28BFB1F51C
:1002C800801FE9D291F0000F04BF01460020B1FA67
:1002D80081F308BF2033A3F10B03B3F120020CDA3A
:1002E8000C3208DD02F1140CC2F10C0201FA0CF018
:1002F80021FA02F10CE002F11402D8BFC2F1200C7D
:1003080001FA02F120FA0CFCDCBF41EA0C01904032
:10031800E41AA2BF01EB0451294330BD6FEA04047B
:100328001F3C1CDA0C340EDC04F11404C4F1200266
:1003380020FA04F001FA02F340EA030021FA04F378
:1003480045EA030130BDC4F10C04C4F1200220FACF
:1003580002F001FA04F340EA0300294630BD21FA0D
:1003680004F0294630BD94F0000F83F4801306BFD3
:1003780081F480110134013D4EE77FEA645C18BFC7
:100388007FEA655C29D094EA050F08BF90EA020F5E
:1003980005D054EA000C04BF1946104630BD91EA56
:1003A800030F1EBF0021002030BD5FEA545C05D159
:1003B8004000494128BF41F0004130BD14F5800498
:1003C8003CBF01F5801130BD01F0004545F0FE410C
:1003D80041F470014FF0000030BD7FEA645C1ABF41
:1003E800194610467FEA655C1CBF0B46024650EA78
:1003F800013406BF52EA033591EA030F41F40021A4
:1004080030BD00BF90F0000F04BF0021704730B529
:100418004FF4806404F132044FF000054FF00001FE
:1004280050E700BF90F0000F04BF0021704730B5BF
:100438004FF4806404F1320410F0004548BF404294
:100448004FF000013EE700BF42004FEAE2014FEAE9
:1004580031014FEA02701FBF12F07F4393F07F4FC4
:1004680081F06051704732F07F4208BF704793F0C7
:100478007F4F04BF41F40021704730B54FF46074DA
:1004880001F0004521F000411CE700BF50EA0102DD
:1004980008BF704730B54FF000050AE050EA010286
:1004A80008BF704730B511F0004502D5404261EBF6
:1004B80041014FF4806404F132045FEA915C3FF437
:1004C800D8AE4FF003025FEADC0C18BF03325FEAD4
:1004D800DC0C18BF033202EBDC02C2F1200300FA85
:1004E80003FC20FA02F001FA03FE40EA0E0021FAAA
:1004F80002F11444BDE600BF70B54FF0FF0C4CF498
:10050800E06C1CEA11541DBF1CEA135594EA0C0F49
:1005180095EA0C0F00F0DEF82C4481EA030621EA84
:100528004C5123EA4C5350EA013518BF52EA0335BF
:1005380041F4801143F4801338D0A0FB02CE4FF071
:100548000005E1FB02E506F00042E0FB03E54FF0A1
:100558000006E1FB03569CF0000F18BF4EF0010E99
:10056800A4F1FF04B6F5007F64F5407404D25FEA95
:100578004E0E6D4146EB060642EAC62141EA555148
:100588004FEAC52040EA5E504FEACE2EB4F1FD0C8A
:1005980088BFBCF5E06F1ED8BEF1004F08BF5FEA08
:1005A800500E50F1000041EB045170BD06F00046BA
:1005B80046EA010140EA020081EA0301B4EB5C0467
:1005C800C2BFD4EB0C0541EA045170BD41F480115F
:1005D8004FF0000E013C00F3AB8014F1360FDEBF84
:1005E800002001F0004170BDC4F10004203C35DA60
:1005F8000C341BDC04F11404C4F1200500FA05F3E3
:1006080020FA04F001FA05F240EA020001F0004283
:1006180021F0004110EBD37021FA04F642EB0601F9
:100628005EEA430E08BF20EAD37070BDC4F10C0423
:10063800C4F1200500FA04F320FA05F001FA04F2E7
:1006480040EA020001F0004110EBD37041F10001D3
:100658005EEA430E08BF20EAD37070BDC4F12005DE
:1006680000FA05F24EEA020E20FA04F301FA05F246
:1006780043EA020321FA04F001F0004121FA04F2EE
:1006880020EA020000EBD3705EEA430E08BF20EABE
:10069800D37070BD94F0000F0FD101F000464000F8
:1006A80041EB010111F4801F08BF013CF7D041EA7A
:1006B800060195F0000F18BF704703F0004652007E
:1006C80043EB030313F4801F08BF013DF7D043EA4F
:1006D8000603704794EA0C0F0CEA135518BF95EA05
:1006E8000C0F0CD050EA410618BF52EA4306D1D18C
:1006F80081EA030101F000414FF0000070BD50EAAB
:10070800410606BF1046194652EA430619D094EA34
:100718000C0F02D150EA013613D195EA0C0F05D11E
:1007280052EA03361CBF104619460AD181EA030172
:1007380001F0004141F0FE4141F470014FF000002A
:1007480070BD41F0FE4141F4780170BD70B54FF0C5
:10075800FF0C4CF4E06C1CEA11541DBF1CEA135545
:1007680094EA0C0F95EA0C0F00F0A7F8A4EB050427
:1007780081EA030E52EA03354FEA013100F088801E
:100788004FEA03334FF0805545EA131343EA1263E7
:100798004FEA022245EA111545EA10654FEA00269C
:1007A8000EF000419D4208BF964244F1FD0404F555
:1007B800407402D25B084FEA3202B61A65EB0305B1
:1007C8005B084FEA32024FF480104FF4002CB6EB6E
:1007D800020E75EB030E22BFB61A754640EA0C00EE
:1007E8005B084FEA3202B6EB020E75EB030E22BF2E
:1007F800B61A754640EA5C005B084FEA3202B6EB6F
:10080800020E75EB030E22BFB61A754640EA9C002D
:100818005B084FEA3202B6EB020E75EB030E22BFFD
:10082800B61A754640EADC0055EA060E18D04FEABB
:10083800051545EA16754FEA06164FEAC30343EA5B
:1008480052734FEAC2025FEA1C1CC0D111F4801F28
:100858000BD141EA00014FF000004FF0004CB6E721
:1008680011F4801F04BF01430020B4F1FD0C88BFC0
:10087800BCF5E06F3FF6AFAEB5EB030C04BFB6EBCB
:10088800020C5FEA500C50F1000041EB045170BDBE
:100898000EF0004E4EEA113114EB5C04C2BFD4EBEB
:1008A8000C0541EA045170BD41F480114FF0000E6F
:1008B800013C90E645EA060E8DE60CEA135594EAEB
:1008C8000C0F08BF95EA0C0F3FF43BAF94EA0C0FEE
:1008D8000AD150EA01347FF434AF95EA0C0F7FF463
:1008E80025AF104619462CE795EA0C0F06D152EAB7
:1008F80003353FF4FDAE1046194622E750EA41069B
:1009080018BF52EA43067FF4C5AE50EA41047FF4AB
:100918000DAF52EA43057FF4EBAE12E74FF0FF3C10
:1009280006E000BF4FF0010C02E000BF4FF0010CE1
:100938004DF804CD4FEA410C7FEA6C5C4FEA430C5A
:1009480018BF7FEA6C5C1BD001B050EA410C0CBFA9
:1009580052EA430C91EA030F02BF90EA020F00200B
:10096800704710F1000F91EA030F58BF994208BF72
:1009780090422CBFD8176FEAE37040F0010070472F
:100988004FEA410C7FEA6C5C02D150EA013C07D186
:100998004FEA430C7FEA6C5CD6D152EA033CD3D0D1
:1009A8005DF8040B704700BF8446104662468C46CB
:1009B8001946634600E000BF01B5FFF7B7FF0028FE
:1009C80048BF10F1000F01BD4DF808EDFFF7F4FF27
:1009D8000CBF012000205DF808FB00BF4DF808EDB2
:1009E800FFF7EAFF34BF012000205DF808FB00BFD5
:1009F8004DF808EDFFF7E0FF94BF012000205DF8F7
:100A080008FB00BF4DF808EDFFF7CEFF94BF0120AB
:100A180000205DF808FB00BF4DF808EDFFF7C4FFA4
:100A280034BF012000205DF808FB00BF4FEA410CED
:100A38007FEA6C5C02D150EA013C0AD14FEA430CD0
:100A48007FEA6C5C02D152EA033C02D14FF000000D
:100A580070474FF0010070474A0011D212F500129A
:100A680011D20DD56FF47873B3EB62520ED44FEAFE
:100A7800C12343F0004343EA505323FA02F070477E
:100A88004FF00000704750EA013002D14FF0FF30BC
:100A980070474FF0000070470348044B834202D070
:100AA800034B03B1184770479802002098020020B2
:100AB800000000000548064B1B1AD90F01EBA301E3
:100AC800491002D0034B03B1184770479802002021
:100AD800980200200000000010B5064C237843B9A6
:100AE800FFF7DAFF044B13B10448AFF3008001238A
:100AF800237010BD98020020000000000CFC0008C4
:100B080008B5054B1BB105490548AFF30080BDE8A2
:100B18000840FFF7CFBF00BF000000009C02002084
:100B28000CFC000880B485B000AF78607B681B6857
:100B380003F06003FB60FB68002B04D17B681B6833
:100B480003F01003FB60FB6818461437BD465DF8D8
:100B5800047B704780B483B000AF78607B681B6B00
:100B680018460C37BD465DF8047B704780B483B0E7
:100B780000AF786039607B681A6A3B681A437B6803
:100B88001A6200BF0C37BD465DF8047B704780B41D
:100B980083B000AF786039607B681A6A3B68DB43D2
:100BA8001A407B681A6200BF0C37BD465DF8047BAB
:100BB800704780B483B000AF78607B685B6C43F4A7
:100BC80000427B685A6400BF0C37BD465DF8047B61
:100BD800704780B483B000AF78607B68DB6843F00F
:100BE80001027B68DA6000BF0C37BD465DF8047B04
:100BF800704780B483B000AF78607B68DB6823F00F
:100C080001027B68DA6000BF0C37BD465DF8047BE3
:100C1800704780B483B000AF78607B68DB6803F00E
:100C28000103012B01D1012300E0002318460C37F2
:100C3800BD465DF8047B704780B483B000AF786030
:100C48007B68DB6843F002027B68DA6000BF0C3720
:100C5800BD465DF8047B704780B483B000AF786010
:100C68007B68DB6823F002027B68DA6000BF0C3720
:100C7800BD465DF8047B704780B483B000AF7860F0
:100C88007B68DB6803F00203022B01D1012300E03B
:100C9800002318460C37BD465DF8047B704780B4C6
:100CA80083B000AF78607B68DB6843F004027B6840
:100CB800DA6000BF0C37BD465DF8047B704780B42E
:100CC80083B000AF78607B68DB6823F004027B6840
:100CD800DA6000BF0C37BD465DF8047B704780B40E
:100CE80083B000AF78607B68DB6803F00403042BF3
:100CF80001D1012300E0002318460C37BD465DF8FA
:100D0800047B704780B483B000AF78607B68DB6891
:100D180043F008027B68DA6000BF0C37BD465DF817
:100D2800047B704780B483B000AF78607B68DB6871
:100D380023F008027B68DA6000BF0C37BD465DF817
:100D4800047B704780B483B000AF78607B68DB6851
:100D580003F00803082B01D1012300E00023184603
:100D68000C37BD465DF8047B704780B483B000AF94
:100D780078607B68DB6843F010027B68DA6000BF4C
:100D88000C37BD465DF8047B704780B483B000AF74
:100D980078607B68DB6823F010027B68DA6000BF4C
:100DA8000C37BD465DF8047B704780B483B000AF54
:100DB80078607B68DB6803F01003102B01D10123F6
:100DC80000E0002318460C37BD465DF8047B7047E9
:100DD80080B483B000AF78607B68DB6843F02002A2
:100DE8007B68DA6000BF0C37BD465DF8047B70474E
:100DF80080B483B000AF78607B68DB6823F02002A2
:100E08007B68DA6000BF0C37BD465DF8047B70472D
:100E180080B483B000AF78607B68DB6803F02003A0
:100E2800202B01D1012300E0002318460C37BD46D2
:100E38005DF8047B704780B483B000AF78607B684E
:100E4800DB6843F040027B68DA6000BF0C37BD46C0
:100E58005DF8047B704780B483B000AF78607B682E
:100E6800DB6823F040027B68DA6000BF0C37BD46C0
:100E78005DF8047B704780B483B000AF78607B680E
:100E8800DB6803F04003402B01D1012300E000237D
:100E980018460C37BD465DF8047B704780B483B0B4
:100EA80000AF78607B68DB6843F080027B68DA60BB
:100EB80000BF0C37BD465DF8047B704780B483B033
:100EC80000AF78607B68DB6823F080027B68DA60BB
:100ED80000BF0C37BD465DF8047B704780B483B013
:100EE80000AF78607B68DB6803F08003802B01D15A
:100EF800012300E0002318460C37BD465DF8047B4B
:100F0800704780B582B000AF78600B467B807B88E5
:100F180003F00103002B0CD07B681B681846FFF711
:100F2800AAFF0346012B04D07B681B681846FFF70D
:100F380082FF7B8803F00203002B0CD07B681B68C0
:100F48001846FFF799FE0346012B04D07B681B68FF
:100F58001846FFF771FE7B8803F00403002B0CD0C2
:100F68007B681B681846FFF7BAFE0346012B04D0BE
:100F78007B681B681846FFF792FE7B8803F008031E
:100F8800002B0CD07B681B681846FFF7DBFE034676
:100F9800012B04D07B681B681846FFF7B3FE7B88DB
:100FA80003F01003002B0CD07B681B681846FFF772
:100FB800FCFE0346012B04D07B681B681846FFF72C
:100FC800D4FE7B8803F02003002B0CD07B681B68C1
:100FD8001846FFF71EFE0346012B04D07B681B68EA
:100FE8001846FFF7F6FD7B8803F04003002B0CD072
:100FF8007B681B681846FFF771FF0346012B04D076
:101008007B681B681846FFF749FF7B8803F080035D
:10101800002B0CD07B681B681846FFF7F9FE0346C7
:10102800012B04D07B681B681846FFF7D1FE00BF70
:101038000837BD4680BD80B582B000AF78600B46EA
:101048007B807B8803F00103002B0CD07B681B6836
:101058001846FFF710FF0346012B04D17B681B6875
:101068001846FFF7F8FE7B8803F00203002B0CD02C
:101078007B681B681846FFF7FFFD0346012B04D168
:101088007B681B681846FFF7E7FD7B8803F00403BD
:10109800002B0CD07B681B681846FFF720FE034620
:1010A800012B04D17B681B681846FFF708FE7B8874
:1010B80003F00803002B0CD07B681B681846FFF769
:1010C80041FE0346012B04D17B681B681846FFF7D5
:1010D80029FE7B8803F01003002B0CD07B681B686B
:1010E8001846FFF762FE0346012B04D17B681B6894
:1010F8001846FFF74AFE7B8803F02003002B0CD02C
:101108007B681B681846FFF784FD0346012B04D053
:101118007B681B681846FFF76CFD7B8803F040036B
:10112800002B0CD07B681B681846FFF7D7FE0346D8
:10113800012B04D17B681B681846FFF7BFFE7B882C
:1011480003F08003002B0CD07B681B681846FFF760
:101158005FFE0346012B04D17B681B681846FFF726
:1011680047FE00BF0837BD4680BD000080B582B08D
:1011780000AF78600B46FB70FB78022B06D17B68CA
:101188001B6801211846FFF7F1FC31E07B681B68FA
:10119800194A934213D07B681B68184A93420ED0B1
:1011A8007B681B68164A934209D07B681B68154AFE
:1011B800934204D07B681B68134A934218D1FB788A
:1011C800032B06D17B681B6804211846FFF7CEFC69
:1011D8000EE0FB78042B0BD17B681B6801211846B5
:1011E800FFF7C4FC7B681B6804211846FFF7BEFCA8
:1011F80000BF0837BD4680BD002C014000340140C7
:1012080000400140004401400048014080B582B0E0
:1012180000AF78600B46FB70FB78022B06D17B6829
:101228001B6801211846FFF7B2FC31E07B681B6898
:10123800194A934213D07B681B68184A93420ED010
:101248007B681B68164A934209D07B681B68154A5D
:10125800934204D07B681B68134A934218D1FB78E9
:10126800032B06D17B681B6804211846FFF78FFC07
:101278000EE0FB78042B0BD17B681B680121184614
:10128800FFF785FC7B681B6804211846FFF77FFC85
:1012980000BF0837BD4680BD002C01400034014026
:1012A80000400140004401400048014080B582B040
:1012B80000AF78600B46FB70FB78022B06D17B6889
:1012C8001B6810211846FFF751FC31E07B681B684A
:1012D800194A934213D07B681B68184A93420ED070
:1012E8007B681B68164A934209D07B681B68154ABD
:1012F800934204D07B681B68134A934218D1FB7849
:10130800032B06D17B681B6840211846FFF72EFC8B
:101318000EE0FB78042B0BD17B681B681021184664
:10132800FFF724FC7B681B6840211846FFF71EFC6A
:1013380000BF0837BD4680BD002C01400034014085
:1013480000400140004401400048014080B582B09F
:1013580000AF78600B46FB70FB78022B06D17B68E8
:101368001B6810211846FFF712FC31E07B681B68E8
:10137800194A934213D07B681B68184A93420ED0CF
:101388007B681B68164A934209D07B681B68154A1C
:10139800934204D07B681B68134A934218D1FB78A8
:1013A800032B06D17B681B6840211846FFF7EFFB2B
:1013B8000EE0FB78042B0BD17B681B6810211846C4
:1013C800FFF7E5FB7B681B6840211846FFF7DFFB4A
:1013D80000BF0837BD4680BD002C014000340140E5
:1013E80000400140004401400048014080B582B0FF
:1013F80000AF78600B46FB70FB78022B07D17B6847
:101408001B684FF480711846FFF7B0FB34E07B6827
:101418001B681B4A934213D07B681B68194A934286
:101428000ED07B681B68184A934209D07B681B68FA
:10143800164A934204D07B681B68154A93421BD115
:10144800FB78032B07D17B681B684FF48061184633
:10145800FFF78CFB10E0FB78042B0DD17B681B6831
:101468004FF480711846FFF781FB7B681B684FF4C7
:1014780080611846FFF77AFB00BF0837BD4680BD7C
:10148800002C01400034014000400140004401406C
:101498000048014080B582B000AF78600B46FB7011
:1014A800FB78022B07D17B681B684FF480711846C4
:1014B800FFF76DFB34E07B681B681B4A934213D02F
:1014C8007B681B68194A93420ED07B681B68184AD0
:1014D800934209D07B681B68164A934204D07B6804
:1014E8001B68154A93421BD1FB78032B07D17B68F5
:1014F8001B684FF480611846FFF749FB10E0FB7842
:10150800042B0DD17B681B684FF480711846FFF7D8
:101518003EFB7B681B684FF480611846FFF737FB7A
:1015280000BF0837BD4680BD002C01400034014093
:1015380000400140004401400048014080B582B0AD
:1015480000AF78600B46FB70FB78022B06D17B68F6
:101558001B684FF480511846FFF708FB00BF083797
:10156800BD4680BD80B582B000AF78600B46FB7089
:10157800FB78022B06D17B681B684FF48051184614
:10158800FFF705FB00BF0837BD4680BD80B584B0B6
:1015980000AF78600023FB607B681B68304A934289
:1015A80001D1304BFB607B681A68FB681A60FB68E6
:1015B8001B681846FFF7B6FAB860BB68002B06D060
:1015C800BB68102B03D0FB6801221A7102E0FB688C
:1015D80000221A71FB681B68234A934213D0FB68E8
:1015E8001B68224A93420ED0FB681B68204A93422C
:1015F80009D0FB681B681F4A934204D0FB681B682C
:101608001D4A934204D1FB681B681846FFF7D1FABC
:10161800FB681B68144A934213D0FB681B68134A83
:1016280093420ED0FB681B68114A934209D0FB68AD
:101638001B68104A934204D0FB681B680E4A934209
:1016480008D17B681B681846FFF784FA0346DAB2AC
:10165800FB685A71FB6818461037BD4680BD00BF4D
:1016680000040040B4020020002C01400034014076
:1016780000400140004401400048014080B485B06A
:1016880000AF786039603B68002B03D17B6840333A
:10169800FB6001E0044BFB60FB6818461437BD464D
:1016A8005DF8047B704700BF0C03045080B483B01E
:1016B80000AF78607B68DB6803F44063002B01D1DE
:1016C800012300E0002318460C37BD465DF8047B73
:1016D800704780B483B000AF786039607B681B6B5B
:1016E80023F00F023B681A437B681A6300BF0C376C
:1016F800BD465DF8047B704780B483B000AF786066
:1017080039607B68DB6823F003023B681A437B6817
:10171800DA6000BF0C37BD465DF8047B704780B4C3
:1017280083B000AF78607B68DB6C03F0C003002BEC
:1017380001D1012300E0002318460C37BD465DF8AF
:10174800047B704780B483B000AF78607B689B6887
:1017580023F0004323F03F0343F001027B689A60C3
:1017680000BF0C37BD465DF8047B704780B483B07A
:1017780000AF78607B689B6823F0004323F03F0349
:1017880043F002027B689A6000BF0C37BD465DF8E3
:10179800047B704780B483B000AF78607B689B6837
:1017A80003F00103012B01D1012300E000231846B7
:1017B8000C37BD465DF8047B704780B483B000AF3A
:1017C800786039607B689B6823F0404323F03F03CF
:1017D8003A6802F08042134343F000427B689A6003
:1017E80000BF0C37BD465DF8047B704780B483B0FA
:1017F80000AF78607B689B6803F00043B3F1004F4B
:1018080001D1012300E0002318460C37BD465DF8DE
:10181800047B704780B483B000AF78607B689B68B6
:1018280023F0004323F03F0343F004027B689A60EF
:1018380000BF0C37BD465DF8047B704780B483B0A9
:1018480000AF78607B689B6823F0004323F03F0378
:1018580043F008027B689A6000BF0C37BD465DF80C
:10186800047B704780B483B000AF78607B681B68E6
:1018780003F00803082B01D1012300E000231846D8
:101888000C37BD465DF8047B704780B483B000AF69
:1018980078607B681B6803F01003102B01D10123CB
:1018A80000E0002318460C37BD465DF8047B7047FE
:1018B80080B483B000AF78607B6810221A6000BFE4
:1018C8000C37BD465DF8047B704780B483B000AF29
:1018D80078607B685B6843F008027B685A6000BFE9
:1018E8000C37BD465DF8047B704780B483B000AF09
:1018F80078607B685B6843F040027B685A6000BF91
:101908000C37BD465DF8047B704780B483B000AFE8
:1019180078607B685B6823F008027B685A6000BFC8
:101928000C37BD465DF8047B704780B483B000AFC8
:1019380078607B685B6823F010027B685A6000BFA0
:101948000C37BD465DF8047B704780B483B000AFA8
:1019580078607B685B6823F040027B685A6000BF50
:101968000C37BD465DF8047B704780B483B000AF88
:1019780078607B685B6823F080027B685A6000BFF0
:101988000C37BD465DF8047B704780B483B000AF68
:1019980078607B685B6803F01003102B01D101238A
:1019A80000E0002318460C37BD465DF8047B7047FD
:1019B80080B483B000AF78607B685B6803F0800315
:1019C800802B01D1012300E0002318460C37BD46C7
:1019D8005DF8047B7047000080B485B000AF786084
:1019E80039607B68FB600C4A3B6813441B781A46D5
:1019F800FB6813441B6808493A680A441278114680
:101A0800FA680A4443F00103136000BF1437BD4667
:101A18005DF8047B704700BF7CFC000880B485B08B
:101A280000AF786039607B68FB600C4A3B68134400
:101A38001B781A46FB6813441B6808493A680A442D
:101A480012781146FA680A4423F00103136000BFB4
:101A58001437BD465DF8047B704700BF7CFC000866
:101A680080B485B000AF786039607B68FB60084A55
:101A78003B6813441B781A46FB6813441B6803F041
:101A8800200318461437BD465DF8047B704700BF35
:101A98007CFC000880B487B000AFF860B9607A6059
:101AA800FB687B610D4ABB6813441B781A467B6947
:101AB80013445B681B0C1B040849BA680A44127873
:101AC80011467A690A4411467A6813434B6000BF8D
:101AD8001C37BD465DF8047B704700BF7CFC0008DE
:101AE80080B487B000AFF860B9607A603B60FB688B
:101AF8007B613B6A102B14D1174ABB6813441B78CF
:101B08001A467B6913441A467B68D360124ABB683D
:101B180013441B781A467B6913441A463B68936042
:101B280013E00D4ABB6813441B781A467B691344BB
:101B38001A467B689360084ABB6813441B781A46A8
:101B48007B6913441A463B68D36000BF1C37BD4607
:101B58005DF8047B704700BF7CFC000880B487B048
:101B680000AFF860B9607A60FB687B61074ABB68C0
:101B780013441B781A467B6913441A467B689360A2
:101B880000BF1C37BD465DF8047B70477CFC00082D
:101B980080B483B000AF78607B681B6803F02003D3
:101BA800202B01D1012300E0002318460C37BD4645
:101BB8005DF8047B704780B483B000AF78607B68C1
:101BC80020225A6000BF0C37BD465DF8047B704781
:101BD80080B485B000AF786039607B68FB600C4AE0
:101BE8003B6813441B781A46FB6813441B68084972
:101BF8003A680A4412781146FA680A4443F0020324
:101C0800136000BF1437BD465DF8047B704700BF02
:101C18007CFC000880B485B000AF786039607B68D0
:101C2800FB600C4A3B6813441B781A46FB68134454
:101C38001B6808493A680A4412781146FA680A4447
:101C480043F00803136000BF1437BD465DF8047BFA
:101C5800704700BF7CFC000880B485B000AF786096
:101C680039607B68FB600C4A3B6813441B781A4652
:101C7800FB6813441B6808493A680A4412781146FD
:101C8800FA680A4423F00203136000BF1437BD4604
:101C98005DF8047B704700BF7CFC000880B485B009
:101CA80000AF786039607B68FB600C4A3B6813447E
:101CB8001B781A46FB6813441B6808493A680A44AB
:101CC80012781146FA680A4423F00403136000BF2F
:101CD8001437BD465DF8047B704700BF7CFC0008E4
:101CE80080B485B000AF786039607B68FB600C4ACF
:101CF8003B6813441B781A46FB6813441B68084961
:101D08003A680A4412781146FA680A4423F008032C
:101D1800136000BF1437BD465DF8047B704700BFF1
:101D28007CFC000880B485B000AF786039607B68BF
:101D3800FB600A4A3B6813441B781A46FB68134445
:101D48001B6803F00203022B01D1012300E00023EA
:101D580018461437BD465DF8047B70477CFC0008C4
:101D680080B584B000AF78600123FB817B681B6974
:101D78001846FFF79BFC0346002B2FD07B685B7A45
:101D8800DBB2022B11D07B685B7ADBB2042B0CD060
:101D98007B685B7ADBB2082B07D07B681B69184627
:101DA800FFF760FD0346012B18D1786800F0F8F8BA
:101DB8000346002B12D17B685B7ADBB2082B03D178
:101DC8007B6801225A7202E07B6820225A727B6883
:101DD8001B691846FFF71EFD0023FB81FB89184687
:101DE8001037BD4680BD80B586B002AFF860B960D7
:101DF8007A603B600021F868FFF740FC03461A460A
:101E08007968B868FFF7AAFE0021F868FFF736FC82
:101E180002463B68002100917968B868FFF760FEC8
:101E2800BA697968B868FFF735FE7968B868FFF766
:101E3800CFFE7968B868FFF7EDFE7968B868FFF7F4
:101E4800CBFD00BF1037BD4680BD80B584B000AF64
:101E5800F860B9607A607968B868FFF7DFFD79687B
:101E6800B868FFF71BFF7968B868FFF739FF79682A
:101E7800B868FFF7F1FE00227968B868FFF70AFE34
:101E880000BF1037BD4680BD80B584B000AF786014
:101E980039600223FB737B68DB79012B0FD17B68E8
:101EA800DA687B681B685B00D118FB7B7A6812686C
:101EB80002FB03F31A4638680DF096FE0AE07B68C9
:101EC800D968FB7B7A68126802FB03F31A46386804
:101ED8000DF08AFE00BF1037BD4680BD80B586B0C4
:101EE80000AFF860B9607A60FB685A69FB689B7953
:101EF80019461046FFF716FF0346DBB2012B37D110
:101F0800FB685A69BB68104698470346012B2FD1D6
:101F1800FB6804225A72FB685A697B681046984726
:101F2800FB685A69FB689B7919461046FFF798FDCC
:101F38000346002B19D1FB685A69FB689B7919463F
:101F48001046FFF76BFDFB685869FB689B791946DB
:101F5800FB681B681A46FFF79DFDFB685A69FB681A
:101F68009B7919461046FFF737FD0123FB7501E001
:101F78000023FB75FB7D18461837BD4680BD000061
:101F880080B500AF034A04490448FFF7A7FF00BF24
:101F980080BD00BFBF1B0008991B0008400300203C
:101FA80080B582B000AF78607B681B691846FFF780
:101FB8006CFC0346DBB2012B07D17B681B69184612
:101FC800FFF776FC7B6810225A727B685B7ADBB27B
:101FD800102B0CBF01230023DBB218460837BD467F
:101FE80080BD80B582B000AF78600B46FB70FB788F
:101FF800012B0DD17B681B691846FFF757FB034679
:10200800012B12D07B681B691846FFF703FC0CE014
:102018007B681B691846FFF782FB0346012B04D037
:102028007B681B691846FFF709FC00BF0837BD46E7
:1020380080BD000090B589B002AFF860084611462F
:102048001A4603467B810B463B811346FB800023DF
:102058007B61FB681B693C4A934201D13B4B7B6126
:102068007B69002B6BD0FB681A697B691A617B69F5
:102078000022DA71FB88012B61D03B89002B47D005
:102088007B695B7ADBB2082B42D0FB68DA687B6934
:10209800DA60FB681A687B691A60FB685A697B69B1
:1020A8005A61FB689A797B699A71FB681A797B692E
:1020B8001A717B691B69B96A1846FFF70AFB7B89A5
:1020C800012B21D07B89042B16D17B691B69032145
:1020D8001846FFF711FB7B6918697B6959697B69A9
:1020E8009B791C467B69DA687B691B6800931346F9
:1020F8002246FFF778FE07E07B89022B04D17B6933
:102108001B691846FFF7E1FB7B6908225A7216E043
:102118003B89002B13D17B699B7ADBB2082B0ED04D
:10212800FB685A797B695A717B89022B04D17B69D8
:102138001B691846FFF7D9FB7B6908229A727B69ED
:1021480018461C37BD4690BD0001045040030020CE
:1021580080B582B000AF78607B681B691846FFF7CE
:1021680019FB0346002B04D17B681B691846FFF74F
:10217800E9FA00BF0837BD4680BD80B586B000AF1C
:10218800F8600B467A607B810123FB82FB681B6940
:10219800002B46D07B89012B05D1F868FFF7E0FDBD
:1021A8000346FB823DE07B89042B1FD1FB681B693A
:1021B8001846FFF77BFA0346002B32D0FB68012252
:1021C8005A72FB681B691846FFF724FB00BFFB68BF
:1021D8005B7ADBB2042BFAD17968F868FFF754FE12
:1021E800FB6808225A720023FB821AE07B89022BC3
:1021F80017D1FB685B7ADBB2202B09D0FB685B7ACE
:10220800DBB2042B04D0FB685B7ADBB2102B08D15D
:10221800FB6808225A727968F868FFF735FE0023D0
:10222800FB82FB8A18461837BD4680BD80B582B050
:1022380000AF78600B467B8013463B807B681B6948
:102248001846FFF7A7FA0346002B04D07B681B69E2
:102258001846FFF78BFA7B681B691846FFF7A8FB3F
:102268000346002B04D07B681B691846FFF77DFBEB
:102278007B681B691846FFF788FB0346002B04D0D0
:102288007B681B691846FFF750FB3B88002B38D04A
:102298007B88012B1AD07B88022B05D17B681B69B0
:1022A8001846FFF732FB11E07B88042B0ED17B68C0
:1022B80018697B6859697B689B791A46FFF7C5FDE1
:1022C8007B681B6900211846FFF716FA7B68002215
:1022D800DA607B6800221A607B6800225A617B689A
:1022E80000229A717B6800221A717B6840225A7218
:1022F8007B681A697B681B7919461046FFF7E9F96C
:102308000DE07B6800225A717B6840229A727B88B4
:10231800022B04D17B681B691846FFF716FB00BF28
:102328000837BD4680BD000080B584B000AF786036
:102338000B46FB707B681B691846FFF72BFA0346B0
:10234800FB7397F90F30012B04D17B681B69184682
:10235800FFF70CFAFB78002B0FD17B681B697F21F4
:102368001846FFF72AFA00BF7B681B691846FFF773
:102378003DFA0346012BF7D040E0FB78012B0FD143
:102388007B681B692C491846FFF717FA00BF7B6862
:102398001B691846FFF72AFA0346012BF7D02DE0F0
:1023A8007B681B697F211846FFF707FA00BF7B6827
:1023B8001B691846FFF71AFA0346012BF7D00023CA
:1023C800BB8107E000BFBB891BB29BB201339BB244
:1023D8001BB2BB81BB891BB29BB2032BF2D97B68B2
:1023E8001B6915491846FFF7E8F900BF7B681B69A8
:1023F8001846FFF7FBF90346012BF7D00023BB81F2
:1024080007E000BFBB891BB29BB201339BB21BB272
:10241800BB81BB891BB29BB2032BF2D997F90F3052
:10242800012B04D17B681B691846FFF78BF900BFA5
:102438001037BD4680BD00BF00007F4080B483B028
:1024480000AF78607B681B6843F001027B681A6004
:1024580000BF0C37BD465DF8047B704780B483B07D
:1024680000AF78607B681B6823F001027B681A6004
:1024780000BF0C37BD465DF8047B704780B483B05D
:1024880000AF786039607B681B6823F004023B6802
:102498001A437B681A6000BF0C37BD465DF8047BA1
:1024A800704780B483B000AF78607B681B6803F026
:1024B800040318460C37BD465DF8047B704780B4AA
:1024C80083B000AF78607B68DB6A18460C37BD467E
:1024D8005DF8047B704780B483B000AF78603960E2
:1024E8007B683A681A6300BF0C37BD465DF8047B09
:1024F800704780B483B000AF786039607B683A6811
:102508005A6300BF0C37BD465DF8047B704780B442
:1025180083B000AF786039607B683A689A6300BF1F
:102528000C37BD465DF8047B704780B483B000AFBC
:10253800786039607B683A68DA6300BF0C37BD465B
:102548005DF8047B704780B483B000AF7860396071
:102558007B683A681A6400BF0C37BD465DF8047B97
:10256800704780B483B000AF78607B685B6B1846B7
:102578000C37BD465DF8047B704780B483B000AF6C
:1025880078607B689B6B18460C37BD465DF8047B0A
:10259800704780B483B000AF78607B68DB6B184607
:1025A8000C37BD465DF8047B704780B483B000AF3C
:1025B80078607B681B6C18460C37BD465DF8047B59
:1025C800704780B483B000AF78607B685B6943F084
:1025D80001027B685A6100BF0C37BD465DF8047B79
:1025E800704780B483B000AF78607B681B69184679
:1025F8000C37BD465DF8047B704780B483B000AFEC
:10260800786039607B683A689A6100BF0C37BD46CC
:102618005DF8047B704780B483B000AF78603960A0
:102628007B683A689A6200BF0C37BD465DF8047B48
:102638007047000080B584B000AF786087ED000A6D
:10264800D7ED007AF5EEC07AF1EE10FA03D54FF027
:1026580000033B600AE0D7ED007A9FED167AF4EEAE
:10266800C77AF1EE10FA01DD134B3B607B681B68FB
:102678001846FFF724FFF8607B681B79002B0CBF16
:1026880001230023DBB21A46FB68134407EE903A95
:10269800B8EE677AD7ED007A27EE277ADFED056A7C
:1026A800C7EE267AFCEEE77A17EE903A184610370E
:1026B800BD4680BD0000C8420000C84280B582B057
:1026C80000AF786039607B681B681846FFF749FFE0
:1026D80002463B68934205D07B681B6839681846F8
:1026E800FFF707FF00BF0837BD4680BD80B582B041
:1026F80000AF786039607B681B681846FFF73DFFBC
:1027080002463B68934205D07B681B6839681846C7
:10271800FFF7FDFE00BF0837BD4680BD80B582B01B
:1027280000AF786039607B681B681846FFF731FF97
:1027380002463B68934205D07B681B683968184697
:10274800FFF7F3FE00BF0837BD4680BD80B582B0F5
:1027580000AF786039607B681B681846FFF725FF73
:1027680002463B68934205D07B681B683968184667
:10277800FFF7E9FE00BF0837BD4680BD80B584B0CD
:1027880000AF786087ED000A97ED000A7868FFF7D8
:1027980051FFF860F9687868FFF790FF00BF1037BD
:1027A800BD4680BD80B584B000AF786087ED000A73
:1027B80097ED000A7868FFF73DFFF860F9687868D8
:1027C800FFF794FF00BF1037BD4680BD80B584B0C9
:1027D80000AF786087ED000A97ED000A7868FFF788
:1027E80029FFF860F9687868FFF798FF00BF10378D
:1027F800BD4680BD80B584B000AF786087ED000A23
:1028080097ED000A7868FFF715FFF860F9687868AF
:10281800FFF79CFF00BF1037BD4680BD80B485B070
:1028280000AF78607B681B689A68074B1340FB60B1
:10283800FB68062B0CBF01230023DBB218461437B4
:10284800BD465DF8047B70470700010080B584B081
:1028580000AF78600B46FB707B681B681846FFF773
:1028680020FEF860FB78002B1ED07B681B68324A7C
:10287800934213D07B681B68304A93420ED07B6822
:102888001B682F4A934209D07B681B682D4A9342E4
:1028980004D07B681B682C4A934205D17B681B686F
:1028A80000211846FFF717FEFB68042B11D07B6840
:1028B8001B6804211846FFF7E1FD7B681B68184672
:1028C800FFF77FFE7B681B68F9681846FFF7D6FD9F
:1028D80004E07B681B681846FFF773FE7B681B687B
:1028E8001846FFF7ABFDFB78002B20D07B681B68F0
:1028F800114A934213D07B681B68104A93420ED04A
:102908007B681B680E4A934209D07B681B680D4A96
:10291800934204D07B681B680B4A934207D17B68BB
:102928001A687B685B7919461046FFF7D4FD00BF2B
:102938001037BD4680BD00BF002C01400034014067
:1029480000400140004401400048014080B582B089
:1029580000AF78607B681B681846FFF77FFD00BFF3
:102968000837BD4680BD80B485B000AF7860396057
:102978007B68012283F8D8203B68D3E90023796873
:10298800C1E902237B6801221A600023FB600CE086
:102998007B68D3E902237868F9680231C9000144E9
:1029A800C1E90023FB680133FB60FB68182BEFDDEE
:1029B80000BF00BF1437BD465DF8047B704780B583
:1029C800B8B000AF87ED040BF860B9607A60BB68F7
:1029D800D3E902017B68D3E90023FDF7F5FF03463D
:1029E800002B05D17B68D3E90023B968C1E902232C
:1029F800F868BB681033C82219460DF0F5F8D7E916
:102A08000423C7E90623BB6803F1100107F1180383
:102A18000833C02218460DF0E7F8BB68103307F1F9
:102A28001801C82218460DF0DFF800BFE037BD4690
:102A380080BD80B485B000AF786039607B680122C2
:102A480083F860203B68D3E900237968C1E9022351
:102A58007B6801221A600023FB600CE07B68D3E9E5
:102A680002237868F9680231C9000144C1E90023EA
:102A7800FB680133FB60FB68092BEFDD00BF00BF7B
:102A88001437BD465DF8047B704780B59AB000AF37
:102A980087ED040BF860B9607A60BB68D3E902017E
:102AA8007B68D3E90023FDF78FFF0346002B05D190
:102AB8007B68D3E90023B968C1E90223F868BB68D9
:102AC8001033502219460DF08FF8D7E90423C7E9CF
:102AD8000623BB6803F1100107F1180308334822E5
:102AE80018460DF081F8BB68103307F11801502221
:102AF80018460DF079F800BF6837BD4680BD000064
:102B080080B58CB002AF78607B6800221A727B684F
:102B180001225A607B681033BB6100237B741A4B17
:102B2800FB611A4B3B620123BB74002387F82430F6
:102B3800022387F825300923FB6009233B7407F13A
:102B48000C0008230093042301220421FFF772FAE2
:102B580002467B68DA607B68DB6802211846FFF76B
:102B6800E3FB7B68DB681846FFF7F2FA7B68DB68F3
:102B780001211846FFF735FA7B6801221A7200BF57
:102B88002837BD4680BD00BF000104500000024048
:102B980080B5A6B000AF78601A4BBB6000233B73CA
:102BA80000237B7307F108031846FEF7EFFC024683
:102BB8007B68DA607B68DB6800211846FEF7A1F9BC
:102BC8007B68DB6802211846FEF7D0FA7B68DB6871
:102BD80002211846FEF76AFB7B68DB681846FFF798
:102BE8001DFE034687F8973097F89730002B05D1DC
:102BF8007B68DB6800211846FFF728FE00BF98377E
:102C0800BD4680BD0004004080B5A6B000AF786026
:102C18001A4BBB6000233B7300237B7307F1080347
:102C28001846FEF7B3FC02467B68DA607B68DB680F
:102C380000211846FEF765F97B68DB680221184613
:102C4800FEF7D4FB7B68DB6802211846FEF776FCAA
:102C58007B68DB681846FFF7E1FD034687F8973085
:102C680097F89730002B05D17B68DB680021184660
:102C7800FFF7ECFD00BF9837BD4680BD000400405B
:102C8800B0B5BCB000AF0023C7F8AC3010E0A94A1B
:102C9800D7F8AC301A4400231370A749D7F8AC20F2
:102CA800002321F81230D7F8AC300133C7F8AC3024
:102CB800D7F8AC30072BEADDA04A00231360A04AFE
:102CC800002313609F4BDB689F4A04211846FFF7D7
:102CD80054FA9D4BDB899D4A13809B4B1B889B4A6A
:102CE800D381994B9B89994A5380974B5B88974A24
:102CF8009381954B5B89954A9380934B9B88934A24
:102D08005381914B1B89914AD3808F4BDB888F4A23
:102D180013810023C7F8AC3012E08C4AD7F8AC30E6
:102D280032F81320D7F8AC305B00703307F180011C
:102D38000B4423F8702CD7F8AC300133C7F8AC300B
:102D4800D7F8AC30072BE8DDB7F880301846FDF728
:102D580059FB04460D467E4A7E497F4845EC104B98
:102D6800FFF72DFE794BD3E9D023C7E93A23002397
:102D7800C7F8AC301CE0D7F8AC300133734A68337D
:102D8800DB001344D3E90023C7E92823D7E9282324
:102D9800D7E93A01FDF722FE0346002B03D0D7E915
:102DA8002823C7E93A23D7F8AC300133C7F8AC3049
:102DB800D7F8AC30172BDEDDB7F882301846FDF7B0
:102DC80021FB04460D46654A6549664845EC104BAB
:102DD800FFF75BFE5D4B03F5CC63D3E90023C7E93E
:102DE80038230023C7F8AC301CE0D7F8AC300133E7
:102DF800564ACC33DB001344D3E90023C7E9282320
:102E0800D7E92823D7E93801FDF7E8FD0346002B69
:102E180003D0D7E92823C7E93823D7F8AC300133E2
:102E2800C7F8AC30D7F8AC30082BDEDD4E4A4F4936
:102E38004F4897ED380BFFF7C2FD444B03F5FA6393
:102E480053E90223C7E92E230023C7F8AC301CE05E
:102E5800D7F8AC3001333D4AF933DB001344D3E9EA
:102E68000023C7E92823D7E92823D7E92E01FDF74E
:102E7800D3FD0346002B03D0D7E92823C7E92E2327
:102E8800D7F8AC300133C7F8AC30D7F8AC30172BD3
:102E9800DEDDB7F884301846FDF7B4FA04460D466F
:102EA800344A3549354845EC104BFFF788FD274B28
:102EB80003F5826353E90223C7E938230023C7F8DF
:102EC800AC301CE0D7F8AC300133204A8133DB004A
:102ED8001344D3E90023C7E92823D7E92823D7E9EE
:102EE8003801FDF77BFD0346002B03D0D7E92823E3
:102EF800C7E93823D7F8AC300133C7F8AC30D7F876
:102F0800AC30172BDEDDB7F886301846FDF77AFAB5
:102F180004460D461A4A1B491B4845EC104BFFF75F
:102F28004EFD0A4BD3E99E23C7E936230023C7F891
:102F3800AC3048E0C80300207C0300207403002064
:102F480078030020600C00208C030020D0030020B0
:102F5800780000204810002010070020980000206A
:102F6800C8130020300A0020B00000207815002087
:102F7800980B00208000002028110020D80700208E
:102F880070000020680F002048060020D7F8AC30F9
:102F98000133A14A4F33DB001344D3E90023C7E9C7
:102FA8002823D7E92823D7E93601FDF717FD03467B
:102FB800002B03D0D7E92823C7E93623D7F8AC304C
:102FC8000133C7F8AC30D7F8AC30172BDEDDB7F8D3
:102FD80088301846FDF716FA04460D468F4A904980
:102FE800904845EC104BFFF7EAFC8B4BD3E96C2378
:102FF800C7E934230023C7F8AC301CE0D7F8AC305D
:103008000133854A3633DB001344D3E90023C7E98B
:103018002823D7E92823D7E93401FDF7DFFC034645
:10302800002B03D0D7E92823C7E93423D7F8AC30DD
:103038000133C7F8AC30D7F8AC30172BDEDDB7F862
:103048008A301846FDF7DEF904460D46764A774978
:10305800774845EC104BFFF7B2FC6F4BD3E93A23A6
:10306800C7E932230023C7F8AC301CE0D7F8AC30EE
:103078000133694A1D33DB001344D3E90023C7E950
:103088002823D7E92823D7E93201FDF7A7FC03460F
:10309800002B03D0D7E92823C7E93223D7F8AC306F
:1030A8000133C7F8AC30D7F8AC30172BDEDDB7F8F2
:1030B8008C301846FDF7A6F904460D465D4A5E4970
:1030C8005E4845EC104BFFF7E0FC534B03F5D66325
:1030D800D3E90023C7E930230023C7F8AC301CE04C
:1030E800D7F8AC3001334C4AD633DB001344D3E96C
:1030F8000023C7E92823D7E92823D7E93001FDF7BA
:103108006DFC0346002B03D0D7E92823C7E93023F9
:10311800D7F8AC300133C7F8AC30D7F8AC30082B4F
:10312800DEDD474A4749484897ED300BFFF747FC33
:10313800394B03F5E063D3E90023C7E92C230023C7
:10314800C7F8AC301CE0D7F8AC300133324AE03372
:10315800DB001344D3E90023C7E92823D7E9282350
:10316800D7E92C01FDF758FC0346002B03D0D7E91B
:103178002823C7E92C23D7F8AC300133C7F8AC3083
:10318800D7F8AC30172BDEDDB7F88E301846FDF7D0
:1031980039F904460D462D4A2D492E4845EC104B69
:1031A800FFF70DFC1C4BD3E90823C7E9302397ED43
:1031B8003A0B0CF0DDFAB0EE407AF0EE607A9FED53
:1031C800141BB0EE470AF0EE670A0CF099FA87ED87
:1031D800280B4FF000024FF00003D7E92801FDF754
:1031E800FDFB0346002B37D0D7F8A030BB67D7F8D4
:1031F800A43083F00043FB67D7E91E01FDF72CFCE0
:1032080003469BB25B429BB22CE000BFAFF3008049
:10321800000000000000F040D003002068000020FB
:10322800880E00208005002060000020A80D0020E6
:10323800B8040020A000002030140020800A0020DC
:10324800A800002098140020D00A00205800002070
:10325800C80C0020F0030020D7E92801FDF7FCFB8B
:1032680003469BB2AC4A138097ED2E0B0CF080FA04
:10327800B0EE407AF0EE607A9FEDA51BB0EE470AFB
:10328800F0EE670A0CF03CFA87ED280B4FF00002CD
:103298004FF00003D7E92801FDF7A0FB0346002BF8
:1032A80010D0D7F8A0303B67D7F8A43083F000439C
:1032B8007B67D7E91C01FDF7CFFB03469BB25B4256
:1032C8009BB205E0D7E92801FDF7C6FB03469BB290
:1032D800914A538097ED380B0CF04AFAB0EE407AD9
:1032E800F0EE607A9FED8A1BB0EE470AF0EE670AAF
:1032F8000CF006FA87ED280B4FF000024FF00003A0
:10330800D7E92801FDF76AFB0346002B10D0D7F850
:10331800A030BB66D7F8A43083F00043FB66D7E93A
:103328001A01FDF799FB03469BB25B429BB205E08D
:10333800D7E92801FDF790FB03469BB2764A9380B4
:1033480097ED360B0CF014FAB0EE407AF0EE607A96
:103358009FED6F1BB0EE470AF0EE670A0CF0D0F94C
:1033680087ED280B4FF000024FF00003D7E9280142
:10337800FDF734FB0346002B10D0D7F8A0303B668E
:10338800D7F8A43083F000437B66D7E91801FDF72E
:1033980063FB03469BB25B429BB205E0D7E9280179
:1033A800FDF75AFB03469BB25B4AD38097ED340B7B
:1033B8000CF0DEF9B0EE407AF0EE607A9FED541B27
:1033C800B0EE470AF0EE670A0CF09AF987ED280B81
:1033D8004FF000024FF00003D7E92801FDF7FEFA8D
:1033E8000346002B10D0D7F8A030BB65D7F8A4301F
:1033F80083F00043FB65D7E91601FDF72DFB034673
:103408009BB25B429BB205E0D7E92801FDF724FB9C
:1034180003469BB2404A138197ED320B0CF0A8F992
:10342800B0EE407AF0EE607A9FED391BB0EE470AB5
:10343800F0EE670A0CF064F987ED280B4FF00002F4
:103448004FF00003D7E92801FDF7C8FA0346002B1F
:1034580010D0D7F8A0303B65D7F8A43083F00043EC
:103468007B65D7E91401FDF7F7FA03469BB25B4287
:103478009BB205E0D7E92801FDF7EEFA03469BB2B7
:10348800254A538197ED2C0B0CF072F9B0EE407A77
:10349800F0EE607A9FED1E1BB0EE470AF0EE670A69
:1034A8000CF02EF987ED280B4FF000024FF00003C7
:1034B800D7E92801FDF792FA0346002B10D0D7F878
:1034C800A030BB64D7F8A43083F00043FB64D7E98D
:1034D8001201FDF7C1FA03469BB25B429BB205E0BD
:1034E800D7E92801FDF7B8FA03469BB20A4A938147
:1034F8000A4BB3F84A30084A1382094BD3E9D02360
:10350800C7E92E230023C7F8AC3040E0AFF30080B2
:10351800000000000000F040A00300200000002090
:10352800D0030020D7F8AC3001339F4A0433DB00C6
:103538001344D3E90023C7E92823D7E92823D7E987
:103548003001FDF74BFA0346002B03D0D7E92823B7
:10355800C7E93023D7F8AC300133934A6833DB002E
:103568001344D3E90023C7E92823D7E92823D7E957
:103578002E01FDF751FA0346002B03D0D7E9282383
:10358800C7E92E23D7F8AC300133C7F8AC30D7F8E9
:10359800AC30172BC6DD97ED300B0CF0E9F8B0EE28
:1035A800407AF0EE607A9FED7E1BB0EE470AF0EEAF
:1035B800670A0CF0A5F887ED280B4FF000024FF0D2
:1035C8000003D7E92801FDF709FA0346002B10D0BC
:1035D800D7F8A0303B64D7F8A43083F000437B646D
:1035E800D7E91001FDF738FA03469BB25B429BB25C
:1035F80005E0D7E92801FDF72FFA03469BB26B4A8D
:10360800D381B7F882301846FCF7FCFE04460D4615
:10361800674A6849684845EC104BFFF7D0F9624B98
:1036280003F5B46353E90223C7E92C235E4B03F582
:10363800826353E90223C7E938235B4BD3E99E230E
:10364800C7E93623584BD3E96C23C7E93423564BD3
:10365800D3E93A23C7E932230023C7F8AC307CE02A
:10366800D7F8AC300133504AB333DB001344D3E905
:103678000023C7E92823D7E92823D7E92C01FDF738
:10368800CBF90346002B03D0D7E92823C7E92C231D
:10369800D7F8AC300133444A8133DB001344D3E913
:1036A8000023C7E92823D7E92823D7E93801FDF7FC
:1036B800B3F90346002B03D0D7E92823C7E93823F9
:1036C800D7F8AC300133384A4F33DB001344D3E921
:1036D8000023C7E92823D7E92823D7E93601FDF7CE
:1036E8009BF90346002B03D0D7E92823C7E93623E3
:1036F800D7F8AC3001332C4A3633DB001344D3E916
:103708000023C7E92823D7E92823D7E93401FDF79F
:1037180083F90346002B03D0D7E92823C7E93423CC
:10372800D7F8AC300133204A1D33DB001344D3E90A
:103738000023C7E92823D7E92823D7E93201FDF771
:103748006BF90346002B03D0D7E92823C7E93223B6
:10375800D7F8AC300133C7F8AC30D7F8AC30172BFA
:103768007FF77EAFB7F88C301846FCF74BFE04465F
:103778000D46124A1249134845EC104BFFF71FF942
:10378800094B03F59A63D3E90023C7E93023064BB5
:10379800D3E90823C7E93A230023C7F8AC3048E047
:1037A800000000000000F040D0030020A00300202B
:1037B80090000020E81200206809002088000020FE
:1037C80008120020A0080020D7F8AC300133BC4A0A
:1037D8009A33DB001344D3E90023C7E92823D7E948
:1037E8002823D7E93001FDF717F90346002B03D04A
:1037F800D7E92823C7E93023D7F8AC300133B04ADA
:103808000433DB001344D3E90023C7E92823D7E9AD
:103818002823D7E93A01FDF7FFF80346002B03D028
:10382800D7E92823C7E93A23D7F8AC300133C7F8DA
:10383800AC30D7F8AC30172BC6DD97ED2E0B0BF05C
:1038480097FFB0EE407AF0EE607A9FED9B1BB0EEEA
:10385800470AF0EE670A0BF053FF87ED280B4FF08D
:1038680000024FF00003D7E92801FDF7B7F8034637
:10387800002B10D0D7F8A030BB63D7F8A43083F062
:103888000043FB63D7E90E01FDF7E6F803469BB258
:103898005B429BB205E0D7E92801FDF7DDF8034656
:1038A8009BB2884A138097ED2C0B0BF061FFB0EEAA
:1038B800407AF0EE607A9FED801BB0EE470AF0EE9A
:1038C800670A0BF01DFF87ED280B4FF000024FF041
:1038D8000003D7E92801FDF781F80346002B10D033
:1038E800D7F8A0303B63D7F8A43083F000437B635C
:1038F800D7E90C01FDF7B0F803469BB25B429BB2D7
:1039080005E0D7E92801FDF7A7F803469BB26D4A01
:10391800538097ED380B0BF02BFFB0EE407AF0EEAA
:10392800607A9FED651BB0EE470AF0EE670A0BF070
:10393800E7FE87ED280B4FF000024FF00003D7E9B0
:103948002801FDF74BF80346002B10D0D7F8A0301C
:10395800BB62D7F8A43083F00043FB62D7E90A01C1
:10396800FDF77AF803469BB25B429BB205E0D7E9C4
:103978002801FDF771F803469BB2524A938097EDF0
:10398800360B0BF0F5FEB0EE407AF0EE607A9FED64
:103998004A1BB0EE470AF0EE670A0BF0B1FE87ED5E
:1039A800280B4FF000024FF00003D7E92801FDF77C
:1039B80015F80346002B10D0D7F8A0303B62D7F893
:1039C800A43083F000437B62D7E90801FDF744F88F
:1039D80003469BB25B429BB205E0D7E92801FDF79D
:1039E8003BF803469BB2374AD38097ED340B0BF074
:1039F800BFFEB0EE407AF0EE607A9FED2F1BB0EE7E
:103A0800470AF0EE670A0BF07BFE87ED280B4FF0B4
:103A180000024FF00003D7E92801FCF7DFFF034657
:103A2800002B10D0D7F8A030BB61D7F8A43083F0B2
:103A38000043FB61D7E90601FDF70EF803469BB288
:103A48005B429BB205E0D7E92801FDF705F803467C
:103A58009BB21C4A138197ED320B0BF089FEB0EE36
:103A6800407AF0EE607A9FED141BB0EE470AF0EE54
:103A7800670A0BF045FE87ED280B4FF000024FF068
:103A88000003D7E92801FCF7A9FF0346002B1BD048
:103A9800D7F8A0303B61D7F8A43083F000437B61AE
:103AA800D7E90401FCF7D8FF03469BB25B429BB2FF
:103AB80010E000BFAFF30080000000000000F040FD
:103AC800D0030020B4030020D7E92801FCF7C4FF85
:103AD80003469BB2A64A538197ED300B0BF048FE84
:103AE800B0EE407AF0EE607A9FED9F1BB0EE470A89
:103AF800F0EE670A0BF004FE87ED280B4FF000028A
:103B08004FF00003D7E92801FCF768FF0346002BB4
:103B180010D0D7F8A030BB60D7F8A43083F00043AA
:103B2800FB60D7E90201FCF797FF03469BB25B42B3
:103B38009BB205E0D7E92801FCF78EFF03469BB24C
:103B48008B4A938197ED3A0B0BF012FEB0EE407A58
:103B5800F0EE607A9FED841BB0EE470AF0EE670A3C
:103B68000BF0CEFD87ED280B4FF000024FF000035D
:103B7800D7E92801FCF732FF0346002B10D0D7F80D
:103B8800A0303B60D7F8A43083F000437B60D7E9CE
:103B98000001FCF761FF03469BB25B429BB205E064
:103BA800D7E92801FCF758FF03469BB2704AD38136
:103BB800704BB3F84C206E4B1A826F48FEF711FD1C
:103BC800C7F89C006D48FEF70CFDC7F898006C4BD1
:103BD80093F8603003F01003DBB2002B0ED1684A73
:103BE80092F8603043F0100382F86030644A92F82B
:103BF800603043F0030382F86030F8E0604B93F8DC
:103C08006030C3F30103DBB2012B03D0022B00F0B9
:103C18009B80B9E05B4B01225A775A4B01229A7775
:103C2800D7F89C3003F00403002B1ED1544A92F8B5
:103C3800603023F00C0382F86030514A92F860300B
:103C4800022161F3010382F860304E4B00221A779B
:103C58004C4B00225A774B4B00229A77494B002253
:103C68001A83484B00225A83C1E0454B93F86030D1
:103C7800C3F38103DBB2012B02D0022B2BD044E02B
:103C8800404B4FF6A1721A833E4B4FF6A1725A83EE
:103C98003C4B9B8840F63C7293420AD9384A92F8CA
:103CA800603043F00C0382F86030364B46225A836A
:103CB80044E0344B5B8940F60A7293423ED9304A5D
:103CC80092F86030022161F3830382F860302D4B53
:103CD80046221A8332E02B4B46221A83294B4FF691
:103CE800A1725A83274B5B8940F6D762934227D843
:103CF800234A92F86030012161F3830382F860302F
:103D0800204B4FF6A1721A831AE01E4B4FF6A17290
:103D18001A831C4B46225A831A4B9B88B3F5616F52
:103D280010D2174A92F86030012161F3830382F8B8
:103D38006030144B4FF6A1725A8303E000BF56E07F
:103D480000BF54E000BF52E00E4B00225A770D4BE3
:103D580000229A770B4B00221A830A4B00225A83BF
:103D680045E000BFAFF30080000000000000F04015
:103D7800B4030020000000200004004800100048A0
:103D8800600C0020D0030020D7F8983003F04003DF
:103D9800002B21D1B54A92F86030012161F301036B
:103DA80082F86030B24B01221A77B14B01225A7760
:103DB800AF4B01229A77AD4A92F86030012161F346
:103DC800830382F86030AA4B4FF6A1721A83A84B7E
:103DD8004FF6A1725A8309E0A54B1B7F002B0CBF3D
:103DE80001230023DBB21A46A14B1A7700BFA14B6F
:103DF800C7F894309E4B5B7F002B04D04FF40073C0
:103E0800C7F8AC3002E00023C7F8AC30D7F8AC30C4
:103E18001946D7F89400FEF7F0FBD7F8AC30DB432F
:103E280003F400731946D7F89400FEF7F4FB914B9E
:103E3800C7F894308E4B9B7F002B04D04FF48043FF
:103E4800C7F8AC3002E00023C7F8AC30D7F8AC3084
:103E58001946D7F89400FEF7D0FBD7F8AC30DB430F
:103E680003F480431946D7F89400FEF7D4FB814B3E
:103E7800C7F894300021D7F89400FEF7BEFB4FF442
:103E88008071D7F89400FEF7C6FB7A4BC7F89430D8
:103E98000021D7F89400FEF7B0FB4FF40041D7F8A3
:103EA8009400FEF7B8FB734BC7F894300021D7F89D
:103EB8009400FEF7A2FB4FF48051D7F89400FEF768
:103EC800AAFB6D4BC7F894300021D7F89400FEF791
:103ED80094FB4FF48051D7F89400FEF79CFB654B98
:103EE800C7F894300021D7F89400FEF786FB4FF40A
:103EF8000051D7F89400FEF78EFB5E4BC7F894305C
:103F08000021D7F89400FEF778FB4FF40061D7F84A
:103F18009400FEF780FB554B93F8643087F8933094
:103F2800534BB3F91A30002B04DD504B002283F8B1
:103F3800642003E04D4B012283F864204B4B93F936
:103F4800643097F993209A4217D097F99330022B4F
:103F580012D0022B11DC002B02D0012B06D00CE072
:103F6800464BB3F94420424B5A8206E0434BB3F91F
:103F780046203F4B1A8200E000BF3C4B93F9643067
:103F8800002B05D13A4BB3F91A20394B5A8213E06A
:103F9800374BB3F91A30002B09DA354BB3F91A301D
:103FA8009BB25B429BB21AB2314B1A8204E0304B8F
:103FB800B3F91A202E4B1A822C4B1B6C2C4AB2F9DF
:103FC800122007EE902AF8EEE77AB0EE670A184654
:103FD800FEF7D4FB254B1B6C254AB2F9102007EEDF
:103FE800902AF8EEE77AB0EE670A1846FEF7DAFB91
:103FF8001E4B93F8653087F893301D4BB3F9183092
:10400800002B04DD194B002283F8652003E0174BD1
:10401800012283F86520154B93F9653097F99320B1
:104028009A4217D097F99330022B12D0022B11DC49
:10403800002B02D0012B06D00CE0104BB3F9402026
:104048000B4BDA8206E00D4BB3F94220084B9A82FB
:1040580000E000BF054B93F96530002B10D1044BED
:10406800B3F91820024BDA821EE000BF600C002072
:10407800D003002000100048000400480000002081
:10408800674BB3F91830002B09DA654BB3F91830D0
:104098009BB25B429BB21AB2614B9A8204E0604BBE
:1040A800B3F918205E4B9A825E4B1B6D5C4AB2F9DD
:1040B800162007EE902AF8EEE77AB0EE670A18465F
:1040C800FEF784FB574B1B6D554AB2F9142007EED7
:1040D800902AF8EEE77AB0EE670A1846FEF78AFBF0
:1040E800514BC7F89430514BD3E904014FF000020B
:1040F8004FF00003FCF768FC0346002B03D1802334
:10410800C7F8AC3002E00023C7F8AC30D7F8AC30C1
:104118001946D7F89400FEF770FAD7F8AC30DB43AD
:1041280003F080031946D7F89400FEF774FA404B61
:10413800C7F894303A4B1B7F002B04D04FF4005340
:10414800C7F8AC3002E00023C7F8AC30D7F8AC3081
:104158001946D7F89400FEF750FAD7F8AC30DB438D
:1041680003F400531946D7F89400FEF754FA304B7D
:10417800C7F894300021D7F89400FEF73EFA4FF4C0
:104188008041D7F89400FEF746FA294BC7F89430D7
:104198000021D7F89400FEF730FA4FF40041D7F821
:1041A8009400FEF738FA234BC7F894301F4BD3E935
:1041B80006014FF000024FF00003FCF705FC034630
:1041C800002B03D10823C7F8AC3002E00023C7F85E
:1041D800AC30D7F8AC301946D7F89400FEF70DFA92
:1041E800D7F8AC30DB4303F008031946D7F894003E
:1041F800FEF711FA0D4BD3E908010A4BD3E9162350
:10420800FBF7C2FF02460B460649C1E9162300F038
:10421800FBFA00F00FFC00BFF037BD46B0BD00BF91
:10422800D0030020600C0020000C00480000002093
:10423800000800480004004880B582B000AF0023A1
:104248007B6011E06B4B93F854106B4A7B68134406
:104258000A461A70674BB3F84810684A7B6822F818
:1042680013107B6801337B607B68072BEADD614BA9
:104278001B6B634A13605F4B5B6B624A13600023DE
:104288007B6017E05B4BB3F84E105F4A7B6822F8FF
:104298001310584BB3F850105C4A7B6822F813107F
:1042A800544BB3F852105A4A7B6822F813107B68B3
:1042B80001337B607B68082BE4DD564BFF2283F8D3
:1042C8006420544BFF2283F865204A4B9B6B524A6B
:1042D8001360484BDB6B514A1360464B9B6B4E4A4D
:1042E8005360444BDB6B4D4A5360424B9B6B4A4ACD
:1042F8009360404BDB6B494A936000F019FB3D4BE0
:10430800D3E90A234349C1E916233A4BB3F94420B8
:10431800434B5A82374BB3F94620414B1A82354BEF
:10432800B3F940203E4BDA82324BB3F942203C4B82
:104338009A82384B00225A60364B00221A70354850
:10434800FEF7DEFB37493848FEF70DFB374938489A
:10435800FEF76FFB37493848FEF705FB3749384801
:10436800FEF701FB37493848FEF7FDFA3749384868
:10437800FEF7F9FA37493848FEF7F5FA3749384869
:10438800FEF757FB37493848FEF7EDFA3749384802
:10439800FEF7E9FA37493848FEF7E5FA3749384869
:1043A800FEF7E1FA1B4B002283F83420194B002258
:1043B80083F83C20174B01229A633248FEF7E8FB4A
:1043C800144B012283F83C20124B002283F844202E
:1043D800104B002283F84C200E4B01229A642A4885
:1043E800FEF712FC0B4B012283F84C2000BF083764
:1043F800BD4680BD00000020C80300207C030020CB
:1044080074030020780300208C030020A003002000
:10441800B4030020600C00205C0300206803002027
:10442800D0030020780000204810002098000020C9
:10443800C8130020B000002078150020800000205C
:104448002811002070000020680F0020680000205C
:10445800880E002060000020A80D0020A000002089
:1044680030140020A80000209814002058000020D4
:10447800C80C002090000020E812002088000020CE
:1044880008120020940C0020A40C002080B500AF76
:10449800344B1B78002B11D1324B01221A70314B4F
:1044A8005B68012B0AD12F4B1B7A002B06D02D4BB2
:1044B800DB68012204211846FDF7B8FE294B93F862
:1044C8003430002B23D1274B012283F83420254B8D
:1044D8009B6B012B1BD1234B93F83C30002B16D040
:1044E800204B1B6C1846FEF731FA1E4B1B6C002143
:1044F8001846FCF7A0FD1B4B1B6C02211846FCF765
:1045080085FE184B1B6C02211846FCF71FFF154B44
:1045180093F84430002B23D1124B012283F8442016
:10452800104B9B6C012B1BD10E4B93F84C30002B7E
:1045380016D00C4B1B6D1846FEF708FA094B1B6D7D
:1045480000211846FCF777FD064B1B6D0221184623
:10455800FCF7A0FF034B1B6D02211846FDF702F87C
:1045680000BF80BD600C002080B489B000AFF86047
:10457800B9607A60FB68BB610023FB61BB689B087C
:104588007B611B4B1B68B3F5C87F2AD00023FB61F6
:1045980022E0174B1B6817497A6841F82320FB690A
:1045A8009B00BA691A44124B1B681268114903F53B
:1045B800C87341F823200E4B1B680F4A12680D4937
:1045C80003F5487341F82320094B1B680133084A57
:1045D8001360FB690133FB61FA697B699A42D8D39E
:1045E80000E000BF2437BD465DF8047B704700BF7C
:1045F8005C160020641600206016002080B584B088
:1046080000AF786072B600BF00F062FC0346FB6042
:1046180007F10C037A6804211846FFF7A5FF62B674
:1046280000BF00BF1037BD4680BD000080B500AF99
:10463800124B1B785A1CD1B2104A1170002B09D0AA
:104648000F4B01221A600D4B1B78013BDAB20B4B62
:104658001A7011E062B600BF02200BF035F8FEF7C1
:104668000FFB02200BF03BF872B600BF034B1B7820
:10467800013BDAB2014B1A7080BD00BF2829002027
:104688002429002080B584B000AF78603960374BAA
:10469800FB60374BBB60374B00221A70364B002249
:1046A8001A7001DF06F02CFB00F0E2FE00F030FF8C
:1046B80000F090FF01F056FF01F074FB02F0A0F942
:1046C80001F0C0FF02F04CFA01F010FD02F010FDFD
:1046D80002F068FC294B1B6800221A6001200AF0CE
:1046E800F3FFFFF7A9FD01200AF0F9FF72B600BF3A
:1046F80097ED030A00F08CFC204B1B681B68002B0D
:104708000CBF01230023DBB21A461B4B1A7062B69A
:1047180000BF62B600BF15E0184B1B681B68002B72
:1047280014BF01230023DBB21A46124B1A70114B37
:104738001B78DBB2002B05D0114B1B68104A23F005
:10474800010313600C4B1B78DBB2002BE4D1032070
:104758000AF0BAFFFFF79AFE03200AF0C0FF72B60C
:1047680000BF002318461037BD4680BDCDCCCC3DD8
:104778000000A042292900202A29002084FC0008E2
:1047880010E000E080B485B000AF0346FB80B7F9C5
:104798000630002B02DBFB88FB8101E0FB88FB81F4
:1047A800B7F90E3018461437BD465DF8047B7047DC
:1047B80080B588B004AF03460A46FB711346BB7147
:1047C800FB799BB25B009BB2013399B2BB799AB279
:1047D8004FF0FF3302930223019307F10C03009378
:1047E8000123084806F07EFE3B7B1BB21B021AB26F
:1047F8007B7B1BB213431BB29BB218461037BD46D6
:1048080080BD00BF5429002080B500AF3B2169203E
:10481800FFF7CEFF03461846FFF7B4FF03461A46D4
:1048280013469B0013445B0007EE903AB8EEE77A14
:10483800DFED3B6AC7EE267A3A4BC3ED007A3D219D
:104848006920FFF7B5FF03461846FFF79BFF0346AD
:104858001A4613469B0013445B0007EE903AB8EEE5
:10486800E77ADFED2F6AC7EE267A2E4BC3ED017A81
:104878003F216920FFF79CFF03461846FFF782FF98
:1048880003461A4613469B0013445B0007EE903A12
:10489800B8EEE77ADFED226AC7EE267A214BC3ED40
:1048A800027A43216920FFF783FF03461846FFF782
:1048B80069FF034607EE903AB8EEE77ADFED1A6A29
:1048C800C7EE267A194BC3ED007A45216920FFF718
:1048D8006FFF03461846FFF755FF034607EE903A69
:1048E800B8EEE77ADFED106AC7EE267A0F4BC3ED14
:1048F800017A47216920FFF75BFF03461846FFF757
:1049080041FF034607EE903AB8EEE77ADFED066A14
:10491800C7EE267A054BC3ED027A00BF80BD00BF03
:10492800000080465C030020000003436803002069
:1049380080B586B004AF0023FB714FF0FF330293BC
:1049480001230193FB1D009301236B22D2211D48F3
:1049580006F0B4FC4FF0FF330293012301930723C1
:10496800009301231922D221164806F0A7FC4FF024
:10497800FF330293012301930023009301231C2298
:10498800D221104806F09AFC4FF0FF33029301231E
:1049980001930023009301231B22D221094806F02A
:1049A8008DFC4FF0FF33029301230193064B0093D4
:1049B80001237522D321034806F094FD00BF083770
:1049C800BD4680BD542900202B29002080B582B027
:1049D80000AF00237B600FE07B68432B08D07B6827
:1049E800052B05D07B685BB2184607F0E9FA00E0B2
:1049F80000BF7B6801337B607B68EF2BECD900BF7D
:104A080000BF0837BD4680BD80B582B000AF002327
:104A18007B6007E07B685BB2184607F0C3FA7B68E7
:104A280001337B607B68EF2BF4D900BF00BF0837E8
:104A3800BD4680BD80B500AF4021AA4806F096FB70
:104A48000346002B14BF01230023DAB2A64B1A70C9
:104A58000421A64806F08AFB0346002B14BF012355
:104A68000023DAB2A04B5A704FF40051A04806F068
:104A78007DFB0346002B14BF01230023DAB29D4BB4
:104A88001A704FF480419A4806F070FB0346002BD9
:104A980014BF01230023DAB2964B5A704FF4004139
:104AA800934806F063FB0346002B14BF0123002341
:104AB800DAB2904B9A704FF480518C4806F056FB4E
:104AC8000346002B14BF01230023DAB28A4B1A7065
:104AD8004FF48071834806F049FB0346002B14BF4E
:104AE80001230023DAB2844B5A704FF400717D48D9
:104AF80006F03CFB0346002B14BF01230023DAB267
:104B08007D4B9A704FF48051764806F02FFB034690
:104B1800002B14BF01230023DAB2774BDA704FF46D
:104B28000061704806F022FB0346002B14BF0123E6
:104B38000023DAB2704B1A714FF48041694806F0CD
:104B480015FB0346002B14BF01230023DAB26A4B7E
:104B58005A714FF40041634806F008FB0346002BE6
:104B680014BF01230023DAB2634B9A714FF400514A
:104B78005C4806F0FBFA0346002B14BF0123002310
:104B8800DAB25D4BDA715D4B5B6B9AB25C4B1A80A3
:104B98005A4B9B6B9AB25A4B5A80584BDB6B9AB262
:104BA800584B1A80554B1B6C9AB2564B5A80FFF7DC
:104BB8000DFF08E04FF400714FF0904006F0D6FA70
:104BC8000346012B07D103214F4803F0C1F80346E0
:104BD800002BEFD10AE000BF08E04FF400714FF05E
:104BE800904006F0C3FA0346012B07D102213E4844
:104BF80003F0AEF80346002BEFD10AE000BF08E04F
:104C08004FF400714FF0904006F0B0FA0346012BC4
:104C180007D10321374803F09BF80346002BEFD157
:104C28000AE000BF08E04FF400714FF0904006F032
:104C38009DFA0346012B07D10C21344803F088F86C
:104C48000346002BEFD10AE000BF08E04FF40071E3
:104C58004FF0904006F08AFA0346012B07D10C2149
:104C68002B4803F075F80346002BEFD10AE000BF8C
:104C780008E04FF400714FF0904006F077FA0346D1
:104C8800012B07D11221234803F062F80346002BB9
:104C9800EFD10AE000BF08E04FF400714FF09040F8
:104CA80006F064FA0346012B07D112211A4803F0D3
:104CB8004FF80346002BEFD10AE000BF08E04FF49D
:104CC80000714FF0904006F051FA0346012B07D1CE
:104CD8001221124803F03CF80346002BEFD128E0DC
:104CE80000BF26E0001000482C29002000040048DE
:104CF8000008004830290020342900200004004022
:104D0800442900204029002028FC00085C030020DA
:104D1800680300208C030020A0030020B4030020B7
:104D28004FF400714FF0904006F020FA0346012B33
:104D380007D10821514803F00BF80346002BEFD1A7
:104D48000AE000BF08E04FF400714FF0904006F011
:104D58000DFA0346012B07D10421494802F0F8FF58
:104D68000346002BEFD10AE000BF08E04FF40071C2
:104D78004FF0904006F0FAF90346012B07D10421C1
:104D8800404802F0E5FF0346002BEFD10AE000BFE0
:104D980008E04FF400714FF0904006F0E7F9034641
:104DA800012B07D10421384802F0D2FF0346002B1B
:104DB800EFD10AE000BF08E04FF400714FF09040D7
:104DC80006F0D4F90346012B07D108212F4802F039
:104DD800BFFF0346002BEFD10AE000BF08E04FF405
:104DE80000714FF0904006F0C1F90346012B07D13E
:104DF8001021274802F0ACFF0346002BEFD10AE050
:104E080000BF08E04FF400714FF0904006F0AEF993
:104E18000346012B07D104211E4802F099FF0346DF
:104E2800002BEFD10AE000BF08E04FF400714FF00B
:104E3800904006F09BF90346012B07D10421164840
:104E480002F086FF0346002BEFD10AE000BF08E01E
:104E58004FF400714FF0904006F088F90346012B9B
:104E680007D104210D4802F073FF0346002BEFD150
:104E780000E000BFFFF7C8FD00BF80BD3429002057
:104E88003C2900204029002044290020C803002094
:104E98007C03002078030020740300202CFC000809
:104EA80080B584B000AF786005F056FFF8607B6885
:104EB800BB6000BF05F050FF0246FB68D31ABA6812
:104EC8009A42F7D800BF00BF1037BD4680BD00002A
:104ED80010B50E4C82B0636A019305F03DFF009057
:104EE800626A019B9A4207D3009B01984FF47A7239
:104EF80002FB030002B010BD05F02EFF636A4FF4F9
:104F08007A7202FB003002B010BD00BF002C0140D5
:104F180080B483B000AF03463960FB7197F907305E
:104F2800002B0ADB3B68DAB20C4997F9073012010B
:104F3800D2B20B4483F800230AE03B68DAB208498E
:104F4800FB7903F00F03043B1201D2B20B441A762B
:104F580000BF0C37BD465DF8047B704700E100E0F8
:104F680000ED00E080B582B000AF78607B68013B5F
:104F7800B3F1807F01D301230FE00A4A7B68013B2C
:104F880053600F214FF0FF30FFF7C2FF054B00229F
:104F98009A60044B07221A60002318460837BD465A
:104FA80080BD00BF10E000E080B500AFBFF34F8FB9
:104FB80000BFBFF36F8F00BF0B4B1A680B4B1B680A
:104FC8009A4202D3084B00221A60074B1B685A1CEE
:104FD80005490A60002B05D172B600BFFFF726FB12
:104FE80062B600BF00BF80BD482900204C290020C0
:104FF80080B400AF054B5B68044A43F080535360AC
:1050080000BFBD465DF8047B704700BF00ED00E0BF
:1050180080B584B000AF87ED010A234B1B6807EE0B
:10502800903AB8EE677AD7ED017A67EE277AFCEE08
:10503800E77A17EE903AFB60FB68B3F1807F18D3EC
:10504800FB6807EE903AB8EE677ADFED186AC7EEAC
:10505800267AFCEEE77A17EE903A0133144A136089
:10506800134B1B68FA68B2FBF3F31846FFF77AFF95
:1050780005E00F4B00221A60F868FFF773FF0D4B2D
:1050880000221A600C4A0D4B1A600F216FF00400C1
:10509800FFF73EFF0F216FF00100FFF739FF00BF58
:1050A8001037BD4680BD00BF44020020FFFF7F4B84
:1050B8004C29002048290020B14F00085029002021
:1050C800EFF3008001B5EFF3118003B41EF0100F69
:1050D80008BFB0EE400A0A48006803B488B004A0CC
:1050E80006904FF0807007906FF006008646704774
:1050F80003BC8047BFF36F8F00DFFEE700BF0000EF
:10510800502900201EF0100F08BFB0EE400A1EF014
:10511800040F0CBFEFF30880EFF30980816911F8E1
:10512800020C10B101280DD00BE01EF0100F0CBFBF
:105138001AB008B003BC80F3118803BC80F3008860
:105148000847FEE74EF61451CEF200010A6842F015
:1051580001020A607047F4E700BF00BF80B400AFE7
:10516800054B1B68044A43F40023136000BFBD4687
:105178005DF8047B704700BF0010024080B400AFA8
:10518800054B1B68044A43F48033136000BFBD46D7
:105198005DF8047B704700BF0010024080B400AF88
:1051A800074B1B6803F40033B3F5003F01D101231B
:1051B80000E000231846BD465DF8047B704700BF39
:1051C8000010024080B483B000AF7860064B9B6843
:1051D80023F0030204497B6813438B6000BF0C373C
:1051E800BD465DF8047B70470010024080B400AFF4
:1051F800044B9B6803F00C031846BD465DF8047B1E
:10520800704700BF0010024080B483B000AF7860E0
:10521800064B9B6823F0F00204497B6813438B60BC
:1052280000BF0C37BD465DF8047B70470010024094
:1052380080B483B000AF7860064B9B6823F4E062CB
:1052480004497B6813438B6000BF0C37BD465DF88B
:10525800047B70470010024080B483B000AF7860D0
:10526800064B9B6823F4605204497B6813438B60A8
:1052780000BF0C37BD465DF8047B70470010024044
:1052880080B400AF054B1B68044A43F08073136079
:1052980000BFBD465DF8047B704700BF00100240A8
:1052A80080B400AF074B1B6803F00073B3F1007FB5
:1052B80001D1012300E000231846BD465DF8047BB8
:1052C800704700BF0010024080B485B000AFF8609E
:1052D800B9607A603B600A4BDA680A4B1340F96898
:1052E800BA6811437A68120211433A680A430449BA
:1052F8001343CB6000BF1437BD465DF8047B70478D
:10530800001002408C80FFF980B400AF054BDB68C9
:10531800044A43F08073D36000BFBD465DF8047B48
:10532800704700BF0010024080B400AF054B1B68F7
:10533800044A43F08063136000BFBD465DF8047BF8
:10534800704700BF0010024080B400AF074B1B68D5
:1053580003F00063B3F1006F01D1012300E00023E3
:105368001846BD465DF8047B704700BF0010024038
:1053780080B485B000AFF860B9607A603B600E4BCE
:10538800DB6823F07302F968BB680B430A491343CF
:10539800CB60094B1B6923F4C00323F4FE437A68EE
:1053A80011023A680A43044913430B6100BF1437DA
:1053B800BD465DF8047B70470010024080B400AF22
:1053C800054B1B69044A43F48013136100BFBD46B3
:1053D8005DF8047B704700BF0010024080B483B0C2
:1053E80000AF7860064B1B6823F0070204497B680E
:1053F80013430B6000BF0C37BD465DF8047B704754
:105408000020024080B400AF044B1B6803F0070380
:105418001846BD465DF8047B704700BF0020024077
:1054280080B483B000AF7860064B1B6823F4C06279
:1054380004497B6813430B6000BF0C37BD465DF819
:10544800047B70470070004080B400AF074B5B6975
:1054580003F48063B3F5806F01D1012300E00023DA
:105468001846BD465DF8047B704700BF00700040D9
:1054780080B500AF0420FFF7B1FF00BFFFF7C2FF00
:105488000346042BFAD14FF40070FFF7C9FF00BFA1
:10549800FFF7DAFF0346002BFAD1FFF76FFE00BFD4
:1054A800FFF77CFE0346012BFAD1FFF757FE0023D6
:1054B800142200210320FFF707FFFFF725FFFFF75E
:1054C800DFFE00BFFFF7ECFE0346012BFAD10320F5
:1054D800FFF778FE00BFFFF789FE03460C2BFAD1D1
:1054E8000020FFF791FE0020FFF7A2FE0020FFF743
:1054F800B3FE064802F040FD0F2002F0CFFC034641
:10550800002B01D000F02CF800BF80BD00B4C4040B
:1055180080B500AF00230C2200210320FFF728FFED
:10552800FFF74CFFFFF700FF00BFFFF70DFF034633
:10553800012BFAD100BF00BF80BD000080B582B04A
:1055480000AF78607B681B68044A934201D105F07C
:10555800EFFB00BF0837BD4680BD00BF002C0140EF
:1055680080B400AF72B600BF00BFFDE780B485B05D
:1055780000AF7860084BDA6C07497B681343CB644B
:10558800054BDA6C7B681340FB60FB6800BF14377F
:10559800BD465DF8047B70470010024080B483B0BC
:1055A80000AF786039607B683A689A6100BF0C3751
:1055B800BD465DF8047B704780B483B000AF786067
:1055C80039607B683A689A6200BF0C37BD465DF85F
:1055D800047B704780B586B000AF3B4600221A6056
:1055E8005A609A60DA601A615A611020FFF7BEFFAC
:1055F8000420FFF7BBFF8020FFF7B8FF0120FFF76B
:10560800B5FF0220FFF7B2FF0820FFF7AFFF4FF406
:1056180000516348FFF7C2FF4FF440416048FFF76D
:10562800CBFF4FF47B415F48FFF7C6FF41F208010B
:105638005D48FFF7C1FF80215C48FFF7BDFF40F2DE
:10564800BF433B6003237B6000233B613B46194615
:10565800544802F0ECFD40233B6000237B600123AB
:105668003B613B4619464F4802F0E1FD4FF4604369
:105678003B6001237B600023BB600023FB600023A9
:105688003B613B461946464802F0D1FD41F60F43BF
:105698003B6003237B6000233B613B46194640483F
:1056A80002F0C5FD48F207533B6003237B600023EB
:1056B8003B613B4619464FF0904002F0B8FD042389
:1056C8003B6000237B6001233B613B46194636481B
:1056D80002F0ADFD4FF47B433B6001237B60032365
:1056E800BB600023FB6000233B613B4619462D4805
:1056F80002F09DFD4FF480533B6001237B60032340
:10570800BB600023FB6000233B613B4619462648EB
:1057180002F08DFD4EF2D0333B6003237B60002303
:105728003B613B461946204802F081FD4FF61F7346
:105738003B6003237B6000233B613B4619461B48C3
:1057480002F075FD80233B6001237B600023BB6072
:105758000023FB6000233B613B461946134802F0D7
:1057680066FD08233B6001237B600023BB600023A8
:10577800FB6000233B613B4619460B4802F057FD8E
:1057880020233B6000237B6000233B613B46194696
:10579800054802F04CFD00BF1837BD4680BD00BF6C
:1057A800000800480010004800040048000C0048A9
:1057B80080B400AF044BDB681B0A03F007031846EC
:1057C800BD465DF8047B704700ED00E080B483B00F
:1057D80000AF0346FB7197F90730002B0BDBFB7911
:1057E80003F01F02074997F907305B09012000FA07
:1057F80002F241F8232000BF0C37BD465DF8047B58
:10580800704700BF00E100E080B483B000AF0346FA
:105818003960FB7197F90730002B0ADB3B68DAB275
:105828000C4997F907301201D2B20B4483F80023D0
:105838000AE03B68DAB20849FB7903F00F03043B3E
:105848001201D2B20B441A7600BF0C37BD465DF880
:10585800047B704700E100E000ED00E080B489B00F
:1058680000AFF860B9607A60FB6803F00703FB617A
:10587800FB69C3F10703042B28BF0423BB61FB6941
:105888000433062B02D9FB69033B00E000237B614C
:105898004FF0FF32BB6902FA03F3DA43BB681A40E0
:1058A8007B699A404FF0FF317B6901FA03F3D943D2
:1058B8007B680B40134318462437BD465DF8047BCC
:1058C800704780B483B000AF786039607B689B68AC
:1058D80023F0E0723B681A437B689A6000BF0C377C
:1058E800BD465DF8047B704780B487B000AFF860B0
:1058F800B9607A60FB6830331A46BB681B0A9B00A4
:1059080003F00C0313447B617B691A68BB6803F0DE
:105918001F031F2101FA03F3DB431A407B689B0E28
:1059280003F01F01BB6803F01F0301FA03F31A43D6
:105938007B691A6000BF1C37BD465DF8047B704761
:1059480080B487B000AFF860B9607A60FB68143340
:105958001A46BB685B0E9B0003F0040313447B618B
:105968007B691A68BB681B0D03F01F03072101FA46
:1059780003F3DB431A40BB681B0D03F01F03796870
:1059880001FA03F31A437B691A6000BF1C37BD464E
:105998005DF8047B7047000080B485B000AFF86004
:1059A800B9607A60FB68D3F8B020BB68C3F3120310
:1059B800DB431A407B6803F018030849D940BB68E9
:1059C8000B40C3F312031A43FB68C3F8B02000BFAF
:1059D8001437BD465DF8047B704700BFFFFF070022
:1059E80080B483B000AF786039607B681B6923F4AA
:1059F800806323F003033A681A437B681A6100BF87
:105A08000C37BD465DF8047B704780B483B000AFA7
:105A1800786039607B681B6923F400723B681A431D
:105A28007B681A6100BF0C37BD465DF8047B704780
:105A380080B485B000AFF860B9607A60FB681B6914
:105A480023F4FE727968BB680B431A43FB681A613A
:105A580000BF1437BD465DF8047B704780B483B03F
:105A680000AF78607B689B6823F0204323F03F03F6
:105A78007A68936000BF0C37BD465DF8047B7047B9
:105A880080B483B000AF78607B689B6823F01043D4
:105A980023F03F0343F080527B689A6000BF0C37C5
:105AA800BD465DF8047B704780B487B000AFF860EE
:105AB800B9607A60FB687B610E4ABB6813441B7847
:105AC8001A467B6913441B6823F4804323F01003B0
