:020000040800F2
:100000000080012019010108778800087F88000816
:10001000878800088F880008978800080000000083
:10002000000000000000000000000000BD5B0008B0
:100030009F88000800000000795B0008A95A0008AA
:1000400069010108690101086901010869010108E4
:1000500069010108690101086901010869010108D4
:10006000690101086901010869010108AD880008FA
:10007000891F000869010108690101086901010877
:10008000BB880008C9880008D788000869010108F2
:100090006901010869010108690101086901010894
:1000A00069010108E5880008690101086901010882
:1000B0006901010869010108690101086901010874
:1000C0006901010869010108690101086901010864
:1000D0006901010869010108690101086901010854
:1000E0006901010869010108690101086901010844
:1000F0006901010869010108690101086901010834
:100100006901010869010108690101086901010823
:100110006901010869010108690101086901010813
:100120006901010869010108690101086901010803
:1001300069010108690101086901010869010108F3
:10014000690101086901010869010108F9880008CD
:1001500069010108690101086901010869010108D3
:1001600069010108690101086901010869010108C3
:100170006901010869010108690101080000000026
:08018000690101086901010891
:1001880081F0004102E000BF83F0004330B54FEA40
:1001980041044FEA430594EA050F08BF90EA020FAD
:1001A8001FBF54EA000C55EA020C7FEA645C7FEA40
:1001B800655C00F0E2804FEA5454D4EB5555B8BF63
:1001C8006D420CDD2C4480EA020281EA030382EAD4
:1001D800000083EA010180EA020281EA0303362D66
:1001E80088BF30BD11F0004F4FEA01314FF4801C39
:1001F8004CEA113102D0404261EB410113F0004F4B
:100208004FEA03334CEA133302D0524263EB430301
:1002180094EA050F00F0A780A4F10104D5F1200E9F
:100228000DDB02FA0EFC22FA05F2801841F10001FA
:1002380003FA0EF2801843FA05F359410EE0A5F1CE
:1002480020050EF1200E012A03FA0EFC28BF4CF0FF
:10025800020C43FA05F3C01851EBE37101F00045B5
:1002680007D54FF0000EDCF1000C7EEB00006EEBC2
:100278000101B1F5801F1BD3B1F5001F0CD349084C
:100288005FEA30004FEA3C0C04F101044FEA4452A3
:1002980012F5800F80F09A80BCF1004F08BF5FEA2A
:1002A800500C50F1000041EB045141EA050130BD0A
:1002B8005FEA4C0C404141EB0101013C28BFB1F51C
:1002C800801FE9D291F0000F04BF01460020B1FA67
:1002D80081F308BF2033A3F10B03B3F120020CDA3A
:1002E8000C3208DD02F1140CC2F10C0201FA0CF018
:1002F80021FA02F10CE002F11402D8BFC2F1200C7D
:1003080001FA02F120FA0CFCDCBF41EA0C01904032
:10031800E41AA2BF01EB0451294330BD6FEA04047B
:100328001F3C1CDA0C340EDC04F11404C4F1200266
:1003380020FA04F001FA02F340EA030021FA04F378
:1003480045EA030130BDC4F10C04C4F1200220FACF
:1003580002F001FA04F340EA0300294630BD21FA0D
:1003680004F0294630BD94F0000F83F4801306BFD3
:1003780081F480110134013D4EE77FEA645C18BFC7
:100388007FEA655C29D094EA050F08BF90EA020F5E
:1003980005D054EA000C04BF1946104630BD91EA56
:1003A800030F1EBF0021002030BD5FEA545C05D159
:1003B8004000494128BF41F0004130BD14F5800498
:1003C8003CBF01F5801130BD01F0004545F0FE410C
:1003D80041F470014FF0000030BD7FEA645C1ABF41
:1003E800194610467FEA655C1CBF0B46024650EA78
:1003F800013406BF52EA033591EA030F41F40021A4
:1004080030BD00BF90F0000F04BF0021704730B529
:100418004FF4806404F132044FF000054FF00001FE
:1004280050E700BF90F0000F04BF0021704730B5BF
:100438004FF4806404F1320410F0004548BF404294
:100448004FF000013EE700BF42004FEAE2014FEAE9
:1004580031014FEA02701FBF12F07F4393F07F4FC4
:1004680081F06051704732F07F4208BF704793F0C7
:100478007F4F04BF41F40021704730B54FF46074DA
:1004880001F0004521F000411CE700BF50EA0102DD
:1004980008BF704730B54FF000050AE050EA010286
:1004A80008BF704730B511F0004502D5404261EBF6
:1004B80041014FF4806404F132045FEA915C3FF437
:1004C800D8AE4FF003025FEADC0C18BF03325FEAD4
:1004D800DC0C18BF033202EBDC02C2F1200300FA85
:1004E80003FC20FA02F001FA03FE40EA0E0021FAAA
:1004F80002F11444BDE600BF70B54FF0FF0C4CF498
:10050800E06C1CEA11541DBF1CEA135594EA0C0F49
:1005180095EA0C0F00F0DEF82C4481EA030621EA84
:100528004C5123EA4C5350EA013518BF52EA0335BF
:1005380041F4801143F4801338D0A0FB02CE4FF071
:100548000005E1FB02E506F00042E0FB03E54FF0A1
:100558000006E1FB03569CF0000F18BF4EF0010E99
:10056800A4F1FF04B6F5007F64F5407404D25FEA95
:100578004E0E6D4146EB060642EAC62141EA555148
:100588004FEAC52040EA5E504FEACE2EB4F1FD0C8A
:1005980088BFBCF5E06F1ED8BEF1004F08BF5FEA08
:1005A800500E50F1000041EB045170BD06F00046BA
:1005B80046EA010140EA020081EA0301B4EB5C0467
:1005C800C2BFD4EB0C0541EA045170BD41F480115F
:1005D8004FF0000E013C00F3AB8014F1360FDEBF84
:1005E800002001F0004170BDC4F10004203C35DA60
:1005F8000C341BDC04F11404C4F1200500FA05F3E3
:1006080020FA04F001FA05F240EA020001F0004283
:1006180021F0004110EBD37021FA04F642EB0601F9
:100628005EEA430E08BF20EAD37070BDC4F10C0423
:10063800C4F1200500FA04F320FA05F001FA04F2E7
:1006480040EA020001F0004110EBD37041F10001D3
:100658005EEA430E08BF20EAD37070BDC4F12005DE
:1006680000FA05F24EEA020E20FA04F301FA05F246
:1006780043EA020321FA04F001F0004121FA04F2EE
:1006880020EA020000EBD3705EEA430E08BF20EABE
:10069800D37070BD94F0000F0FD101F000464000F8
:1006A80041EB010111F4801F08BF013CF7D041EA7A
:1006B800060195F0000F18BF704703F0004652007E
:1006C80043EB030313F4801F08BF013DF7D043EA4F
:1006D8000603704794EA0C0F0CEA135518BF95EA05
:1006E8000C0F0CD050EA410618BF52EA4306D1D18C
:1006F80081EA030101F000414FF0000070BD50EAAB
:10070800410606BF1046194652EA430619D094EA34
:100718000C0F02D150EA013613D195EA0C0F05D11E
:1007280052EA03361CBF104619460AD181EA030172
:1007380001F0004141F0FE4141F470014FF000002A
:1007480070BD41F0FE4141F4780170BD70B54FF0C5
:10075800FF0C4CF4E06C1CEA11541DBF1CEA135545
:1007680094EA0C0F95EA0C0F00F0A7F8A4EB050427
:1007780081EA030E52EA03354FEA013100F088801E
:100788004FEA03334FF0805545EA131343EA1263E7
:100798004FEA022245EA111545EA10654FEA00269C
:1007A8000EF000419D4208BF964244F1FD0404F555
:1007B800407402D25B084FEA3202B61A65EB0305B1
:1007C8005B084FEA32024FF480104FF4002CB6EB6E
:1007D800020E75EB030E22BFB61A754640EA0C00EE
:1007E8005B084FEA3202B6EB020E75EB030E22BF2E
:1007F800B61A754640EA5C005B084FEA3202B6EB6F
:10080800020E75EB030E22BFB61A754640EA9C002D
:100818005B084FEA3202B6EB020E75EB030E22BFFD
:10082800B61A754640EADC0055EA060E18D04FEABB
:10083800051545EA16754FEA06164FEAC30343EA5B
:1008480052734FEAC2025FEA1C1CC0D111F4801F28
:100858000BD141EA00014FF000004FF0004CB6E721
:1008680011F4801F04BF01430020B4F1FD0C88BFC0
:10087800BCF5E06F3FF6AFAEB5EB030C04BFB6EBCB
:10088800020C5FEA500C50F1000041EB045170BDBE
:100898000EF0004E4EEA113114EB5C04C2BFD4EBEB
:1008A8000C0541EA045170BD41F480114FF0000E6F
:1008B800013C90E645EA060E8DE60CEA135594EAEB
:1008C8000C0F08BF95EA0C0F3FF43BAF94EA0C0FEE
:1008D8000AD150EA01347FF434AF95EA0C0F7FF463
:1008E80025AF104619462CE795EA0C0F06D152EAB7
:1008F80003353FF4FDAE1046194622E750EA41069B
:1009080018BF52EA43067FF4C5AE50EA41047FF4AB
:100918000DAF52EA43057FF4EBAE12E74FF0FF3C10
:1009280006E000BF4FF0010C02E000BF4FF0010CE1
:100938004DF804CD4FEA410C7FEA6C5C4FEA430C5A
:1009480018BF7FEA6C5C1BD001B050EA410C0CBFA9
:1009580052EA430C91EA030F02BF90EA020F00200B
:10096800704710F1000F91EA030F58BF994208BF72
:1009780090422CBFD8176FEAE37040F0010070472F
:100988004FEA410C7FEA6C5C02D150EA013C07D186
:100998004FEA430C7FEA6C5CD6D152EA033CD3D0D1
:1009A8005DF8040B704700BF8446104662468C46CB
:1009B8001946634600E000BF01B5FFF7B7FF0028FE
:1009C80048BF10F1000F01BD4DF808EDFFF7F4FF27
:1009D8000CBF012000205DF808FB00BF4DF808EDB2
:1009E800FFF7EAFF34BF012000205DF808FB00BFD5
:1009F8004DF808EDFFF7E0FF94BF012000205DF8F7
:100A080008FB00BF4DF808EDFFF7CEFF94BF0120AB
:100A180000205DF808FB00BF4DF808EDFFF7C4FFA4
:100A280034BF012000205DF808FB00BF4FEA410CED
:100A38007FEA6C5C02D150EA013C0AD14FEA430CD0
:100A48007FEA6C5C02D152EA033C02D14FF000000D
:100A580070474FF0010070474A0011D212F500129A
:100A680011D20DD56FF47873B3EB62520ED44FEAFE
:100A7800C12343F0004343EA505323FA02F070477E
:100A88004FF00000704750EA013002D14FF0FF30BC
:100A980070474FF0000070470348044B834202D070
:100AA800034B03B118477047D0020020D002002042
:100AB800000000000548064B1B1AD90F01EBA301E3
:100AC800491002D0034B03B118477047D0020020E9
:100AD800D00200200000000010B5064C237843B96E
:100AE800FFF7DAFF044B13B10448AFF3008001238A
:100AF800237010BDD002002000000000BC060108D1
:100B080008B5054B1BB105490548AFF30080BDE8A2
:100B18000840FFF7CFBF00BF00000000D40200204C
:100B2800BC06010880B485B000AF78607B681B689C
:100B380003F06003FB60FB68002B04D17B681B6833
:100B480003F01003FB60FB6818461437BD465DF8D8
:100B5800047B704780B483B000AF78607B681B6B00
:100B680018460C37BD465DF8047B704780B483B0E7
:100B780000AF786039607B681A6A3B681A437B6803
:100B88001A6200BF0C37BD465DF8047B704780B41D
:100B980083B000AF786039607B681A6A3B68DB43D2
:100BA8001A407B681A6200BF0C37BD465DF8047BAB
:100BB800704780B483B000AF78607B685B6C43F4A7
:100BC80000427B685A6400BF0C37BD465DF8047B61
:100BD800704780B483B000AF78607B68DB6843F00F
:100BE80001027B68DA6000BF0C37BD465DF8047B04
:100BF800704780B483B000AF78607B68DB6823F00F
:100C080001027B68DA6000BF0C37BD465DF8047BE3
:100C1800704780B483B000AF78607B68DB6803F00E
:100C28000103012B01D1012300E0002318460C37F2
:100C3800BD465DF8047B704780B483B000AF786030
:100C48007B68DB6843F002027B68DA6000BF0C3720
:100C5800BD465DF8047B704780B483B000AF786010
:100C68007B68DB6823F002027B68DA6000BF0C3720
:100C7800BD465DF8047B704780B483B000AF7860F0
:100C88007B68DB6803F00203022B01D1012300E03B
:100C9800002318460C37BD465DF8047B704780B4C6
:100CA80083B000AF78607B68DB6843F004027B6840
:100CB800DA6000BF0C37BD465DF8047B704780B42E
:100CC80083B000AF78607B68DB6823F004027B6840
:100CD800DA6000BF0C37BD465DF8047B704780B40E
:100CE80083B000AF78607B68DB6803F00403042BF3
:100CF80001D1012300E0002318460C37BD465DF8FA
:100D0800047B704780B483B000AF78607B68DB6891
:100D180043F008027B68DA6000BF0C37BD465DF817
:100D2800047B704780B483B000AF78607B68DB6871
:100D380023F008027B68DA6000BF0C37BD465DF817
:100D4800047B704780B483B000AF78607B68DB6851
:100D580003F00803082B01D1012300E00023184603
:100D68000C37BD465DF8047B704780B483B000AF94
:100D780078607B68DB6843F010027B68DA6000BF4C
:100D88000C37BD465DF8047B704780B483B000AF74
:100D980078607B68DB6823F010027B68DA6000BF4C
:100DA8000C37BD465DF8047B704780B483B000AF54
:100DB80078607B68DB6803F01003102B01D10123F6
:100DC80000E0002318460C37BD465DF8047B7047E9
:100DD80080B483B000AF78607B68DB6843F02002A2
:100DE8007B68DA6000BF0C37BD465DF8047B70474E
:100DF80080B483B000AF78607B68DB6823F02002A2
:100E08007B68DA6000BF0C37BD465DF8047B70472D
:100E180080B483B000AF78607B68DB6803F02003A0
:100E2800202B01D1012300E0002318460C37BD46D2
:100E38005DF8047B704780B483B000AF78607B684E
:100E4800DB6843F040027B68DA6000BF0C37BD46C0
:100E58005DF8047B704780B483B000AF78607B682E
:100E6800DB6823F040027B68DA6000BF0C37BD46C0
:100E78005DF8047B704780B483B000AF78607B680E
:100E8800DB6803F04003402B01D1012300E000237D
:100E980018460C37BD465DF8047B704780B483B0B4
:100EA80000AF78607B68DB6843F080027B68DA60BB
:100EB80000BF0C37BD465DF8047B704780B483B033
:100EC80000AF78607B68DB6823F080027B68DA60BB
:100ED80000BF0C37BD465DF8047B704780B483B013
:100EE80000AF78607B68DB6803F08003802B01D15A
:100EF800012300E0002318460C37BD465DF8047B4B
:100F0800704780B582B000AF78600B467B807B88E5
:100F180003F00103002B0CD07B681B681846FFF711
:100F2800AAFF0346012B04D07B681B681846FFF70D
:100F380082FF7B8803F00203002B0CD07B681B68C0
:100F48001846FFF799FE0346012B04D07B681B68FF
:100F58001846FFF771FE7B8803F00403002B0CD0C2
:100F68007B681B681846FFF7BAFE0346012B04D0BE
:100F78007B681B681846FFF792FE7B8803F008031E
:100F8800002B0CD07B681B681846FFF7DBFE034676
:100F9800012B04D07B681B681846FFF7B3FE7B88DB
:100FA80003F01003002B0CD07B681B681846FFF772
:100FB800FCFE0346012B04D07B681B681846FFF72C
:100FC800D4FE7B8803F02003002B0CD07B681B68C1
:100FD8001846FFF71EFE0346012B04D07B681B68EA
:100FE8001846FFF7F6FD7B8803F04003002B0CD072
:100FF8007B681B681846FFF771FF0346012B04D076
:101008007B681B681846FFF749FF7B8803F080035D
:10101800002B0CD07B681B681846FFF7F9FE0346C7
:10102800012B04D07B681B681846FFF7D1FE00BF70
:101038000837BD4680BD80B582B000AF78600B46EA
:101048007B807B8803F00103002B0CD07B681B6836
:101058001846FFF710FF0346012B04D17B681B6875
:101068001846FFF7F8FE7B8803F00203002B0CD02C
:101078007B681B681846FFF7FFFD0346012B04D168
:101088007B681B681846FFF7E7FD7B8803F00403BD
:10109800002B0CD07B681B681846FFF720FE034620
:1010A800012B04D17B681B681846FFF708FE7B8874
:1010B80003F00803002B0CD07B681B681846FFF769
:1010C80041FE0346012B04D17B681B681846FFF7D5
:1010D80029FE7B8803F01003002B0CD07B681B686B
:1010E8001846FFF762FE0346012B04D17B681B6894
:1010F8001846FFF74AFE7B8803F02003002B0CD02C
:101108007B681B681846FFF784FD0346012B04D053
:101118007B681B681846FFF76CFD7B8803F040036B
:10112800002B0CD07B681B681846FFF7D7FE0346D8
:10113800012B04D17B681B681846FFF7BFFE7B882C
:1011480003F08003002B0CD07B681B681846FFF760
:101158005FFE0346012B04D17B681B681846FFF726
:1011680047FE00BF0837BD4680BD000080B582B08D
:1011780000AF78600B46FB70FB78022B06D17B68CA
:101188001B6801211846FFF7F1FC31E07B681B68FA
:10119800194A934213D07B681B68184A93420ED0B1
:1011A8007B681B68164A934209D07B681B68154AFE
:1011B800934204D07B681B68134A934218D1FB788A
:1011C800032B06D17B681B6804211846FFF7CEFC69
:1011D8000EE0FB78042B0BD17B681B6801211846B5
:1011E800FFF7C4FC7B681B6804211846FFF7BEFCA8
:1011F80000BF0837BD4680BD002C014000340140C7
:1012080000400140004401400048014080B582B0E0
:1012180000AF78600B46FB70FB78022B06D17B6829
:101228001B6801211846FFF7B2FC31E07B681B6898
:10123800194A934213D07B681B68184A93420ED010
:101248007B681B68164A934209D07B681B68154A5D
:10125800934204D07B681B68134A934218D1FB78E9
:10126800032B06D17B681B6804211846FFF78FFC07
:101278000EE0FB78042B0BD17B681B680121184614
:10128800FFF785FC7B681B6804211846FFF77FFC85
:1012980000BF0837BD4680BD002C01400034014026
:1012A80000400140004401400048014080B582B040
:1012B80000AF78600B46FB70FB78022B06D17B6889
:1012C8001B6810211846FFF751FC31E07B681B684A
:1012D800194A934213D07B681B68184A93420ED070
:1012E8007B681B68164A934209D07B681B68154ABD
:1012F800934204D07B681B68134A934218D1FB7849
:10130800032B06D17B681B6840211846FFF72EFC8B
:101318000EE0FB78042B0BD17B681B681021184664
:10132800FFF724FC7B681B6840211846FFF71EFC6A
:1013380000BF0837BD4680BD002C01400034014085
:1013480000400140004401400048014080B582B09F
:1013580000AF78600B46FB70FB78022B06D17B68E8
:101368001B6810211846FFF712FC31E07B681B68E8
:10137800194A934213D07B681B68184A93420ED0CF
:101388007B681B68164A934209D07B681B68154A1C
:10139800934204D07B681B68134A934218D1FB78A8
:1013A800032B06D17B681B6840211846FFF7EFFB2B
:1013B8000EE0FB78042B0BD17B681B6810211846C4
:1013C800FFF7E5FB7B681B6840211846FFF7DFFB4A
:1013D80000BF0837BD4680BD002C014000340140E5
:1013E80000400140004401400048014080B582B0FF
:1013F80000AF78600B46FB70FB78022B07D17B6847
:101408001B684FF480711846FFF7B0FB34E07B6827
:101418001B681B4A934213D07B681B68194A934286
:101428000ED07B681B68184A934209D07B681B68FA
:10143800164A934204D07B681B68154A93421BD115
:10144800FB78032B07D17B681B684FF48061184633
:10145800FFF78CFB10E0FB78042B0DD17B681B6831
:101468004FF480711846FFF781FB7B681B684FF4C7
:1014780080611846FFF77AFB00BF0837BD4680BD7C
:10148800002C01400034014000400140004401406C
:101498000048014080B582B000AF78600B46FB7011
:1014A800FB78022B07D17B681B684FF480711846C4
:1014B800FFF76DFB34E07B681B681B4A934213D02F
:1014C8007B681B68194A93420ED07B681B68184AD0
:1014D800934209D07B681B68164A934204D07B6804
:1014E8001B68154A93421BD1FB78032B07D17B68F5
:1014F8001B684FF480611846FFF749FB10E0FB7842
:10150800042B0DD17B681B684FF480711846FFF7D8
:101518003EFB7B681B684FF480611846FFF737FB7A
:1015280000BF0837BD4680BD002C01400034014093
:1015380000400140004401400048014080B582B0AD
:1015480000AF78600B46FB70FB78022B06D17B68F6
:101558001B684FF480511846FFF708FB00BF083797
:10156800BD4680BD80B582B000AF78600B46FB7089
:10157800FB78022B06D17B681B684FF48051184614
:10158800FFF705FB00BF0837BD4680BD80B584B0B6
:1015980000AF78600023FB607B681B68304A934289
:1015A80001D1304BFB607B681A68FB681A60FB68E6
:1015B8001B681846FFF7B6FAB860BB68002B06D060
:1015C800BB68102B03D0FB6801221A7102E0FB688C
:1015D80000221A71FB681B68234A934213D0FB68E8
:1015E8001B68224A93420ED0FB681B68204A93422C
:1015F80009D0FB681B681F4A934204D0FB681B682C
:101608001D4A934204D1FB681B681846FFF7D1FABC
:10161800FB681B68144A934213D0FB681B68134A83
:1016280093420ED0FB681B68114A934209D0FB68AD
:101638001B68104A934204D0FB681B680E4A934209
:1016480008D17B681B681846FFF784FA0346DAB2AC
:10165800FB685A71FB6818461037BD4680BD00BF4D
:1016680000040040EC020020002C0140003401403E
:1016780000400140004401400048014080B485B06A
:1016880000AF786039603B68002B03D17B6840333A
:10169800FB6001E0044BFB60FB6818461437BD464D
:1016A8005DF8047B704700BF0C03045080B483B01E
:1016B80000AF78607B68DB6803F44063002B01D1DE
:1016C800012300E0002318460C37BD465DF8047B73
:1016D800704780B483B000AF786039607B681B6B5B
:1016E80023F00F023B681A437B681A6300BF0C376C
:1016F800BD465DF8047B704780B483B000AF786066
:1017080039607B68DB6823F003023B681A437B6817
:10171800DA6000BF0C37BD465DF8047B704780B4C3
:1017280083B000AF78607B68DB6C03F0C003002BEC
:1017380001D1012300E0002318460C37BD465DF8AF
:10174800047B704780B483B000AF78607B689B6887
:1017580023F0004323F03F0343F001027B689A60C3
:1017680000BF0C37BD465DF8047B704780B483B07A
:1017780000AF78607B689B6823F0004323F03F0349
:1017880043F002027B689A6000BF0C37BD465DF8E3
:10179800047B704780B483B000AF78607B689B6837
:1017A80003F00103012B01D1012300E000231846B7
:1017B8000C37BD465DF8047B704780B483B000AF3A
:1017C800786039607B689B6823F0404323F03F03CF
:1017D8003A6802F08042134343F000427B689A6003
:1017E80000BF0C37BD465DF8047B704780B483B0FA
:1017F80000AF78607B689B6803F00043B3F1004F4B
:1018080001D1012300E0002318460C37BD465DF8DE
:10181800047B704780B483B000AF78607B689B68B6
:1018280023F0004323F03F0343F004027B689A60EF
:1018380000BF0C37BD465DF8047B704780B483B0A9
:1018480000AF78607B689B6823F0004323F03F0378
:1018580043F008027B689A6000BF0C37BD465DF80C
:10186800047B704780B483B000AF78607B681B68E6
:1018780003F00803082B01D1012300E000231846D8
:101888000C37BD465DF8047B704780B483B000AF69
:1018980078607B681B6803F01003102B01D10123CB
:1018A80000E0002318460C37BD465DF8047B7047FE
:1018B80080B483B000AF78607B6810221A6000BFE4
:1018C8000C37BD465DF8047B704780B483B000AF29
:1018D80078607B685B6843F008027B685A6000BFE9
:1018E8000C37BD465DF8047B704780B483B000AF09
:1018F80078607B685B6843F040027B685A6000BF91
:101908000C37BD465DF8047B704780B483B000AFE8
:1019180078607B685B6823F008027B685A6000BFC8
:101928000C37BD465DF8047B704780B483B000AFC8
:1019380078607B685B6823F010027B685A6000BFA0
:101948000C37BD465DF8047B704780B483B000AFA8
:1019580078607B685B6823F040027B685A6000BF50
:101968000C37BD465DF8047B704780B483B000AF88
:1019780078607B685B6823F080027B685A6000BFF0
:101988000C37BD465DF8047B704780B483B000AF68
:1019980078607B685B6803F01003102B01D101238A
:1019A80000E0002318460C37BD465DF8047B7047FD
:1019B80080B483B000AF78607B685B6803F0800315
:1019C800802B01D1012300E0002318460C37BD46C7
:1019D8005DF8047B7047000080B485B000AF786084
:1019E80039607B68FB600C4A3B6813441B781A46D5
:1019F800FB6813441B6808493A680A441278114680
:101A0800FA680A4443F00103136000BF1437BD4667
:101A18005DF8047B704700BF2C07010880B485B0CF
:101A280000AF786039607B68FB600C4A3B68134400
:101A38001B781A46FB6813441B6808493A680A442D
:101A480012781146FA680A4423F00103136000BFB4
:101A58001437BD465DF8047B704700BF2C070108AA
:101A680080B485B000AF786039607B68FB60084A55
:101A78003B6813441B781A46FB6813441B6803F041
:101A8800200318461437BD465DF8047B704700BF35
:101A98002C07010880B487B000AFF860B9607A609D
:101AA800FB687B610D4ABB6813441B781A467B6947
:101AB80013445B681B0C1B040849BA680A44127873
:101AC80011467A690A4411467A6813434B6000BF8D
:101AD8001C37BD465DF8047B704700BF2C07010822
:101AE80080B487B000AFF860B9607A603B60FB688B
:101AF8007B613B6A102B14D1174ABB6813441B78CF
:101B08001A467B6913441A467B68D360124ABB683D
:101B180013441B781A467B6913441A463B68936042
:101B280013E00D4ABB6813441B781A467B691344BB
:101B38001A467B689360084ABB6813441B781A46A8
:101B48007B6913441A463B68D36000BF1C37BD4607
:101B58005DF8047B704700BF2C07010880B487B08C
:101B680000AFF860B9607A60FB687B61074ABB68C0
:101B780013441B781A467B6913441A467B689360A2
:101B880000BF1C37BD465DF8047B70472C07010871
:101B980080B483B000AF78607B681B6803F02003D3
:101BA800202B01D1012300E0002318460C37BD4645
:101BB8005DF8047B704780B483B000AF78607B68C1
:101BC80020225A6000BF0C37BD465DF8047B704781
:101BD80080B485B000AF786039607B68FB600C4AE0
:101BE8003B6813441B781A46FB6813441B68084972
:101BF8003A680A4412781146FA680A4443F0020324
:101C0800136000BF1437BD465DF8047B704700BF02
:101C18002C07010880B485B000AF786039607B6814
:101C2800FB600C4A3B6813441B781A46FB68134454
:101C38001B6808493A680A4412781146FA680A4447
:101C480043F00803136000BF1437BD465DF8047BFA
:101C5800704700BF2C07010880B485B000AF7860DA
:101C680039607B68FB600C4A3B6813441B781A4652
:101C7800FB6813441B6808493A680A4412781146FD
:101C8800FA680A4423F00203136000BF1437BD4604
:101C98005DF8047B704700BF2C07010880B485B04D
:101CA80000AF786039607B68FB600C4A3B6813447E
:101CB8001B781A46FB6813441B6808493A680A44AB
:101CC80012781146FA680A4423F00403136000BF2F
:101CD8001437BD465DF8047B704700BF2C07010828
:101CE80080B485B000AF786039607B68FB600C4ACF
:101CF8003B6813441B781A46FB6813441B68084961
:101D08003A680A4412781146FA680A4423F008032C
:101D1800136000BF1437BD465DF8047B704700BFF1
:101D28002C07010880B485B000AF786039607B6803
:101D3800FB600A4A3B6813441B781A46FB68134445
:101D48001B6803F00203022B01D1012300E00023EA
:101D580018461437BD465DF8047B70472C07010808
:101D680080B584B000AF78600123FB817B681B6974
:101D78001846FFF79BFC0346002B2FD07B685B7A45
:101D8800DBB2022B11D07B685B7ADBB2042B0CD060
:101D98007B685B7ADBB2082B07D07B681B69184627
:101DA800FFF760FD0346012B18D1786800F0F8F8BA
:101DB8000346002B12D17B685B7ADBB2082B03D178
:101DC8007B6801225A7202E07B6820225A727B6883
:101DD8001B691846FFF71EFD0023FB81FB89184687
:101DE8001037BD4680BD80B586B002AFF860B960D7
:101DF8007A603B600021F868FFF740FC03461A460A
:101E08007968B868FFF7AAFE0021F868FFF736FC82
:101E180002463B68002100917968B868FFF760FEC8
:101E2800BA697968B868FFF735FE7968B868FFF766
:101E3800CFFE7968B868FFF7EDFE7968B868FFF7F4
:101E4800CBFD00BF1037BD4680BD80B584B000AF64
:101E5800F860B9607A607968B868FFF7DFFD79687B
:101E6800B868FFF71BFF7968B868FFF739FF79682A
:101E7800B868FFF7F1FE00227968B868FFF70AFE34
:101E880000BF1037BD4680BD80B584B000AF786014
:101E980039600223FB737B68DB79012B0FD17B68E8
:101EA800DA687B681B685B00D118FB7B7A6812686C
:101EB80002FB03F31A4638680EF0EEFB0AE07B6873
:101EC800D968FB7B7A68126802FB03F31A46386804
:101ED8000EF0E2FB00BF1037BD4680BD80B586B06E
:101EE80000AFF860B9607A60FB685A69FB689B7953
:101EF80019461046FFF716FF0346DBB2012B37D110
:101F0800FB685A69BB68104698470346012B2FD1D6
:101F1800FB6804225A72FB685A697B681046984726
:101F2800FB685A69FB689B7919461046FFF798FDCC
:101F38000346002B19D1FB685A69FB689B7919463F
:101F48001046FFF76BFDFB685869FB689B791946DB
:101F5800FB681B681A46FFF79DFDFB685A69FB681A
:101F68009B7919461046FFF737FD0123FB7501E001
:101F78000023FB75FB7D18461837BD4680BD000061
:101F880080B500AF034A04490448FFF7A7FF00BF24
:101F980080BD00BFBF1B0008991B00087803002004
:101FA80080B582B000AF78607B681B691846FFF780
:101FB8006CFC0346DBB2012B07D17B681B69184612
:101FC800FFF776FC7B6810225A727B685B7ADBB27B
:101FD800102B0CBF01230023DBB218460837BD467F
:101FE80080BD80B582B000AF78600B46FB70FB788F
:101FF800012B0DD17B681B691846FFF757FB034679
:10200800012B12D07B681B691846FFF703FC0CE014
:102018007B681B691846FFF782FB0346012B04D037
:102028007B681B691846FFF709FC00BF0837BD46E7
:1020380080BD000090B589B002AFF860084611462F
:102048001A4603467B810B463B811346FB800023DF
:102058007B61FB681B693C4A934201D13B4B7B6126
:102068007B69002B6BD0FB681A697B691A617B69F5
:102078000022DA71FB88012B61D03B89002B47D005
:102088007B695B7ADBB2082B42D0FB68DA687B6934
:10209800DA60FB681A687B691A60FB685A697B69B1
:1020A8005A61FB689A797B699A71FB681A797B692E
:1020B8001A717B691B69B96A1846FFF70AFB7B89A5
:1020C800012B21D07B89042B16D17B691B69032145
:1020D8001846FFF711FB7B6918697B6959697B69A9
:1020E8009B791C467B69DA687B691B6800931346F9
:1020F8002246FFF778FE07E07B89022B04D17B6933
:102108001B691846FFF7E1FB7B6908225A7216E043
:102118003B89002B13D17B699B7ADBB2082B0ED04D
:10212800FB685A797B695A717B89022B04D17B69D8
:102138001B691846FFF7D9FB7B6908229A727B69ED
:1021480018461C37BD4690BD000104507803002096
:1021580080B582B000AF78607B681B691846FFF7CE
:1021680019FB0346002B04D17B681B691846FFF74F
:10217800E9FA00BF0837BD4680BD80B586B000AF1C
:10218800F8600B467A607B810123FB82FB681B6940
:10219800002B46D07B89012B05D1F868FFF7E0FDBD
:1021A8000346FB823DE07B89042B1FD1FB681B693A
:1021B8001846FFF77BFA0346002B32D0FB68012252
:1021C8005A72FB681B691846FFF724FB00BFFB68BF
:1021D8005B7ADBB2042BFAD17968F868FFF754FE12
:1021E800FB6808225A720023FB821AE07B89022BC3
:1021F80017D1FB685B7ADBB2202B09D0FB685B7ACE
:10220800DBB2042B04D0FB685B7ADBB2102B08D15D
:10221800FB6808225A727968F868FFF735FE0023D0
:10222800FB82FB8A18461837BD4680BD80B582B050
:1022380000AF78600B467B8013463B807B681B6948
:102248001846FFF7A7FA0346002B04D07B681B69E2
:102258001846FFF78BFA7B681B691846FFF7A8FB3F
:102268000346002B04D07B681B691846FFF77DFBEB
:102278007B681B691846FFF788FB0346002B04D0D0
:102288007B681B691846FFF750FB3B88002B38D04A
:102298007B88012B1AD07B88022B05D17B681B69B0
:1022A8001846FFF732FB11E07B88042B0ED17B68C0
:1022B80018697B6859697B689B791A46FFF7C5FDE1
:1022C8007B681B6900211846FFF716FA7B68002215
:1022D800DA607B6800221A607B6800225A617B689A
:1022E80000229A717B6800221A717B6840225A7218
:1022F8007B681A697B681B7919461046FFF7E9F96C
:102308000DE07B6800225A717B6840229A727B88B4
:10231800022B04D17B681B691846FFF716FB00BF28
:102328000837BD4680BD000080B584B000AF786036
:102338000B46FB707B681B691846FFF72BFA0346B0
:10234800FB7397F90F30012B04D17B681B69184682
:10235800FFF70CFAFB78002B0FD17B681B697F21F4
:102368001846FFF72AFA00BF7B681B691846FFF773
:102378003DFA0346012BF7D040E0FB78012B0FD143
:102388007B681B692C491846FFF717FA00BF7B6862
:102398001B691846FFF72AFA0346012BF7D02DE0F0
:1023A8007B681B697F211846FFF707FA00BF7B6827
:1023B8001B691846FFF71AFA0346012BF7D00023CA
:1023C800BB8107E000BFBB891BB29BB201339BB244
:1023D8001BB2BB81BB891BB29BB2032BF2D97B68B2
:1023E8001B6915491846FFF7E8F900BF7B681B69A8
:1023F8001846FFF7FBF90346012BF7D00023BB81F2
:1024080007E000BFBB891BB29BB201339BB21BB272
:10241800BB81BB891BB29BB2032BF2D997F90F3052
:10242800012B04D17B681B691846FFF78BF900BFA5
:102438001037BD4680BD00BF00007F4080B483B028
:1024480000AF78607B681B6843F001027B681A6004
:1024580000BF0C37BD465DF8047B704780B483B07D
:1024680000AF78607B681B6823F001027B681A6004
:1024780000BF0C37BD465DF8047B704780B483B05D
:1024880000AF786039607B681B6823F004023B6802
:102498001A437B681A6000BF0C37BD465DF8047BA1
:1024A800704780B483B000AF78607B681B6803F026
:1024B800040318460C37BD465DF8047B704780B4AA
:1024C80083B000AF78607B68DB6A18460C37BD467E
:1024D8005DF8047B704780B483B000AF78603960E2
:1024E8007B683A681A6300BF0C37BD465DF8047B09
:1024F800704780B483B000AF786039607B683A6811
:102508005A6300BF0C37BD465DF8047B704780B442
:1025180083B000AF786039607B683A689A6300BF1F
:102528000C37BD465DF8047B704780B483B000AFBC
:10253800786039607B683A68DA6300BF0C37BD465B
:102548005DF8047B704780B483B000AF7860396071
:102558007B683A681A6400BF0C37BD465DF8047B97
:10256800704780B483B000AF78607B685B6B1846B7
:102578000C37BD465DF8047B704780B483B000AF6C
:1025880078607B689B6B18460C37BD465DF8047B0A
:10259800704780B483B000AF78607B68DB6B184607
:1025A8000C37BD465DF8047B704780B483B000AF3C
:1025B80078607B681B6C18460C37BD465DF8047B59
:1025C800704780B483B000AF78607B685B6943F084
:1025D80001027B685A6100BF0C37BD465DF8047B79
:1025E800704780B483B000AF78607B681B69184679
:1025F8000C37BD465DF8047B704780B483B000AFEC
:10260800786039607B683A689A6100BF0C37BD46CC
:102618005DF8047B704780B483B000AF78603960A0
:102628007B683A689A6200BF0C37BD465DF8047B48
:102638007047000080B584B000AF786087ED000A6D
:10264800D7ED007AF5EEC07AF1EE10FA03D54FF027
:1026580000033B600AE0D7ED007A9FED167AF4EEAE
:10266800C77AF1EE10FA01DD134B3B607B681B68FB
:102678001846FFF724FFF8607B681B79002B0CBF16
:1026880001230023DBB21A46FB68134407EE903A95
:10269800B8EE677AD7ED007A27EE277ADFED056A7C
:1026A800C7EE267AFCEEE77A17EE903A184610370E
:1026B800BD4680BD0000C8420000C84280B582B057
:1026C80000AF786039607B681B681846FFF749FFE0
:1026D80002463B68934205D07B681B6839681846F8
:1026E800FFF707FF00BF0837BD4680BD80B582B041
:1026F80000AF786039607B681B681846FFF73DFFBC
:1027080002463B68934205D07B681B6839681846C7
:10271800FFF7FDFE00BF0837BD4680BD80B582B01B
:1027280000AF786039607B681B681846FFF731FF97
:1027380002463B68934205D07B681B683968184697
:10274800FFF7F3FE00BF0837BD4680BD80B582B0F5
:1027580000AF786039607B681B681846FFF725FF73
:1027680002463B68934205D07B681B683968184667
:10277800FFF7E9FE00BF0837BD4680BD80B584B0CD
:1027880000AF786087ED000A97ED000A7868FFF7D8
:1027980051FFF860F9687868FFF790FF00BF1037BD
:1027A800BD4680BD80B584B000AF786087ED000A73
:1027B80097ED000A7868FFF73DFFF860F9687868D8
:1027C800FFF794FF00BF1037BD4680BD80B584B0C9
:1027D80000AF786087ED000A97ED000A7868FFF788
:1027E80029FFF860F9687868FFF798FF00BF10378D
:1027F800BD4680BD80B584B000AF786087ED000A23
:1028080097ED000A7868FFF715FFF860F9687868AF
:10281800FFF79CFF00BF1037BD4680BD80B485B070
:1028280000AF78607B681B689A68074B1340FB60B1
:10283800FB68062B0CBF01230023DBB218461437B4
:10284800BD465DF8047B70470700010080B584B081
:1028580000AF78600B46FB707B681B681846FFF773
:1028680020FEF860FB78002B1ED07B681B68324A7C
:10287800934213D07B681B68304A93420ED07B6822
:102888001B682F4A934209D07B681B682D4A9342E4
:1028980004D07B681B682C4A934205D17B681B686F
:1028A80000211846FFF717FEFB68042B11D07B6840
:1028B8001B6804211846FFF7E1FD7B681B68184672
:1028C800FFF77FFE7B681B68F9681846FFF7D6FD9F
:1028D80004E07B681B681846FFF773FE7B681B687B
:1028E8001846FFF7ABFDFB78002B20D07B681B68F0
:1028F800114A934213D07B681B68104A93420ED04A
:102908007B681B680E4A934209D07B681B680D4A96
:10291800934204D07B681B680B4A934207D17B68BB
:102928001A687B685B7919461046FFF7D4FD00BF2B
:102938001037BD4680BD00BF002C01400034014067
:1029480000400140004401400048014080B582B089
:1029580000AF78607B681B681846FFF77FFD00BFF3
:102968000837BD4680BD000080B483B000AF7860F2
:10297800074B5B79002B0CBF01230023DAB27B687D
:1029880001331A7000BF0C37BD465DF8047B7047F1
:102998002817002080B400AF0C4B5B79002B0CBFCC
:1029A80001230023DAB2094B9A71084B5A79013294
:1029B800D2B25A71054B5B79012B02D9034B002225
:1029C8005A7100BFBD465DF8047B70472817002088
:1029D80080B485B000AF786039607B68012283F8E5
:1029E800D8203B68D3E900237968C1E902237B68D2
:1029F80001221A600023FB600CE07B68D3E9022304
:102A08007868F9680231C9000144C1E90023FB680C
:102A18000133FB60FB68182BEFDD00BF00BF1437E4
:102A2800BD465DF8047B704780B5B8B000AF87ED50
:102A3800040BF860B9607A60BB68D3E902017B686F
:102A4800D3E90023FDF7C0FF0346002B05D17B68BF
:102A5800D3E90023B968C1E90223F868BB681033D9
:102A6800C82219460DF018FED7E90423C7E9062342
:102A7800BB6803F1100107F118030833C022184698
:102A88000DF00AFEBB68103307F11801C82218467A
:102A98000DF002FE00BFE037BD4680BD80B485B0B2
:102AA80000AF786039607B68012283F860203B685A
:102AB800D3E900237968C1E902237B6801221A60FF
:102AC8000023FB600CE07B68D3E902237868F9688F
:102AD8000231C9000144C1E90023FB680133FB60EE
:102AE800FB68092BEFDD00BF00BF1437BD465DF85A
:102AF800047B704780B59AB000AF87ED040BF8608F
:102B0800B9607A60BB68D3E902017B68D3E9002326
:102B1800FDF75AFF0346002B05D17B68D3E9002354
:102B2800B968C1E90223F868BB6810335022194616
:102B38000DF0B2FDD7E90423C7E90623BB6803F10A
:102B4800100107F118030833482218460DF0A4FDB8
:102B5800BB68103307F11801502218460DF09CFD90
:102B680000BF6837BD4680BD80B485B000AF7860CF
:102B780039607B68012283F8D8203B68D3E90023B9
:102B88007968C1E902237B6801221A600023FB608F
:102B98000CE07B68D3E902237868F9680231C90040
:102BA8000144C1E90023FB680133FB60FB68182B73
:102BB800EFDD00BF00BF1437BD465DF8047B7047EA
:102BC80080B5B8B000AF87ED040BF860B9607A60E3
:102BD800BB68D3E902017B68D3E90023FDF7F4FE63
:102BE8000346002B05D17B68D3E90023B968C1E906
:102BF8000223F868BB681033C82219460DF04CFD53
:102C0800D7E90423C7E90623BB6803F1100107F1DC
:102C180018030833C02218460DF03EFDBB68103378
:102C280007F11801C82218460DF036FD00BFE0373D
:102C3800BD4680BD80B58CB002AF78607B6800224D
:102C48001A727B6801225A607B681033BB610023CB
:102C58007B741A4BFB611A4B3B620123BB74002344
:102C680087F82430022387F825300923FB600923DD
:102C78003B7407F10C00082300930423012204216C
:102C8800FFF7D8F902467B68DA607B68DB680221C7
:102C98001846FFF749FB7B68DB681846FFF758FAC8
:102CA8007B68DB6801211846FFF79BF97B680122E6
:102CB8001A7200BF2837BD4680BD00BF000104500E
:102CC8000000024080B5A6B000AF78601A4BBB6028
:102CD80000233B7300237B7307F108031846FEF7B4
:102CE80055FC02467B68DA607B68DB680021184681
:102CF800FEF707F97B68DB6802211846FEF736FA0B
:102D08007B68DB6802211846FEF7D0FA7B68DB682F
:102D18001846FFF783FD034687F8973097F89730F2
:102D2800002B05D17B68DB6800211846FFF78EFD74
:102D380000BF9837BD4680BD0004004080B5A6B0EE
:102D480000AF78601A4BBB6000233B7300237B7392
:102D580007F108031846FEF719FC02467B68DA609B
:102D68007B68DB6800211846FEF7CBF87B68DB68D8
:102D780002211846FEF73AFB7B68DB6802211846F9
:102D8800FEF7DCFB7B68DB681846FFF747FD034668
:102D980087F8973097F89730002B05D17B68DB6868
:102DA80000211846FFF752FD00BF9837BD4680BD89
:102DB8000004004000000000B0B5B0B000AFFFF75D
:102DC800E9FDA34BDB68A34A04211846FFF7D5F9B0
:102DD8009F4BB3F87430A7F88A309E4BDB899E4A24
:102DE800A2F880309B4B1B889B4AA2F88E30994BE7
:102DF8009B89994AA2F88230964B5B88964AA2F83A
:102E08008C30944B5B89944AA2F88430914B9B8810
:102E1800914AA2F88A308F4B1B898F4AA2F88630D4
:102E28008C4BDB888C4AA2F888300023C7F88C309A
:102E380013E0894AD7F88C30403332F81320D7F89A
:102E48008C305B00603307F160010B4423F8602C81
:102E5800D7F88C300133C7F88C30D7F88C30072B73
:102E6800E7DDB7F862301846FDF7CCFA04460D46A0
:102E78007A4A7B497B4845EC104BFFF73BFE764B83
:102E880003F5DC63D3E90023C7E92E230023C7F841
:102E98008C301CE0D7F88C3001336F4ADC33DB0010
:102EA8001344D3E90023C7E92023D7E92023D7E92E
:102EB8002E01FDF793FD0346002B03D0D7E920230D
:102EC800C7E92E23D7F88C300133C7F88C30D7F8F0
:102ED8008C30082BDEDD644A6449654897ED2E0B7B
:102EE800FFF7A2FD5C4B03F5056353E90223C7E92D
:102EF80024230023C7F88C301DE0D7F88C30013329
:102F0800554A03F20913DB001344D3E90023C7E948
:102F18002023D7E92023D7E92401FDF77DFD0346C7
:102F2800002B03D0D7E92023C7E92423D7F88C3016
:102F38000133C7F88C30D7F88C30172BDDDDB7F8A4
:102F480064301846FDF75EFA04460D46494A4A4978
:102F58004A4845EC104BFFF767FD3F4B03F592637A
:102F680053E90223C7E92E230023C7F88C301CE05D
:102F7800D7F88C300133384A9133DB001344D3E956
:102F88000023C7E92023D7E92023D7E92E01FDF73D
:102F980025FD0346002B03D0D7E92023C7E92E23BC
:102FA800D7F88C300133C7F88C30D7F88C30172B12
:102FB800DEDDB7F866301846FDF724FA04460D46FC
:102FC8002F4A3049304845EC104BFFF72DFD224B76
:102FD800D3E9BE23C7E92C230023C7F88C301CE0B3
:102FE800D7F88C3001331C4A5F33DB001344D3E934
:102FF8000023C7E92023D7E92023D7E92C01FDF7CF
:10300800EDFC0346002B03D0D7E92023C7E92C2386
:10301800D7F88C300133C7F88C30D7F88C30172BA1
:10302800DEDDB7F868301846FDF7ECF904460D46C2
:10303800164A1749174845EC104BFFF7F5FC064BA5
:10304800D3E98C23C7E92A230023C7F88C3040E052
:10305800180D0020B403002008040020D000002030
:1030680098140020E80A0020E800002048160020F4
:10307800500C0020B8000020F81100209008002013
:10308800A80000203810002000070020A000002021
:10309800580F002038060020D7F88C300133B64A84
:1030A8004633DB001344D3E90023C7E92023D7E9DB
:1030B8002023D7E92A01FDF791FC0346002B03D012
:1030C800D7E92023C7E92A23D7F88C300133C7F87A
:1030D8008C30D7F88C30172BDEDDB7F86A301846FD
:1030E800FDF790F904460D46A44AA549A54845ECC4
:1030F800104BFFF799FCA04BD3E95A23C7E92823C3
:103108000023C7F88C301CE0D7F88C3001339A4A7A
:103118002D33DB001344D3E90023C7E92023D7E983
:103128002023D7E92801FDF759FC0346002B03D0DB
:10313800D7E92023C7E92823D7F88C300133C7F80B
:103148008C30D7F88C30172BDEDDB7F86C3018468A
:10315800FDF758F904460D468B4A8C498C4845ECD6
:10316800104BFFF7C7FC844B03F5E663D3E9002354
:10317800C7E926230023C7F88C301CE0D7F88C3029
:1031880001337D4AE633DB001344D3E90023C7E962
:103198002023D7E92023D7E92601FDF71FFC0346A2
:1031A800002B03D0D7E92023C7E92623D7F88C3092
:1031B8000133C7F88C30D7F88C30082BDEDD754A20
:1031C8007549764897ED260BFFF72EFC6A4B03F5F9
:1031D800F063D3E90023C7E926230023C7F88C301E
:1031E8001CE0D7F88C300133634AF033DB0013441A
:1031F800D3E90023C7E92023D7E92023D7E926010B
:10320800FDF70AFC0346002B03D0D7E92023C7E9C2
:103218002623D7F88C300133C7F88C30D7F88C3098
:10322800172BDEDD5E4BB3F87630A7F888305D4AA1
:10323800B7F88A30138097ED240B0CF0F1FFB0EE4D
:10324800407AF0EE607A9FED4A1BB0EE470AF0EE46
:10325800670A0CF0ADFF87ED200B4FF000024FF02E
:103268000003D7E92001FDF7B9FB0346002B10D076
:10327800D7F88030BB65D7F8843083F00043FB650E
:10328800D7E91601FDF7E8FB03469BB25B429BB208
:1032980005E0D7E92001FDF7DFFB03469BB2414A71
:1032A800538097ED2E0B0CF0BBFFB0EE407AF0EE9A
:1032B800607A9FED2F1BB0EE470AF0EE670A0CF01C
:1032C80077FF87ED200B4FF000024FF00003D7E99E
:1032D8002001FDF783FB0346002B10D0D7F8803080
:1032E8003B65D7F8843083F000437B65D7E9140148
:1032F800FDF7B2FB03469BB25B429BB205E0D7E900
:103308002001FDF7A9FB03469BB2264A938097ED5F
:103318002C0B0CF085FFB0EE407AF0EE607A9FED52
:10332800141BB0EE470AF0EE670A0CF041FF87ED78
:10333800200B4FF000024FF00003D7E92001FDF702
:103348004DFB0346002B2FD0D7F88030BB64D7F84D
:10335800843083F00043FB64D7E91201FDF77CFB5E
:1033680003469BB25B429BB224E000BFAFF30080F0
:10337800000000000000F040080400209800002031
:10338800780E002070050020D800002000150020CD
:10339800380B0020E000002068150020880B002072
:1033A800180D0020C8030020D7E92001FDF754FBC1
:1033B80003469BB2724AD38097ED2A0B0CF030FF7C
:1033C800B0EE407AF0EE607A9FED6B1BB0EE470AE4
:1033D800F0EE670A0CF0ECFE87ED200B4FF00002D0
:1033E8004FF00003D7E92001FDF7F8FA0346002B58
:1033F80010D0D7F880303B64D7F8843083F000438E
:103408007B64D7E91001FDF727FB03469BB25B42BB
:103418009BB205E0D7E92001FDF71EFB03469BB2EE
:10342800574A138197ED280B0CF0FAFEB0EE407A5C
:10343800F0EE607A9FED501BB0EE470AF0EE670A97
:103448000CF0B6FE87ED200B4FF000024FF00003A2
:10345800D7E92001FDF7C2FA0346002B10D0D7F8B0
:103468008030BB63D7F8843083F00043FB63D7E92F
:103478000E01FDF7F1FA03469BB25B429BB205E0F1
:10348800D7E92001FDF7E8FA03469BB23C4A53818D
:1034980097ED260B0CF0C4FEB0EE407AF0EE607AA1
:1034A8009FED351BB0EE470AF0EE670A0CF080FE80
:1034B80087ED200B4FF000024FF00003D7E9200101
:1034C800FDF78CFA0346002B10D0D7F880303B6309
:1034D800D7F8843083F000437B63D7E90C01FDF70C
:1034E800BBFA03469BB25B429BB205E0D7E92001D9
:1034F800FDF7B2FA03469BB2214A9381204AB7F8F6
:103508008830D3811F4BB3F87C301D4A13821E4B81
:10351800B3F87830A7F88A30B7F862301846FCF765
:1035280071FF04460D46194A19491A4845EC104BD3
:10353800FFF77AFA184B03F5C46353E90223C7E986
:103548002423154B03F5926353E90223C7E9262385
:10355800114BD3E9BE23C7E92E230F4BD3E98C23A4
:10356800C7E92C230C4BD3E95A23C7E92A230023A4
:10357800C7F88C308FE000BF000000000000F0406A
:10358800C803002000000020180D0020C8000020FB
:10359800B8130020200A002008040020D7F88C3037
:1035A8000133B14AC333DB001344D3E90023C7E92D
:1035B8002023D7E92023D7E92401FDF72DFA034674
:1035C800002B03D0D7E92023C7E92423D7F88C3070
:1035D8000133A54A9133DB001344D3E90023C7E93B
:1035E8002023D7E92023D7E92601FDF715FA03465A
:1035F800002B03D0D7E92023C7E92623D7F88C303E
:103608000133994A5F33DB001344D3E90023C7E948
:103618002023D7E92023D7E92E01FDF7FDF903463A
:10362800002B03D0D7E92023C7E92E23D7F88C3005
:1036380001338D4A4633DB001344D3E90023C7E93D
:103648002023D7E92023D7E92C01FDF7E5F9034624
:10365800002B03D0D7E92023C7E92C23D7F88C30D7
:103668000133814A2D33DB001344D3E90023C7E932
:103678002023D7E92023D7E92A01FDF7CDF903460E
:10368800002B03D0D7E92023C7E92A23D7F88C30A9
:103698000133C7F88C30D7F88C30172B7FF77EAF03
:1036A800B7F86C301846FCF7ADFE04460D466F4A75
:1036B8006F49704845EC104BFFF7B6F96A4B03F5B4
:1036C800AA63D3E90023C7E928230023C7F88C306D
:1036D8001CE0D7F88C300133634AAA33DB0013446B
:1036E800D3E90023C7E92023D7E92023D7E9280114
:1036F800FDF792F90346002B03D0D7E92023C7E949
:103708002823D7F88C300133C7F88C30D7F88C30A1
:10371800172BDEDD584BB3F87A30A7F88830574AB4
:10372800B7F88A30138097ED240B0CF079FDB0EED2
:10373800407AF0EE607A9FED4A1BB0EE470AF0EE51
:10374800670A0CF035FD87ED200B4FF000024FF0B3
:103758000003D7E92001FDF741F90346002B10D0FB
:10376800D7F88030BB62D7F8843083F00043FB621F
:10377800D7E90A01FDF770F903469BB25B429BB299
:1037880005E0D7E92001FDF767F903469BB23B4AFC
:10379800538097ED260B0CF043FDB0EE407AF0EE27
:1037A800607A9FED2F1BB0EE470AF0EE670A0CF027
:1037B800FFFC87ED200B4FF000024FF00003D7E924
:1037C8002001FDF70BF90346002B10D0D7F8803005
:1037D8003B62D7F8843083F000437B62D7E9080165
:1037E800FDF73AF903469BB25B429BB205E0D7E985
:1037F8002001FDF731F903469BB2204A938097EDEB
:103808002E0B0CF00DFDB0EE407AF0EE607A9FEDD5
:10381800141BB0EE470AF0EE670A0CF0C9FC87EDFE
:10382800200B4FF000024FF00003D7E92001FDF70D
:10383800D5F80346002B23D0D7F88030BB61D7F8E2
:10384800843083F00043FB61D7E90601FDF704F9F2
:1038580003469BB25B429BB218E000BFAFF3008007
:10386800000000000000F04008040020C000002014
:10387800D812002058090020180D0020DC03002071
:10388800D7E92001FDF7E8F803469BB29A4AD380AE
:1038980097ED2C0B0CF0C4FCB0EE407AF0EE607A99
:1038A8009FED931BB0EE470AF0EE670A0CF080FC20
:1038B80087ED200B4FF000024FF00003D7E92001FD
:1038C800FDF78CF80346002B10D0D7F880303B6109
:1038D800D7F8843083F000437B61D7E90401FDF712
:1038E800BBF803469BB25B429BB205E0D7E92001D7
:1038F800FDF7B2F803469BB27F4A138197ED2A0B76
:103908000CF08EFCB0EE407AF0EE607A9FED781BFA
:10391800B0EE470AF0EE670A0CF04AFC87ED200B80
:103928004FF000024FF00003D7E92001FDF756F8E9
:103938000346002B10D0D7F88030BB60D7F884300E
:1039480083F00043FB60D7E90201FDF785F80346E1
:103958009BB25B429BB205E0D7E92001FDF77CF8FA
:1039680003469BB2644A538197ED280B0CF058FC30
:10397800B0EE407AF0EE607A9FED5D1BB0EE470A3C
:10398800F0EE670A0CF014FC87ED200B4FF00002F4
:103998004FF00003D7E92001FDF720F80346002B7C
:1039A80010D0D7F880303B60D7F8843083F00043DC
:1039B8007B60D7E90001FDF74FF803469BB25B42F5
:1039C8009BB205E0D7E92001FDF746F803469BB214
:1039D800494A9381484AB7F88830D381474BB3F8AE
:1039E8008220454B1A82464B9B79002B13D0B7F89F
:1039F80060301846FCF706FD02460B464149C1E90E
:103A08001823B7F86E301846FCF7FCFC02460B4644
:103A18003C49C1E91A230023C7F88C3010E03A4A20
:103A2800D7F88C30134400221A70384AD7F88C30F3
:103A3800002122F81310D7F88C300133C7F88C30E6
:103A4800D7F88C30072BEADD314B00221A60314B56
:103A580000221A603048FEF7C4FDF867FB6F03F0D8
:103A68000403002B0CBF01230023DBB287F87B3053
:103A78002A48FEF7B6FDF867224BB3F87C3040F2CF
:103A8800FE72934207D81F4BB3F87C3001339AB2C9
:103A98001C4BA3F87C201B4B93F8713003F00103F7
:103AA800DBB2002B0FD1174A92F8713043F00103B3
:103AB80082F87130134A92F87030042161F30203DE
:103AC80082F870306BE30F4B93F87030C3F3020346
:103AD800DBB2013B032B00F2218301A252F823F051
:103AE800293B0008CF3B0008A93C00089B3F000881
:103AF800000000000000F040DC030020000000206F
:103B080028170020180D002000040020F0030020D2
:103B1800AC030020B0030020000400480010004857
:103B2800A34B002283F89D20A14B002283F89E20FE
:103B38009F494FF000029F4BC1E910239C494FF069
:103B480000029C4BC1E9122399494FF00002994B9E
:103B5800C1E9142396494FF00002964BC1E9162398
:103B680093494FF000024FF00003C1E91823904930
:103B78004FF000024FF00003C1E91A238C494FF0BF
:103B880000024FF00003C1E91C2389494FF00002ED
:103B98004FF00003C1E91E23874BB3F87C30632B39
:103BA80040F2FC82844A92F87030022161F30203E9
:103BB80082F870307E4B0022A3F898207C4B0022BC
:103BC800A3F89A20EAE2FB6F03F04003002B5AD1D6
:103BD800794A92F87030032161F3020382F8703059
:103BE80073494FF00002734BC1E9102370494FF03D
:103BF8000002704BC1E912236D494FF000026D4B72
:103C0800C1E914236A494FF000026A4BC1E916233F
:103C180067494FF000024FF00003C1E918236449D7
:103C28004FF000024FF00003C1E91A2360494FF03A
:103C380000024FF00003C1E91C235D494FF0000268
:103C48004FF00003C1E91E235B4A92F8703001214E
:103C580061F3C50382F87030554B002283F89C202D
:103C6800534B012283F89D20514B002283F89E205C
:103C78004F4B4FF6B572A3F898204D4B4FF6B572DF
:103C8800A3F89A208BE24A4B93F89C30002B0CBF88
:103C980001230023DBB21A46454B83F89C207EE2C1
:103CA80043494FF00002434BC1E9102340494FF00C
:103CB8000002404BC1E912233D494FF000023D4B41
:103CC800C1E914233A494FF000023A4BC1E91623DF
:103CD80037494FF000024FF00003C1E91823344977
:103CE8004FF000024FF00003C1E91A2330494FF0AA
:103CF80000024FF00003C1E91C232D494FF00002D8
:103D08004FF00003C1E91E2397F87B30002B3ED00B
:103D1800294A92F8703023F0C00382F87030264A9E
:103D280092F8703023F0380382F87030224A92F803
:103D38007030052161F3020382F870301C4B0022B9
:103D480083F89C201A494FF000024FF00003C1E9A4
:103D5800102317494FF000024FF00003C1E9122366
:103D680013494FF000024FF00003C1E91423104932
:103D78004FF000024FF00003C1E916230C4B00225C
:103D8800A3F898200A4B0022A3F89A2007E20A4BCE
:103D980093F87030C3F3C203DBB2032B00F09C80AE
:103DA800032B00F3C780012B08D0022B51D0C1E0B0
:103DB800080400200000F03F180D00209E4B01224F
:103DC80083F89D209C4B002283F89E209A4BB3F8E1
:103DD8008A3040F60A72934219D9984A92F870309C
:103DE800032161F3C50382F87030934B012283F8F5
:103DF8009E20914B002283F89D208F4B0022A3F830
:103E080098208D4B4FF6B572A3F89A20BBE08A4BE9
:103E1800B3F8843040F63C72934240F2B480874A4B
:103E280092F87030042161F3C50382F87030824B38
:103E3800012283F89C20804B002283F89D207E4B32
:103E48004FF6B572A3F898207B4B0022A3F89A206E
:103E580099E07A4B93F87030C3F38113DBB2012BEE
:103E680002D0022B32D016E0744BB3F87C30B3F595
:103E7800966F2DD3714A92F87030022161F387133F
:103E880082F870306C4B0022A3F898206A4B00220D
:103E9800A3F89A201CE0694BB3F87C30092B19D998
:103EA800664B0022A3F87C20644A92F87030012106
:103EB80061F3871382F870305F4B4FF6B572A3F841
:103EC80098205D4B4B22A3F89A2003E000BF5FE0E7
:103ED80000BF5DE000BF5BE0574B012283F89E20E6
:103EE800554B002283F89D20534BB3F88A3040F697
:103EF800D762934249D8514A92F87030012161F350
:103F0800C50382F870304C4B002283F89C204A4B42
:103F1800012283F89D20484B002283F89E20464BBF
:103F28004FF6B572A3F89820434B4FF6B572A3F835
:103F38009A202AE0404B002283F89D203E4BB3F89C
:103F48008430B3F5616F22D93C4A92F87030012170
:103F580061F3C50382F87030374B002283F89C2048
:103F6800354B012283F89D20334B002283F89E2095
:103F7800314B4FF6B572A3F898202F4B4FF6B57218
:103F8800A3F89A2003E000BF09E100BF07E100BFE2
:103F980005E1FB6F03F04003002B53D1274B0022B0
:103FA800A3F87C20254A92F87030012161F30203BE
:103FB80082F87030204B012283F89C201E4B00228F
:103FC80083F89D201C4B002283F89E201A494FF04D
:103FD80000021B4BC1E9102317494FF00002184B90
:103FE800C1E9122314494FF00002154BC1E914230B
:103FF80011494FF00002124BC1E916230E494FF048
:1040080000024FF00003C1E918230B494FF00002EA
:104018004FF00003C1E91A2307494FF000024FF09F
:104028000003C1E91C2304494FF000024FF00003CC
:10403800C1E91E23B3E000BF08040020180D0020CA
:104048000000F03F97F87B30002B5AD0504A92F886
:104058007030032161F3020382F870304D494FF04C
:1040680000024D4BC1E910234A494FF000024A4B68
:10407800C1E9122347494FF00002474BC1E9142315
:1040880044494FF00002444BC1E9162341494FF01F
:1040980000024FF00003C1E918233E494FF0000227
:1040A8004FF00003C1E91A233A494FF000024FF0DC
:1040B8000003C1E91C2337494FF000024FF0000309
:1040C800C1E91E23324A92F87030012161F3C50319
:1040D80082F870302F4B002283F89C202D4B012250
:1040E80083F89D202B4B002283F89E20294B4FF606
:1040F800B572A3F89820274B4FF6B572A3F89A200B
:104108004DE0244B93F89C30002B0CBF0123002377
:10411800DBB21A461F4B83F89C2040E01D494FF044
:1041280000024FF00003C1E910231A494FF00002C2
:104138004FF00003C1E9122316494FF000024FF077
:104148000003C1E9142313494FF000024FF00003A4
:10415800C1E916230F494FF000024FF00003C1E9EF
:1041680018230C494FF000024FF00003C1E91A234D
:1041780008494FF000024FF00003C1E91C2305492C
:104188004FF000024FF00003C1E91E2307E000BF13
:10419800180D0020080400200000F03F00BFA24BCB
:1041A800D3E91001A14BD3E91623FBF7EDFF024633
:1041B8000B469E49C1E916239D4BD3E91C014FF0DC
:1041C80000024FF00003FCF727FC0346002B05D044
:1041D800964BD3E916239649C1E90223944BD3E9B8
:1041E80014014FF000024FF00003FCF715FC0346E2
:1041F800002B05D08D4BD3E916238D49C1E90A233D
:104208008B4BD3E910014FF000024FF00003FCF78D
:1042180003FC0346002B05D0844BD3E916238449BD
:10422800C1E90E23824BD3E918014FF000024FF089
:104238000003FCF7F1FB0346002B05D07B4BD3E9C9
:1042480016237B49C1E90623794BD3E91A014FF0BC
:1042580000024FF00003FCF7DFFB0346002B05D0FC
:10426800724BD3E916237249C1E90423704BD3E991
:1042780012014FF000024FF00003FCF7CDFB03469C
:10428800002B05D0694BD3E916236949C1E90C23F2
:10429800674BD3E916014FF000024FF00003FCF71B
:1042A800BBFB0346002B05D0604BD3E916236049BE
:1042B800C1E908235E4BD3E91E014FF000024FF01D
:1042C8000003FCF7A9FB0346002B05D0574BD3E9A5
:1042D80016235749C1E90023564B7B67544BD3E952
:1042E8000E014FF000024FF00003FCF76DFB034690
:1042F800002B04D14FF40073C7F88C3002E0002380
:10430800C7F88C30D7F88C301946786FFEF775F9F6
:10431800D7F88C30DB4303F400731946786FFEF747
:104328007AF9444B7B67424BD3E90C014FF000020A
:104338004FF00003FCF748FB0346002B04D14FF471
:104348008043C7F88C3002E00023C7F88C30D7F8D8
:104358008C301946786FFEF750F9D7F88C30DB436C
:1043680003F480431946786FFEF755F9314B7B67A4
:104378002F4BD3E90A014FF000024FF00003FCF77E
:1043880023FB0346002B04D14FF48073C7F88C300D
:1043980002E00023C7F88C30D7F88C301946786FC4
:1043A800FEF72BF9D7F88C30DB4303F480731946FA
:1043B800786FFEF730F91F4B7B671D4BD3E9080177
:1043C8004FF000024FF00003FCF7FEFA0346002B03
:1043D80004D14FF40043C7F88C3002E00023C7F83B
:1043E8008C30D7F88C301946786FFEF706F9D7F875
:1043F8008C30DB4303F400431946786FFEF70BF962
:104408000C4B7B670A4BD3E906014FF000024FF0D3
:104418000003FCF7D9FA0346002B0DD14FF4805363
:10442800C7F88C300BE000BF00000020180D0020FA
:1044380008040020001000480023C7F88C30D7F883
:104448008C301946786FFEF7D8F8D7F88C30DB43F4
:1044580003F480531946786FFEF7DDF8B24B7B679B
:10446800B24BD3E902014FF000024FF00003FCF712
:10447800ABFA0346002B04D14FF48053C7F88C30B5
:1044880002E00023C7F88C30D7F88C301946786FD3
:10449800FEF7B3F8D7F88C30DB4303F480531946A2
:1044A800786FFEF7B8F8A24B7B67A04BD3E9000101
:1044B8004FF000024FF00003FCF786FA0346002B8A
:1044C80004D14FF40053C7F88C3002E00023C7F83A
:1044D8008C30D7F88C301946786FFEF78EF8D7F8FD
:1044E8008C30DB4303F400531946786FFEF793F8DA
:1044F8008F4B7B678D4BD3E904014FF000024FF0DF
:104508000003FCF761FA0346002B04D14FF4006363
:10451800C7F88C3002E00023C7F88C30D7F88C300D
:104528001946786FFEF769F8D7F88C30DB4303F447
:1045380000631946786FFEF76EF87E4B93F87E306D
:1045480087F87330794BB3F99A30002B04DD794B37
:10455800002283F87E2003E0764B012283F87E2038
:10456800744B93F97E3097F973209A4219D097F9D2
:104578007330022B14D0022B13DC002B02D0012B3A
:1045880007D00EE06C4BB3F97420684BA3F8922067
:1045980007E0694BB3F97620644BA3F8902000E05C
:1045A80000BF644B93F97E30002B06D15F4BB3F903
:1045B8009A205E4BA3F8922015E05C4BB3F99A3031
:1045C800002B0ADA594BB3F99A309BB25B429BB283
:1045D8001AB2564BA3F8902005E0544BB3F99A2031
:1045E800524BA3F89020534B1B6C504AB2F99220BF
:1045F80007EE902AF8EEE77AB0EE670A1846FEF75B
:10460800BDF84C4B1B6C494AB2F9902007EE902A32
:10461800F8EEE77AB0EE670A1846FEF7C3F8454B9E
:1046280093F87F3087F87330404BB3F99830002BFC
:1046380004DD404B002283F87F2003E03D4B01223C
:1046480083F87F203B4B93F97F3097F973209A4288
:1046580019D097F97330022B14D0022B13DC002BDE
:1046680002D0012B07D00EE0334BB3F970202F4B4B
:10467800A3F8962007E0304BB3F972202B4BA3F830
:10468800942000E000BF2B4B93F97F30002B06D11C
:10469800264BB3F99820254BA3F8962015E0234B19
:1046A800B3F99830002B0ADA204BB3F998309BB253
:1046B8005B429BB21AB21D4BA3F8942005E01B4B3A
:1046C800B3F99820194BA3F894201A4B1B6D174A7D
:1046D800B2F9962007EE902AF8EEE77AB0EE670A6C
:1046E8001846FEF773F8134B1B6D104AB2F9942065
:1046F80007EE902AF8EEE77AB0EE670A1846FEF75A
:1047080079F80E4B7B670C4BD3E914014FF000028C
:104718004FF00003FCF758F90346002B10D1802313
:10472800C7F88C300FE000BF0004004808040020E0
:1047380000100048180D002000000020000C004860
:104748000023C7F88C30D7F88C301946786FFDF7FE
:1047580054FFD7F88C30DB4303F080031946786F99
:10476800FDF759FF424B7B67424B93F89C30002B77
:1047780004D04FF40053C7F88C3002E00023C7F888
:104788008C30D7F88C301946786FFDF736FFD7F89C
:104798008C30DB4303F400531946786FFDF73BFF79
:1047A800334B7B67334B93F89D30002B04D04FF489
:1047B8008043C7F88C3002E00023C7F88C30D7F864
:1047C8008C301946786FFDF718FFD7F88C30DB432B
:1047D80003F480431946786FFDF71DFF244B7B6770
:1047E800244B93F89E30002B04D04FF40043C7F8B5
:1047F8008C3002E00023C7F88C30D7F88C3019468B
:10480800786FFDF7FAFED7F88C30DB4303F40043EA
:104818001946786FFDF7FFFE174B7B67174BD3E9F7
:1048280016014FF000024FF00003FCF7CDF80346E5
:10483800002B03D10823C7F88C3002E00023C7F807
:104848008C30D7F88C301946786FFDF7D6FED7F83C
:104858008C30DB4303F008031946786FFDF7DBFE65
:1048680000F02AFD00F03EFE00BFC037BD46B0BDD7
:104878000008004808040020000400480000002048
:10488800B0B590B000AFA04B93ED187B9F4AA049FC
:10489800A048B0EE470AF0EE670AFEF791F99E4B82
:1048A800D3E9F023C7E90E230023FB6219E0FB6A72
:1048B8000133994A7833DB001344D3E90023C7E96D
:1048C8000823D7E90823D7E90E01FCF787F8034640
:1048D800002B03D0D7E90823C7E90E23FB6A01336D
:1048E800FB62FB6A172BE2DD97ED0E0B0BF098FCD1
:1048F800B0EE407AF0EE607A9FED811BB0EE470A89
:10490800F0EE670A0BF054FC87ED080B4FF000023D
:104918004FF00003D7E90801FCF760F80346002BC5
:104928000ED03B6A3B617B6A83F000437B61D7E929
:104938000401FCF791F803469BB25B429BB205E089
:10494800D7E90801FCF788F803469BB2FB836E4B56
:1049580093ED1A7B714A72497248B0EE470AF0EE3D
:10496800670AFEF72DF96C4BD3E92823C7E90E2314
:104978000023FB6219E0FB6A0133674A1433DB004A
:104988001344D3E90023C7E90823D7E90823D7E963
:104998000E01FCF723F80346002B03D0D7E90823C0
:1049A800C7E90E23FB6A0133FB62FB6A172BE2DDC2
:1049B80097ED0E0B0BF034FCB0EE407AF0EE607A17
:1049C8009FED4F1BB0EE470AF0EE670A0BF0F0FBC5
:1049D80087ED080B4FF000024FF00003D7E90801FC
:1049E800FBF7FCFF0346002B0ED03B6ABB607B6ADB
:1049F80083F00043FB60D7E90201FCF72DF803467A
:104A08009BB25B429BB205E0D7E90801FCF724F8AA
:104A180003469BB2BB833C4ABB8BA2F876303A4A2A
:104A2800FB8BA2F874303C4BD3E92823C7E90C234D
:104A3800394BD3E9F023C7E90E230023FB6230E0AA
:104A4800FB6A0133344A1433DB001344D3E90023EF
:104A5800C7E90823D7E90823D7E90C01FBF7DCFFEE
:104A68000346002B03D0D7E90823C7E90C23FB6AC8
:104A78000133294A7833DB001344D3E90023C7E91B
:104A88000823D7E90823D7E90E01FBF7C5FF03463A
:104A9800002B03D0D7E90823C7E90E23FB6A0133AB
:104AA800FB62FB6A172BCBDD97ED0C0B0BF0B8FB09
:104AB800B0EE407AF0EE607A9FED111BB0EE470A37
:104AC800F0EE670A0BF074FB87ED080B4FF000025D
:104AD8004FF00003D7E90801FBF780FF0346002BDE
:104AE80022D03B6A3B607B6A83F000437B60D7E956
:104AF8000001FBF7B1FF03469BB25B429BB219E092
:104B0800000000000000F040180D0020B000002058
:104B180018110020C8070020080400209000002079
:104B2800980D0020A8040020D7E90801FBF794FF9E
:104B380003469BB2FB8397ED0E0B0BF071FBB0EEB7
:104B4800407AF0EE607A9FED1C1BB0EE470AF0EE5B
:104B5800670A0BF02DFB87ED080B4FF000024FF0B2
:104B68000003D7E90801FBF739FF0346002B0CD0F7
:104B78003C6A7B6A83F0004520462946FBF76CFFB8
:104B880003469BB25B429BB205E0D7E90801FBF7FD
:104B980063FF03469BB2BB83094AFB8BA2F87A30BA
:104BA800074ABB8BA2F8783000F086FB00F09AFC2D
:104BB80000BF4037BD46B0BD000000000000F04017
:104BC800180D002080B582B000AF00237B6017E08D
:104BD800914BB3F88410914A7B6822F813108E4BDE
:104BE800B3F886108E4A7B6822F813108A4BB3F804
:104BF80088108C4A7B6822F813107B6801337B602D
:104C08007B68082BE4DD00237B6011E0824B93F87E
:104C18008C10854A7B6813440A461A707E4BB3F899
:104C28008A10824A7B6822F813107B6801337B6004
:104C38007B68072BEADD784B1B6E7D4A1360764B49
:104C48005B6E7C4A13607C4BFF2283F87E207A4B94
:104C5800FF2283F87F20704B9B6E784A13606E4B5F
:104C6800DB6E774A13606C4B9B6E744A53606A4BD9
:104C7800DB6E734A5360684B9B6E704A9360664B59
:104C8800DB6E6F4A936000F0ABFB634BB3F87820A0
:104C9800694BA3F87420604BB3F87A20664BA3F8ED
:104CA80076205D4BB3F87E20634BA3F878205A4BEF
:104CB800B3F88020604BA3F87A20574BD3E912232E
:104CC8005D49C1E91623544BB3F974205D4BA3F831
:104CD8009220514BB3F976205A4BA3F890204E4BB3
:104CE800B3F97020574BA3F896204B4BB3F97220B9
:104CF800544BA3F89420484BD3E90C235149C1E9FC
:104D08000223454BD3E904234E49C1E90A23424B08
:104D1800D3E900234B49C1E90E233F4BD3E90823CC
:104D28004849C1E906233C4BD3E90A234549C1E96F
:104D38000423394BD3E902234249C1E90C23364BFA
:104D4800D3E906233F49C1E90823334BD3E90E23AE
:104D58003C49C1E90023384B00225A60364B0022F7
:104D68001A703548FDF766FF37493848FDF796FE53
:104D780037493848FDF72CFE37493848FDF728FEF3
:104D880037493848FDF724FE37493848FDF720FEF3
:104D980037493848FDF71CFE37493848FDF77EFE8D
:104DA80037493848FDF714FE37493848FDF710FEF3
:104DB80037493848FDF70CFE1F4B002283F8342092
:104DC8001D4B002283F83C201B4B01229A6332487A
:104DD800FDF778FF184B012283F83C20164B002280
:104DE80083F84420144B002283F84C20124B0122F4
:104DF8009A642A48FDF7A2FF0F4B012283F84C2042
:104E080027492848FDF7B0FE27492848FDF7ACFE9A
:104E180000BF0837BD4680BD00000020B403002055
:104E2800C8030020DC03002000040020F003002059
:104E3800AC030020B0030020180D002094030020CC
:104E4800A003002008040020D000002098140020AF
:104E5800E800002048160020B8000020F8110020C3
:104E6800A800002038100020A0000020580F0020C3
:104E780098000020780E0020D8000020001500209F
:104E8800E000002068150020C8000020B8130020AA
:104E9800C0000020D81200204C0D00205C0D00201E
:104EA800B00000201811002090000020980D00206C
:104EB80080B500AF344B1B78002B11D1324B012247
:104EC8001A70314B5B68012B0AD12F4B1B7A002BD0
:104ED80006D02D4BDB68012204211846FDF7A6F900
:104EE800294B93F83430002B23D1274B012283F828
:104EF8003420254B9B6B012B1BD1234B93F83C3063
:104F0800002B16D0204B1B6C1846FDF71FFD1E4BBF
:104F18001B6C00211846FCF78EF81B4B1B6C0221FA
:104F28001846FCF773F9184B1B6C02211846FCF75E
:104F38000DFA154B93F84430002B23D1124B012264
:104F480083F84420104B9B6C012B1BD10E4B93F81C
:104F58004C30002B16D00C4B1B6D1846FDF7F6FC99
:104F6800094B1B6D00211846FCF765F8064B1B6DB5
:104F780002211846FCF78EFA034B1B6D02211846D6
:104F8800FCF7F0FA00BF80BD180D002080B489B08E
:104F980000AFF860B9607A60FB68BB610023FB6111
:104FA800BB689B087B611B4B1B68B3F5C87F2AD085
:104FB8000023FB6122E0174B1B6817497A6841F808
:104FC8002320FB699B00BA691A44124B1B681268BC
:104FD800114903F5C87341F823200E4B1B680F4A8B
:104FE80012680D4903F5487341F82320094B1B68E3
:104FF8000133084A1360FB690133FB61FA697B6975
:105008009A42D8D300E000BF2437BD465DF8047B40
:10501800704700BF301700203817002034170020D1
:1050280080B584B000AF786072B600BF00F0A8FC0D
:105038000346FB6007F10C037A6804211846FFF762
:10504800A5FF62B600BF00BF1037BD4680BD000097
:1050580080B582B000AF344B1B785A1CD1B2324AAB
:105068001170002B09D0314B01221A602E4B1B788E
:10507800013BDAB22C4B1A7053E03B1D1846FDF782
:1050880073FC62B600BF02200BF076F8FDF794FEC1
:1050980002200BF07CF872B600BF234B1B78013B53
:1050A800DAB2214B1A707B79002B11D0204B5B7838
:1050B8005A1CD1B21E4A5170002B09D01B4B012239
:1050C8001A601B4B5B78013BDAB2194B5A7028E027
:1050D800174B5B78002B24D0134B5B78002B1FD128
:1050E800114B5B780133DAB20F4B5A7062B600BFCE
:1050F80003200BF041F8FFF7C3FB03200BF047F840
:1051080000BF72B600BF0A4B5B78013BDAB2084BAE
:105118005A70054B5B78013BDAB2034B5A7000E0DA
:1051280000BF0837BD4680BDFC290020F8290020B3
:10513800002A002080B584B000AF78603960374B12
:10514800FB60374BBB60374B00221A70364B00228E
:105158001A7001DF06F02CFB00F0E2FE00F030FFD1
:1051680000F090FF01F056FF01F074FB02F0A0F987
:1051780001F0C0FF02F04CFA01F010FD02F010FD42
:1051880002F068FC294B1B6800221A6001200AF013
:10519800F3FFFFF717FD01200AF0F9FF72B600BF11
:1051A80097ED030A00F08CFC204B1B681B68002B52
:1051B8000CBF01230023DBB21A461B4B1A7062B6E0
:1051C80000BF62B600BF15E0184B1B681B68002BB8
:1051D80014BF01230023DBB21A46124B1A70114B7D
:1051E8001B78DBB2002B05D0114B1B68104A23F04B
:1051F800010313600C4B1B78DBB2002BE4D10420B5
:105208000AF0BAFFFFF754FE04200AF0C0FF72B696
:1052180000BF002318461037BD4680BDCDCC4C3D9D
:105228000000A042022A0020032A002034070108B7
:1052380010E000E080B485B000AF0346FB80B7F90A
:105248000630002B02DBFB88FB8101E0FB88FB8139
:10525800B7F90E3018461437BD465DF8047B704721
:1052680080B588B004AF03460A46FB711346BB718C
:10527800FB799BB25B009BB2013399B2BB799AB2BE
:105288004FF0FF3302930223019307F10C030093BD
:105298000123084806F07EFE3B7B1BB21B021AB2B4
:1052A8007B7B1BB213431BB29BB218461037BD461B
:1052B80080BD00BF302A002080B500AF3B216920A7
:1052C800FFF7CEFF03461846FFF7B4FF03461A461A
:1052D80013469B0013445B0007EE903AB8EEE77A5A
:1052E800DFED3B6AC7EE267A3A4BC3ED007A3D21E3
:1052F8006920FFF7B5FF03461846FFF79BFF0346F3
:105308001A4613469B0013445B0007EE903AB8EE2A
:10531800E77ADFED2F6AC7EE267A2E4BC3ED017AC6
:105328003F216920FFF79CFF03461846FFF782FFDD
:1053380003461A4613469B0013445B0007EE903A57
:10534800B8EEE77ADFED226AC7EE267A214BC3ED85
:10535800027A43216920FFF783FF03461846FFF7C7
:1053680069FF034607EE903AB8EEE77ADFED1A6A6E
:10537800C7EE267A194BC3ED007A45216920FFF75D
:105388006FFF03461846FFF755FF034607EE903AAE
:10539800B8EEE77ADFED106AC7EE267A0F4BC3ED59
:1053A800017A47216920FFF75BFF03461846FFF79C
:1053B80041FF034607EE903AB8EEE77ADFED066A5A
:1053C800C7EE267A054BC3ED027A00BF80BD00BF49
:1053D800000080469403002000000343A00300203F
:1053E80080B586B004AF0023FB714FF0FF33029302
:1053F80001230193FB1D009301236B22D2211D4839
:1054080006F0B4FC4FF0FF33029301230193072306
:10541800009301231922D221164806F0A7FC4FF069
:10542800FF330293012301930023009301231C22DD
:10543800D221104806F09AFC4FF0FF330293012363
:1054480001930023009301231B22D221094806F06F
:105458008DFC4FF0FF33029301230193064B009319
:1054680001237522D321034806F094FD00BF0837B5
:10547800BD4680BD302A0020042A002080B582B0B5
:1054880000AF00237B600FE07B68432B08D07B686C
:10549800052B05D07B685BB2184607F0E9FA00E0F7
:1054A80000BF7B6801337B607B68EF2BECD900BFC2
:1054B80000BF0837BD4680BD80B582B000AF00236D
:1054C8007B6007E07B685BB2184607F0C3FA7B682D
:1054D80001337B607B68EF2BF4D900BF00BF08372E
:1054E800BD4680BD80B500AF4021AA4806F096FBB6
:1054F8000346002B14BF01230023DAB2A64B1A700F
:105508000421A64806F08AFB0346002B14BF01239A
:105518000023DAB2A04B5A704FF40051A04806F0AD
:105528007DFB0346002B14BF01230023DAB29D4BF9
:105538001A704FF480419A4806F070FB0346002B1E
:1055480014BF01230023DAB2964B5A704FF400417E
:10555800934806F063FB0346002B14BF0123002386
:10556800DAB2904B9A704FF480518C4806F056FB93
:105578000346002B14BF01230023DAB28A4B1A70AA
:105588004FF48071834806F049FB0346002B14BF93
:1055980001230023DAB2844B5A704FF400717D481E
:1055A80006F03CFB0346002B14BF01230023DAB2AC
:1055B8007D4B9A704FF48051764806F02FFB0346D6
:1055C800002B14BF01230023DAB2774BDA704FF4B3
:1055D8000061704806F022FB0346002B14BF01232C
:1055E8000023DAB2704B1A714FF48041694806F013
:1055F80015FB0346002B14BF01230023DAB26A4BC4
:105608005A714FF40041634806F008FB0346002B2B
:1056180014BF01230023DAB2634B9A714FF400518F
:105628005C4806F0FBFA0346002B14BF0123002355
:10563800DAB25D4BDA715D4B5B6B9AB25C4B1A80E8
:105648005A4B9B6B9AB25A4B5A80584BDB6B9AB2A7
:10565800584B1A80554B1B6C9AB2564B5A80FFF721
:105668000DFF08E04FF400714FF0904006F0D6FAB5
:105678000346012B07D103214F4803F0C1F8034625
:10568800002BEFD10AE000BF08E04FF400714FF0A3
:10569800904006F0C3FA0346012B07D102213E4889
:1056A80003F0AEF80346002BEFD10AE000BF08E094
:1056B8004FF400714FF0904006F0B0FA0346012B0A
:1056C80007D10321374803F09BF80346002BEFD19D
:1056D8000AE000BF08E04FF400714FF0904006F078
:1056E8009DFA0346012B07D10C21344803F088F8B2
:1056F8000346002BEFD10AE000BF08E04FF4007129
:105708004FF0904006F08AFA0346012B07D10C218E
:105718002B4803F075F80346002BEFD10AE000BFD1
:1057280008E04FF400714FF0904006F077FA034616
:10573800012B07D11221234803F062F80346002BFE
:10574800EFD10AE000BF08E04FF400714FF090403D
:1057580006F064FA0346012B07D112211A4803F018
:105768004FF80346002BEFD10AE000BF08E04FF4E2
:1057780000714FF0904006F051FA0346012B07D113
:105788001221124803F03CF80346002BEFD128E021
:1057980000BF26E000100048082A00200004004846
:1057A800000800480C2A0020102A002000040040AD
:1057B800202A00201C2A0020D80601089403002073
:1057C800A0030020B4030020C8030020DC0300204D
:1057D8004FF400714FF0904006F020FA0346012B79
:1057E80007D10821514803F00BF80346002BEFD1ED
:1057F8000AE000BF08E04FF400714FF0904006F057
:105808000DFA0346012B07D10421494802F0F8FF9D
:105818000346002BEFD10AE000BF08E04FF4007107
:105828004FF0904006F0FAF90346012B07D1042106
:10583800404802F0E5FF0346002BEFD10AE000BF25
:1058480008E04FF400714FF0904006F0E7F9034686
:10585800012B07D10421384802F0D2FF0346002B60
:10586800EFD10AE000BF08E04FF400714FF090401C
:1058780006F0D4F90346012B07D108212F4802F07E
:10588800BFFF0346002BEFD10AE000BF08E04FF44A
:1058980000714FF0904006F0C1F90346012B07D183
:1058A8001021274802F0ACFF0346002BEFD10AE095
:1058B80000BF08E04FF400714FF0904006F0AEF9D9
:1058C8000346012B07D104211E4802F099FF034625
:1058D800002BEFD10AE000BF08E04FF400714FF051
:1058E800904006F09BF90346012B07D10421164886
:1058F80002F086FF0346002BEFD10AE000BF08E064
:105908004FF400714FF0904006F088F90346012BE0
:1059180007D104210D4802F073FF0346002BEFD195
:1059280000E000BFFFF7C8FD00BF80BD102A0020BF
:10593800182A00201C2A0020202A00200004002009
:10594800F0030020B0030020AC030020DC060108AF
:1059580080B584B000AF786005F056FFF8607B68CA
:10596800BB6000BF05F050FF0246FB68D31ABA6857
:105978009A42F7D800BF00BF1037BD4680BD00006F
:1059880010B50E4C82B0636A019305F03DFF00909C
:10599800626A019B9A4207D3009B01984FF47A727E
:1059A80002FB030002B010BD05F02EFF636A4FF43E
:1059B8007A7202FB003002B010BD00BF002C01401B
:1059C80080B483B000AF03463960FB7197F90730A4
:1059D800002B0ADB3B68DAB20C4997F90730120151
:1059E800D2B20B4483F800230AE03B68DAB20849D4
:1059F800FB7903F00F03043B1201D2B20B441A7671
:105A080000BF0C37BD465DF8047B704700E100E03D
:105A180000ED00E080B582B000AF78607B68013BA4
:105A2800B3F1807F01D301230FE00A4A7B68013B71
:105A380053600F214FF0FF30FFF7C2FF054B0022E4
:105A48009A60044B07221A60002318460837BD469F
:105A580080BD00BF10E000E080B500AFBFF34F8FFE
:105A680000BFBFF36F8F00BF0B4B1A680B4B1B684F
:105A78009A4202D3084B00221A60074B1B685A1C33
:105A880005490A60002B05D172B600BFFFF7E0FA9E
:105A980062B600BF00BF80BD242A0020282A00204B
:105AA80080B400AF054B5B68044A43F080535360F1
:105AB80000BFBD465DF8047B704700BF00ED00E005
:105AC80080B584B000AF87ED010A234B1B6807EE51
