:020000040800F2
:100000000080012031FD00088F84000897840008DB
:100010009F840008A7840008AF8400080000000047
:10002000000000000000000000000000D55700089C
:10003000B78400080000000091570008C15600086E
:1000400081FD000881FD000881FD000881FD000898
:1000500081FD000881FD000881FD000881FD000888
:1000600081FD000881FD000881FD0008C5840008AD
:10007000891F000881FD000881FD000881FD00083E
:10008000D3840008E1840008EF84000881FD0008A3
:1000900081FD000881FD000881FD000881FD000848
:1000A00081FD0008FD84000881FD000881FD000835
:1000B00081FD000881FD000881FD000881FD000828
:1000C00081FD000881FD000881FD000881FD000818
:1000D00081FD000881FD000881FD000881FD000808
:1000E00081FD000881FD000881FD000881FD0008F8
:1000F00081FD000881FD000881FD000881FD0008E8
:1001000081FD000881FD000881FD000881FD0008D7
:1001100081FD000881FD000881FD000881FD0008C7
:1001200081FD000881FD000881FD000881FD0008B7
:1001300081FD000881FD000881FD000881FD0008A7
:1001400081FD000881FD000881FD0008118500087F
:1001500081FD000881FD000881FD000881FD000887
:1001600081FD000881FD000881FD000881FD000877
:1001700081FD000881FD000881FD000800000000ED
:0801800081FD000881FD00086B
:1001880081F0004102E000BF83F0004330B54FEA40
:1001980041044FEA430594EA050F08BF90EA020FAD
:1001A8001FBF54EA000C55EA020C7FEA645C7FEA40
:1001B800655C00F0E2804FEA5454D4EB5555B8BF63
:1001C8006D420CDD2C4480EA020281EA030382EAD4
:1001D800000083EA010180EA020281EA0303362D66
:1001E80088BF30BD11F0004F4FEA01314FF4801C39
:1001F8004CEA113102D0404261EB410113F0004F4B
:100208004FEA03334CEA133302D0524263EB430301
:1002180094EA050F00F0A780A4F10104D5F1200E9F
:100228000DDB02FA0EFC22FA05F2801841F10001FA
:1002380003FA0EF2801843FA05F359410EE0A5F1CE
:1002480020050EF1200E012A03FA0EFC28BF4CF0FF
:10025800020C43FA05F3C01851EBE37101F00045B5
:1002680007D54FF0000EDCF1000C7EEB00006EEBC2
:100278000101B1F5801F1BD3B1F5001F0CD349084C
:100288005FEA30004FEA3C0C04F101044FEA4452A3
:1002980012F5800F80F09A80BCF1004F08BF5FEA2A
:1002A800500C50F1000041EB045141EA050130BD0A
:1002B8005FEA4C0C404141EB0101013C28BFB1F51C
:1002C800801FE9D291F0000F04BF01460020B1FA67
:1002D80081F308BF2033A3F10B03B3F120020CDA3A
:1002E8000C3208DD02F1140CC2F10C0201FA0CF018
:1002F80021FA02F10CE002F11402D8BFC2F1200C7D
:1003080001FA02F120FA0CFCDCBF41EA0C01904032
:10031800E41AA2BF01EB0451294330BD6FEA04047B
:100328001F3C1CDA0C340EDC04F11404C4F1200266
:1003380020FA04F001FA02F340EA030021FA04F378
:1003480045EA030130BDC4F10C04C4F1200220FACF
:1003580002F001FA04F340EA0300294630BD21FA0D
:1003680004F0294630BD94F0000F83F4801306BFD3
:1003780081F480110134013D4EE77FEA645C18BFC7
:100388007FEA655C29D094EA050F08BF90EA020F5E
:1003980005D054EA000C04BF1946104630BD91EA56
:1003A800030F1EBF0021002030BD5FEA545C05D159
:1003B8004000494128BF41F0004130BD14F5800498
:1003C8003CBF01F5801130BD01F0004545F0FE410C
:1003D80041F470014FF0000030BD7FEA645C1ABF41
:1003E800194610467FEA655C1CBF0B46024650EA78
:1003F800013406BF52EA033591EA030F41F40021A4
:1004080030BD00BF90F0000F04BF0021704730B529
:100418004FF4806404F132044FF000054FF00001FE
:1004280050E700BF90F0000F04BF0021704730B5BF
:100438004FF4806404F1320410F0004548BF404294
:100448004FF000013EE700BF42004FEAE2014FEAE9
:1004580031014FEA02701FBF12F07F4393F07F4FC4
:1004680081F06051704732F07F4208BF704793F0C7
:100478007F4F04BF41F40021704730B54FF46074DA
:1004880001F0004521F000411CE700BF50EA0102DD
:1004980008BF704730B54FF000050AE050EA010286
:1004A80008BF704730B511F0004502D5404261EBF6
:1004B80041014FF4806404F132045FEA915C3FF437
:1004C800D8AE4FF003025FEADC0C18BF03325FEAD4
:1004D800DC0C18BF033202EBDC02C2F1200300FA85
:1004E80003FC20FA02F001FA03FE40EA0E0021FAAA
:1004F80002F11444BDE600BF70B54FF0FF0C4CF498
:10050800E06C1CEA11541DBF1CEA135594EA0C0F49
:1005180095EA0C0F00F0DEF82C4481EA030621EA84
:100528004C5123EA4C5350EA013518BF52EA0335BF
:1005380041F4801143F4801338D0A0FB02CE4FF071
:100548000005E1FB02E506F00042E0FB03E54FF0A1
:100558000006E1FB03569CF0000F18BF4EF0010E99
:10056800A4F1FF04B6F5007F64F5407404D25FEA95
:100578004E0E6D4146EB060642EAC62141EA555148
:100588004FEAC52040EA5E504FEACE2EB4F1FD0C8A
:1005980088BFBCF5E06F1ED8BEF1004F08BF5FEA08
:1005A800500E50F1000041EB045170BD06F00046BA
:1005B80046EA010140EA020081EA0301B4EB5C0467
:1005C800C2BFD4EB0C0541EA045170BD41F480115F
:1005D8004FF0000E013C00F3AB8014F1360FDEBF84
:1005E800002001F0004170BDC4F10004203C35DA60
:1005F8000C341BDC04F11404C4F1200500FA05F3E3
:1006080020FA04F001FA05F240EA020001F0004283
:1006180021F0004110EBD37021FA04F642EB0601F9
:100628005EEA430E08BF20EAD37070BDC4F10C0423
:10063800C4F1200500FA04F320FA05F001FA04F2E7
:1006480040EA020001F0004110EBD37041F10001D3
:100658005EEA430E08BF20EAD37070BDC4F12005DE
:1006680000FA05F24EEA020E20FA04F301FA05F246
:1006780043EA020321FA04F001F0004121FA04F2EE
:1006880020EA020000EBD3705EEA430E08BF20EABE
:10069800D37070BD94F0000F0FD101F000464000F8
:1006A80041EB010111F4801F08BF013CF7D041EA7A
:1006B800060195F0000F18BF704703F0004652007E
:1006C80043EB030313F4801F08BF013DF7D043EA4F
:1006D8000603704794EA0C0F0CEA135518BF95EA05
:1006E8000C0F0CD050EA410618BF52EA4306D1D18C
:1006F80081EA030101F000414FF0000070BD50EAAB
:10070800410606BF1046194652EA430619D094EA34
:100718000C0F02D150EA013613D195EA0C0F05D11E
:1007280052EA03361CBF104619460AD181EA030172
:1007380001F0004141F0FE4141F470014FF000002A
:1007480070BD41F0FE4141F4780170BD70B54FF0C5
:10075800FF0C4CF4E06C1CEA11541DBF1CEA135545
:1007680094EA0C0F95EA0C0F00F0A7F8A4EB050427
:1007780081EA030E52EA03354FEA013100F088801E
:100788004FEA03334FF0805545EA131343EA1263E7
:100798004FEA022245EA111545EA10654FEA00269C
:1007A8000EF000419D4208BF964244F1FD0404F555
:1007B800407402D25B084FEA3202B61A65EB0305B1
:1007C8005B084FEA32024FF480104FF4002CB6EB6E
:1007D800020E75EB030E22BFB61A754640EA0C00EE
:1007E8005B084FEA3202B6EB020E75EB030E22BF2E
:1007F800B61A754640EA5C005B084FEA3202B6EB6F
:10080800020E75EB030E22BFB61A754640EA9C002D
:100818005B084FEA3202B6EB020E75EB030E22BFFD
:10082800B61A754640EADC0055EA060E18D04FEABB
:10083800051545EA16754FEA06164FEAC30343EA5B
:1008480052734FEAC2025FEA1C1CC0D111F4801F28
:100858000BD141EA00014FF000004FF0004CB6E721
:1008680011F4801F04BF01430020B4F1FD0C88BFC0
:10087800BCF5E06F3FF6AFAEB5EB030C04BFB6EBCB
:10088800020C5FEA500C50F1000041EB045170BDBE
:100898000EF0004E4EEA113114EB5C04C2BFD4EBEB
:1008A8000C0541EA045170BD41F480114FF0000E6F
:1008B800013C90E645EA060E8DE60CEA135594EAEB
:1008C8000C0F08BF95EA0C0F3FF43BAF94EA0C0FEE
:1008D8000AD150EA01347FF434AF95EA0C0F7FF463
:1008E80025AF104619462CE795EA0C0F06D152EAB7
:1008F80003353FF4FDAE1046194622E750EA41069B
:1009080018BF52EA43067FF4C5AE50EA41047FF4AB
:100918000DAF52EA43057FF4EBAE12E74FF0FF3C10
:1009280006E000BF4FF0010C02E000BF4FF0010CE1
:100938004DF804CD4FEA410C7FEA6C5C4FEA430C5A
:1009480018BF7FEA6C5C1BD001B050EA410C0CBFA9
:1009580052EA430C91EA030F02BF90EA020F00200B
:10096800704710F1000F91EA030F58BF994208BF72
:1009780090422CBFD8176FEAE37040F0010070472F
:100988004FEA410C7FEA6C5C02D150EA013C07D186
:100998004FEA430C7FEA6C5CD6D152EA033CD3D0D1
:1009A8005DF8040B704700BF8446104662468C46CB
:1009B8001946634600E000BF01B5FFF7B7FF0028FE
:1009C80048BF10F1000F01BD4DF808EDFFF7F4FF27
:1009D8000CBF012000205DF808FB00BF4DF808EDB2
:1009E800FFF7EAFF34BF012000205DF808FB00BFD5
:1009F8004DF808EDFFF7E0FF94BF012000205DF8F7
:100A080008FB00BF4DF808EDFFF7CEFF94BF0120AB
:100A180000205DF808FB00BF4DF808EDFFF7C4FFA4
:100A280034BF012000205DF808FB00BF4FEA410CED
:100A38007FEA6C5C02D150EA013C0AD14FEA430CD0
:100A48007FEA6C5C02D152EA033C02D14FF000000D
:100A580070474FF0010070474A0011D212F500129A
:100A680011D20DD56FF47873B3EB62520ED44FEAFE
:100A7800C12343F0004343EA505323FA02F070477E
:100A88004FF00000704750EA013002D14FF0FF30BC
:100A980070474FF0000070470348044B834202D070
:100AA800034B03B1184770479802002098020020B2
:100AB800000000000548064B1B1AD90F01EBA301E3
:100AC800491002D0034B03B1184770479802002021
:100AD800980200200000000010B5064C237843B9A6
:100AE800FFF7DAFF044B13B10448AFF3008001238A
:100AF800237010BD9802002000000000D4020108F5
:100B080008B5054B1BB105490548AFF30080BDE8A2
:100B18000840FFF7CFBF00BF000000009C02002084
:100B2800D402010880B485B000AF78607B681B6888
:100B380003F06003FB60FB68002B04D17B681B6833
:100B480003F01003FB60FB6818461437BD465DF8D8
:100B5800047B704780B483B000AF78607B681B6B00
:100B680018460C37BD465DF8047B704780B483B0E7
:100B780000AF786039607B681A6A3B681A437B6803
:100B88001A6200BF0C37BD465DF8047B704780B41D
:100B980083B000AF786039607B681A6A3B68DB43D2
:100BA8001A407B681A6200BF0C37BD465DF8047BAB
:100BB800704780B483B000AF78607B685B6C43F4A7
:100BC80000427B685A6400BF0C37BD465DF8047B61
:100BD800704780B483B000AF78607B68DB6843F00F
:100BE80001027B68DA6000BF0C37BD465DF8047B04
:100BF800704780B483B000AF78607B68DB6823F00F
:100C080001027B68DA6000BF0C37BD465DF8047BE3
:100C1800704780B483B000AF78607B68DB6803F00E
:100C28000103012B01D1012300E0002318460C37F2
:100C3800BD465DF8047B704780B483B000AF786030
:100C48007B68DB6843F002027B68DA6000BF0C3720
:100C5800BD465DF8047B704780B483B000AF786010
:100C68007B68DB6823F002027B68DA6000BF0C3720
:100C7800BD465DF8047B704780B483B000AF7860F0
:100C88007B68DB6803F00203022B01D1012300E03B
:100C9800002318460C37BD465DF8047B704780B4C6
:100CA80083B000AF78607B68DB6843F004027B6840
:100CB800DA6000BF0C37BD465DF8047B704780B42E
:100CC80083B000AF78607B68DB6823F004027B6840
:100CD800DA6000BF0C37BD465DF8047B704780B40E
:100CE80083B000AF78607B68DB6803F00403042BF3
:100CF80001D1012300E0002318460C37BD465DF8FA
:100D0800047B704780B483B000AF78607B68DB6891
:100D180043F008027B68DA6000BF0C37BD465DF817
:100D2800047B704780B483B000AF78607B68DB6871
:100D380023F008027B68DA6000BF0C37BD465DF817
:100D4800047B704780B483B000AF78607B68DB6851
:100D580003F00803082B01D1012300E00023184603
:100D68000C37BD465DF8047B704780B483B000AF94
:100D780078607B68DB6843F010027B68DA6000BF4C
:100D88000C37BD465DF8047B704780B483B000AF74
:100D980078607B68DB6823F010027B68DA6000BF4C
:100DA8000C37BD465DF8047B704780B483B000AF54
:100DB80078607B68DB6803F01003102B01D10123F6
:100DC80000E0002318460C37BD465DF8047B7047E9
:100DD80080B483B000AF78607B68DB6843F02002A2
:100DE8007B68DA6000BF0C37BD465DF8047B70474E
:100DF80080B483B000AF78607B68DB6823F02002A2
:100E08007B68DA6000BF0C37BD465DF8047B70472D
:100E180080B483B000AF78607B68DB6803F02003A0
:100E2800202B01D1012300E0002318460C37BD46D2
:100E38005DF8047B704780B483B000AF78607B684E
:100E4800DB6843F040027B68DA6000BF0C37BD46C0
:100E58005DF8047B704780B483B000AF78607B682E
:100E6800DB6823F040027B68DA6000BF0C37BD46C0
:100E78005DF8047B704780B483B000AF78607B680E
:100E8800DB6803F04003402B01D1012300E000237D
:100E980018460C37BD465DF8047B704780B483B0B4
:100EA80000AF78607B68DB6843F080027B68DA60BB
:100EB80000BF0C37BD465DF8047B704780B483B033
:100EC80000AF78607B68DB6823F080027B68DA60BB
:100ED80000BF0C37BD465DF8047B704780B483B013
:100EE80000AF78607B68DB6803F08003802B01D15A
:100EF800012300E0002318460C37BD465DF8047B4B
:100F0800704780B582B000AF78600B467B807B88E5
:100F180003F00103002B0CD07B681B681846FFF711
:100F2800AAFF0346012B04D07B681B681846FFF70D
:100F380082FF7B8803F00203002B0CD07B681B68C0
:100F48001846FFF799FE0346012B04D07B681B68FF
:100F58001846FFF771FE7B8803F00403002B0CD0C2
:100F68007B681B681846FFF7BAFE0346012B04D0BE
:100F78007B681B681846FFF792FE7B8803F008031E
:100F8800002B0CD07B681B681846FFF7DBFE034676
:100F9800012B04D07B681B681846FFF7B3FE7B88DB
:100FA80003F01003002B0CD07B681B681846FFF772
:100FB800FCFE0346012B04D07B681B681846FFF72C
:100FC800D4FE7B8803F02003002B0CD07B681B68C1
:100FD8001846FFF71EFE0346012B04D07B681B68EA
:100FE8001846FFF7F6FD7B8803F04003002B0CD072
:100FF8007B681B681846FFF771FF0346012B04D076
:101008007B681B681846FFF749FF7B8803F080035D
:10101800002B0CD07B681B681846FFF7F9FE0346C7
:10102800012B04D07B681B681846FFF7D1FE00BF70
:101038000837BD4680BD80B582B000AF78600B46EA
:101048007B807B8803F00103002B0CD07B681B6836
:101058001846FFF710FF0346012B04D17B681B6875
:101068001846FFF7F8FE7B8803F00203002B0CD02C
:101078007B681B681846FFF7FFFD0346012B04D168
:101088007B681B681846FFF7E7FD7B8803F00403BD
:10109800002B0CD07B681B681846FFF720FE034620
:1010A800012B04D17B681B681846FFF708FE7B8874
:1010B80003F00803002B0CD07B681B681846FFF769
:1010C80041FE0346012B04D17B681B681846FFF7D5
:1010D80029FE7B8803F01003002B0CD07B681B686B
:1010E8001846FFF762FE0346012B04D17B681B6894
:1010F8001846FFF74AFE7B8803F02003002B0CD02C
:101108007B681B681846FFF784FD0346012B04D053
:101118007B681B681846FFF76CFD7B8803F040036B
:10112800002B0CD07B681B681846FFF7D7FE0346D8
:10113800012B04D17B681B681846FFF7BFFE7B882C
:1011480003F08003002B0CD07B681B681846FFF760
:101158005FFE0346012B04D17B681B681846FFF726
:1011680047FE00BF0837BD4680BD000080B582B08D
:1011780000AF78600B46FB70FB78022B06D17B68CA
:101188001B6801211846FFF7F1FC31E07B681B68FA
:10119800194A934213D07B681B68184A93420ED0B1
:1011A8007B681B68164A934209D07B681B68154AFE
:1011B800934204D07B681B68134A934218D1FB788A
:1011C800032B06D17B681B6804211846FFF7CEFC69
:1011D8000EE0FB78042B0BD17B681B6801211846B5
:1011E800FFF7C4FC7B681B6804211846FFF7BEFCA8
:1011F80000BF0837BD4680BD002C014000340140C7
:1012080000400140004401400048014080B582B0E0
:1012180000AF78600B46FB70FB78022B06D17B6829
:101228001B6801211846FFF7B2FC31E07B681B6898
:10123800194A934213D07B681B68184A93420ED010
:101248007B681B68164A934209D07B681B68154A5D
:10125800934204D07B681B68134A934218D1FB78E9
:10126800032B06D17B681B6804211846FFF78FFC07
:101278000EE0FB78042B0BD17B681B680121184614
:10128800FFF785FC7B681B6804211846FFF77FFC85
:1012980000BF0837BD4680BD002C01400034014026
:1012A80000400140004401400048014080B582B040
:1012B80000AF78600B46FB70FB78022B06D17B6889
:1012C8001B6810211846FFF751FC31E07B681B684A
:1012D800194A934213D07B681B68184A93420ED070
:1012E8007B681B68164A934209D07B681B68154ABD
:1012F800934204D07B681B68134A934218D1FB7849
:10130800032B06D17B681B6840211846FFF72EFC8B
:101318000EE0FB78042B0BD17B681B681021184664
:10132800FFF724FC7B681B6840211846FFF71EFC6A
:1013380000BF0837BD4680BD002C01400034014085
:1013480000400140004401400048014080B582B09F
:1013580000AF78600B46FB70FB78022B06D17B68E8
:101368001B6810211846FFF712FC31E07B681B68E8
:10137800194A934213D07B681B68184A93420ED0CF
:101388007B681B68164A934209D07B681B68154A1C
:10139800934204D07B681B68134A934218D1FB78A8
:1013A800032B06D17B681B6840211846FFF7EFFB2B
:1013B8000EE0FB78042B0BD17B681B6810211846C4
:1013C800FFF7E5FB7B681B6840211846FFF7DFFB4A
:1013D80000BF0837BD4680BD002C014000340140E5
:1013E80000400140004401400048014080B582B0FF
:1013F80000AF78600B46FB70FB78022B07D17B6847
:101408001B684FF480711846FFF7B0FB34E07B6827
:101418001B681B4A934213D07B681B68194A934286
:101428000ED07B681B68184A934209D07B681B68FA
:10143800164A934204D07B681B68154A93421BD115
:10144800FB78032B07D17B681B684FF48061184633
:10145800FFF78CFB10E0FB78042B0DD17B681B6831
:101468004FF480711846FFF781FB7B681B684FF4C7
:1014780080611846FFF77AFB00BF0837BD4680BD7C
:10148800002C01400034014000400140004401406C
:101498000048014080B582B000AF78600B46FB7011
:1014A800FB78022B07D17B681B684FF480711846C4
:1014B800FFF76DFB34E07B681B681B4A934213D02F
:1014C8007B681B68194A93420ED07B681B68184AD0
:1014D800934209D07B681B68164A934204D07B6804
:1014E8001B68154A93421BD1FB78032B07D17B68F5
:1014F8001B684FF480611846FFF749FB10E0FB7842
:10150800042B0DD17B681B684FF480711846FFF7D8
:101518003EFB7B681B684FF480611846FFF737FB7A
:1015280000BF0837BD4680BD002C01400034014093
:1015380000400140004401400048014080B582B0AD
:1015480000AF78600B46FB70FB78022B06D17B68F6
:101558001B684FF480511846FFF708FB00BF083797
:10156800BD4680BD80B582B000AF78600B46FB7089
:10157800FB78022B06D17B681B684FF48051184614
:10158800FFF705FB00BF0837BD4680BD80B584B0B6
:1015980000AF78600023FB607B681B68304A934289
:1015A80001D1304BFB607B681A68FB681A60FB68E6
:1015B8001B681846FFF7B6FAB860BB68002B06D060
:1015C800BB68102B03D0FB6801221A7102E0FB688C
:1015D80000221A71FB681B68234A934213D0FB68E8
:1015E8001B68224A93420ED0FB681B68204A93422C
:1015F80009D0FB681B681F4A934204D0FB681B682C
:101608001D4A934204D1FB681B681846FFF7D1FABC
:10161800FB681B68144A934213D0FB681B68134A83
:1016280093420ED0FB681B68114A934209D0FB68AD
:101638001B68104A934204D0FB681B680E4A934209
:1016480008D17B681B681846FFF784FA0346DAB2AC
:10165800FB685A71FB6818461037BD4680BD00BF4D
:1016680000040040B4020020002C01400034014076
:1016780000400140004401400048014080B485B06A
:1016880000AF786039603B68002B03D17B6840333A
:10169800FB6001E0044BFB60FB6818461437BD464D
:1016A8005DF8047B704700BF0C03045080B483B01E
:1016B80000AF78607B68DB6803F44063002B01D1DE
:1016C800012300E0002318460C37BD465DF8047B73
:1016D800704780B483B000AF786039607B681B6B5B
:1016E80023F00F023B681A437B681A6300BF0C376C
:1016F800BD465DF8047B704780B483B000AF786066
:1017080039607B68DB6823F003023B681A437B6817
:10171800DA6000BF0C37BD465DF8047B704780B4C3
:1017280083B000AF78607B68DB6C03F0C003002BEC
:1017380001D1012300E0002318460C37BD465DF8AF
:10174800047B704780B483B000AF78607B689B6887
:1017580023F0004323F03F0343F001027B689A60C3
:1017680000BF0C37BD465DF8047B704780B483B07A
:1017780000AF78607B689B6823F0004323F03F0349
:1017880043F002027B689A6000BF0C37BD465DF8E3
:10179800047B704780B483B000AF78607B689B6837
:1017A80003F00103012B01D1012300E000231846B7
:1017B8000C37BD465DF8047B704780B483B000AF3A
:1017C800786039607B689B6823F0404323F03F03CF
:1017D8003A6802F08042134343F000427B689A6003
:1017E80000BF0C37BD465DF8047B704780B483B0FA
:1017F80000AF78607B689B6803F00043B3F1004F4B
:1018080001D1012300E0002318460C37BD465DF8DE
:10181800047B704780B483B000AF78607B689B68B6
:1018280023F0004323F03F0343F004027B689A60EF
:1018380000BF0C37BD465DF8047B704780B483B0A9
:1018480000AF78607B689B6823F0004323F03F0378
:1018580043F008027B689A6000BF0C37BD465DF80C
:10186800047B704780B483B000AF78607B681B68E6
:1018780003F00803082B01D1012300E000231846D8
:101888000C37BD465DF8047B704780B483B000AF69
:1018980078607B681B6803F01003102B01D10123CB
:1018A80000E0002318460C37BD465DF8047B7047FE
:1018B80080B483B000AF78607B6810221A6000BFE4
:1018C8000C37BD465DF8047B704780B483B000AF29
:1018D80078607B685B6843F008027B685A6000BFE9
:1018E8000C37BD465DF8047B704780B483B000AF09
:1018F80078607B685B6843F040027B685A6000BF91
:101908000C37BD465DF8047B704780B483B000AFE8
:1019180078607B685B6823F008027B685A6000BFC8
:101928000C37BD465DF8047B704780B483B000AFC8
:1019380078607B685B6823F010027B685A6000BFA0
:101948000C37BD465DF8047B704780B483B000AFA8
:1019580078607B685B6823F040027B685A6000BF50
:101968000C37BD465DF8047B704780B483B000AF88
:1019780078607B685B6823F080027B685A6000BFF0
:101988000C37BD465DF8047B704780B483B000AF68
:1019980078607B685B6803F01003102B01D101238A
:1019A80000E0002318460C37BD465DF8047B7047FD
:1019B80080B483B000AF78607B685B6803F0800315
:1019C800802B01D1012300E0002318460C37BD46C7
:1019D8005DF8047B7047000080B485B000AF786084
:1019E80039607B68FB600C4A3B6813441B781A46D5
:1019F800FB6813441B6808493A680A441278114680
:101A0800FA680A4443F00103136000BF1437BD4667
:101A18005DF8047B704700BF4403010880B485B0BB
:101A280000AF786039607B68FB600C4A3B68134400
:101A38001B781A46FB6813441B6808493A680A442D
:101A480012781146FA680A4423F00103136000BFB4
:101A58001437BD465DF8047B704700BF4403010896
:101A680080B485B000AF786039607B68FB60084A55
:101A78003B6813441B781A46FB6813441B6803F041
:101A8800200318461437BD465DF8047B704700BF35
:101A98004403010880B487B000AFF860B9607A6089
:101AA800FB687B610D4ABB6813441B781A467B6947
:101AB80013445B681B0C1B040849BA680A44127873
:101AC80011467A690A4411467A6813434B6000BF8D
:101AD8001C37BD465DF8047B704700BF440301080E
:101AE80080B487B000AFF860B9607A603B60FB688B
:101AF8007B613B6A102B14D1174ABB6813441B78CF
:101B08001A467B6913441A467B68D360124ABB683D
:101B180013441B781A467B6913441A463B68936042
:101B280013E00D4ABB6813441B781A467B691344BB
:101B38001A467B689360084ABB6813441B781A46A8
:101B48007B6913441A463B68D36000BF1C37BD4607
:101B58005DF8047B704700BF4403010880B487B078
:101B680000AFF860B9607A60FB687B61074ABB68C0
:101B780013441B781A467B6913441A467B689360A2
:101B880000BF1C37BD465DF8047B7047440301085D
:101B980080B483B000AF78607B681B6803F02003D3
:101BA800202B01D1012300E0002318460C37BD4645
:101BB8005DF8047B704780B483B000AF78607B68C1
:101BC80020225A6000BF0C37BD465DF8047B704781
:101BD80080B485B000AF786039607B68FB600C4AE0
:101BE8003B6813441B781A46FB6813441B68084972
:101BF8003A680A4412781146FA680A4443F0020324
:101C0800136000BF1437BD465DF8047B704700BF02
:101C18004403010880B485B000AF786039607B6800
:101C2800FB600C4A3B6813441B781A46FB68134454
:101C38001B6808493A680A4412781146FA680A4447
:101C480043F00803136000BF1437BD465DF8047BFA
:101C5800704700BF4403010880B485B000AF7860C6
:101C680039607B68FB600C4A3B6813441B781A4652
:101C7800FB6813441B6808493A680A4412781146FD
:101C8800FA680A4423F00203136000BF1437BD4604
:101C98005DF8047B704700BF4403010880B485B039
:101CA80000AF786039607B68FB600C4A3B6813447E
:101CB8001B781A46FB6813441B6808493A680A44AB
:101CC80012781146FA680A4423F00403136000BF2F
:101CD8001437BD465DF8047B704700BF4403010814
:101CE80080B485B000AF786039607B68FB600C4ACF
:101CF8003B6813441B781A46FB6813441B68084961
:101D08003A680A4412781146FA680A4423F008032C
:101D1800136000BF1437BD465DF8047B704700BFF1
:101D28004403010880B485B000AF786039607B68EF
:101D3800FB600A4A3B6813441B781A46FB68134445
:101D48001B6803F00203022B01D1012300E00023EA
:101D580018461437BD465DF8047B704744030108F4
:101D680080B584B000AF78600123FB817B681B6974
:101D78001846FFF79BFC0346002B2FD07B685B7A45
:101D8800DBB2022B11D07B685B7ADBB2042B0CD060
:101D98007B685B7ADBB2082B07D07B681B69184627
:101DA800FFF760FD0346012B18D1786800F0F8F8BA
:101DB8000346002B12D17B685B7ADBB2082B03D178
:101DC8007B6801225A7202E07B6820225A727B6883
:101DD8001B691846FFF71EFD0023FB81FB89184687
:101DE8001037BD4680BD80B586B002AFF860B960D7
:101DF8007A603B600021F868FFF740FC03461A460A
:101E08007968B868FFF7AAFE0021F868FFF736FC82
:101E180002463B68002100917968B868FFF760FEC8
:101E2800BA697968B868FFF735FE7968B868FFF766
:101E3800CFFE7968B868FFF7EDFE7968B868FFF7F4
:101E4800CBFD00BF1037BD4680BD80B584B000AF64
:101E5800F860B9607A607968B868FFF7DFFD79687B
:101E6800B868FFF71BFF7968B868FFF739FF79682A
:101E7800B868FFF7F1FE00227968B868FFF70AFE34
:101E880000BF1037BD4680BD80B584B000AF786014
:101E980039600223FB737B68DB79012B0FD17B68E8
:101EA800DA687B681B685B00D118FB7B7A6812686C
:101EB80002FB03F31A4638680EF0FAF90AE07B6869
:101EC800D968FB7B7A68126802FB03F31A46386804
:101ED8000EF0EEF900BF1037BD4680BD80B586B064
:101EE80000AFF860B9607A60FB685A69FB689B7953
:101EF80019461046FFF716FF0346DBB2012B37D110
:101F0800FB685A69BB68104698470346012B2FD1D6
:101F1800FB6804225A72FB685A697B681046984726
:101F2800FB685A69FB689B7919461046FFF798FDCC
:101F38000346002B19D1FB685A69FB689B7919463F
:101F48001046FFF76BFDFB685869FB689B791946DB
:101F5800FB681B681A46FFF79DFDFB685A69FB681A
:101F68009B7919461046FFF737FD0123FB7501E001
:101F78000023FB75FB7D18461837BD4680BD000061
:101F880080B500AF034A04490448FFF7A7FF00BF24
:101F980080BD00BFBF1B0008991B0008400300203C
:101FA80080B582B000AF78607B681B691846FFF780
:101FB8006CFC0346DBB2012B07D17B681B69184612
:101FC800FFF776FC7B6810225A727B685B7ADBB27B
:101FD800102B0CBF01230023DBB218460837BD467F
:101FE80080BD80B582B000AF78600B46FB70FB788F
:101FF800012B0DD17B681B691846FFF757FB034679
:10200800012B12D07B681B691846FFF703FC0CE014
:102018007B681B691846FFF782FB0346012B04D037
:102028007B681B691846FFF709FC00BF0837BD46E7
:1020380080BD000090B589B002AFF860084611462F
:102048001A4603467B810B463B811346FB800023DF
:102058007B61FB681B693C4A934201D13B4B7B6126
:102068007B69002B6BD0FB681A697B691A617B69F5
:102078000022DA71FB88012B61D03B89002B47D005
:102088007B695B7ADBB2082B42D0FB68DA687B6934
:10209800DA60FB681A687B691A60FB685A697B69B1
:1020A8005A61FB689A797B699A71FB681A797B692E
:1020B8001A717B691B69B96A1846FFF70AFB7B89A5
:1020C800012B21D07B89042B16D17B691B69032145
:1020D8001846FFF711FB7B6918697B6959697B69A9
:1020E8009B791C467B69DA687B691B6800931346F9
:1020F8002246FFF778FE07E07B89022B04D17B6933
:102108001B691846FFF7E1FB7B6908225A7216E043
:102118003B89002B13D17B699B7ADBB2082B0ED04D
:10212800FB685A797B695A717B89022B04D17B69D8
:102138001B691846FFF7D9FB7B6908229A727B69ED
:1021480018461C37BD4690BD0001045040030020CE
:1021580080B582B000AF78607B681B691846FFF7CE
:1021680019FB0346002B04D17B681B691846FFF74F
:10217800E9FA00BF0837BD4680BD80B586B000AF1C
:10218800F8600B467A607B810123FB82FB681B6940
:10219800002B46D07B89012B05D1F868FFF7E0FDBD
:1021A8000346FB823DE07B89042B1FD1FB681B693A
:1021B8001846FFF77BFA0346002B32D0FB68012252
:1021C8005A72FB681B691846FFF724FB00BFFB68BF
:1021D8005B7ADBB2042BFAD17968F868FFF754FE12
:1021E800FB6808225A720023FB821AE07B89022BC3
:1021F80017D1FB685B7ADBB2202B09D0FB685B7ACE
:10220800DBB2042B04D0FB685B7ADBB2102B08D15D
:10221800FB6808225A727968F868FFF735FE0023D0
:10222800FB82FB8A18461837BD4680BD80B582B050
:1022380000AF78600B467B8013463B807B681B6948
:102248001846FFF7A7FA0346002B04D07B681B69E2
:102258001846FFF78BFA7B681B691846FFF7A8FB3F
:102268000346002B04D07B681B691846FFF77DFBEB
:102278007B681B691846FFF788FB0346002B04D0D0
:102288007B681B691846FFF750FB3B88002B38D04A
:102298007B88012B1AD07B88022B05D17B681B69B0
:1022A8001846FFF732FB11E07B88042B0ED17B68C0
:1022B80018697B6859697B689B791A46FFF7C5FDE1
:1022C8007B681B6900211846FFF716FA7B68002215
:1022D800DA607B6800221A607B6800225A617B689A
:1022E80000229A717B6800221A717B6840225A7218
:1022F8007B681A697B681B7919461046FFF7E9F96C
:102308000DE07B6800225A717B6840229A727B88B4
:10231800022B04D17B681B691846FFF716FB00BF28
:102328000837BD4680BD000080B584B000AF786036
:102338000B46FB707B681B691846FFF72BFA0346B0
:10234800FB7397F90F30012B04D17B681B69184682
:10235800FFF70CFAFB78002B0FD17B681B697F21F4
:102368001846FFF72AFA00BF7B681B691846FFF773
:102378003DFA0346012BF7D040E0FB78012B0FD143
:102388007B681B692C491846FFF717FA00BF7B6862
:102398001B691846FFF72AFA0346012BF7D02DE0F0
:1023A8007B681B697F211846FFF707FA00BF7B6827
:1023B8001B691846FFF71AFA0346012BF7D00023CA
:1023C800BB8107E000BFBB891BB29BB201339BB244
:1023D8001BB2BB81BB891BB29BB2032BF2D97B68B2
:1023E8001B6915491846FFF7E8F900BF7B681B69A8
:1023F8001846FFF7FBF90346012BF7D00023BB81F2
:1024080007E000BFBB891BB29BB201339BB21BB272
:10241800BB81BB891BB29BB2032BF2D997F90F3052
:10242800012B04D17B681B691846FFF78BF900BFA5
:102438001037BD4680BD00BF00007F4080B483B028
:1024480000AF78607B681B6843F001027B681A6004
:1024580000BF0C37BD465DF8047B704780B483B07D
:1024680000AF78607B681B6823F001027B681A6004
:1024780000BF0C37BD465DF8047B704780B483B05D
:1024880000AF786039607B681B6823F004023B6802
:102498001A437B681A6000BF0C37BD465DF8047BA1
:1024A800704780B483B000AF78607B681B6803F026
:1024B800040318460C37BD465DF8047B704780B4AA
:1024C80083B000AF78607B68DB6A18460C37BD467E
:1024D8005DF8047B704780B483B000AF78603960E2
:1024E8007B683A681A6300BF0C37BD465DF8047B09
:1024F800704780B483B000AF786039607B683A6811
:102508005A6300BF0C37BD465DF8047B704780B442
:1025180083B000AF786039607B683A689A6300BF1F
:102528000C37BD465DF8047B704780B483B000AFBC
:10253800786039607B683A68DA6300BF0C37BD465B
:102548005DF8047B704780B483B000AF7860396071
:102558007B683A681A6400BF0C37BD465DF8047B97
:10256800704780B483B000AF78607B685B6B1846B7
:102578000C37BD465DF8047B704780B483B000AF6C
:1025880078607B689B6B18460C37BD465DF8047B0A
:10259800704780B483B000AF78607B68DB6B184607
:1025A8000C37BD465DF8047B704780B483B000AF3C
:1025B80078607B681B6C18460C37BD465DF8047B59
:1025C800704780B483B000AF78607B685B6943F084
:1025D80001027B685A6100BF0C37BD465DF8047B79
:1025E800704780B483B000AF78607B681B69184679
:1025F8000C37BD465DF8047B704780B483B000AFEC
:10260800786039607B683A689A6100BF0C37BD46CC
:102618005DF8047B704780B483B000AF78603960A0
:102628007B683A689A6200BF0C37BD465DF8047B48
:102638007047000080B584B000AF786087ED000A6D
:10264800D7ED007AF5EEC07AF1EE10FA03D54FF027
:1026580000033B600AE0D7ED007A9FED167AF4EEAE
:10266800C77AF1EE10FA01DD134B3B607B681B68FB
:102678001846FFF724FFF8607B681B79002B0CBF16
:1026880001230023DBB21A46FB68134407EE903A95
:10269800B8EE677AD7ED007A27EE277ADFED056A7C
:1026A800C7EE267AFCEEE77A17EE903A184610370E
:1026B800BD4680BD0000C8420000C84280B582B057
:1026C80000AF786039607B681B681846FFF749FFE0
:1026D80002463B68934205D07B681B6839681846F8
:1026E800FFF707FF00BF0837BD4680BD80B582B041
:1026F80000AF786039607B681B681846FFF73DFFBC
:1027080002463B68934205D07B681B6839681846C7
:10271800FFF7FDFE00BF0837BD4680BD80B582B01B
:1027280000AF786039607B681B681846FFF731FF97
:1027380002463B68934205D07B681B683968184697
:10274800FFF7F3FE00BF0837BD4680BD80B582B0F5
:1027580000AF786039607B681B681846FFF725FF73
:1027680002463B68934205D07B681B683968184667
:10277800FFF7E9FE00BF0837BD4680BD80B584B0CD
:1027880000AF786087ED000A97ED000A7868FFF7D8
:1027980051FFF860F9687868FFF790FF00BF1037BD
:1027A800BD4680BD80B584B000AF786087ED000A73
:1027B80097ED000A7868FFF73DFFF860F9687868D8
:1027C800FFF794FF00BF1037BD4680BD80B584B0C9
:1027D80000AF786087ED000A97ED000A7868FFF788
:1027E80029FFF860F9687868FFF798FF00BF10378D
:1027F800BD4680BD80B584B000AF786087ED000A23
:1028080097ED000A7868FFF715FFF860F9687868AF
:10281800FFF79CFF00BF1037BD4680BD80B485B070
:1028280000AF78607B681B689A68074B1340FB60B1
:10283800FB68062B0CBF01230023DBB218461437B4
:10284800BD465DF8047B70470700010080B584B081
:1028580000AF78600B46FB707B681B681846FFF773
:1028680020FEF860FB78002B1ED07B681B68324A7C
:10287800934213D07B681B68304A93420ED07B6822
:102888001B682F4A934209D07B681B682D4A9342E4
:1028980004D07B681B682C4A934205D17B681B686F
:1028A80000211846FFF717FEFB68042B11D07B6840
:1028B8001B6804211846FFF7E1FD7B681B68184672
:1028C800FFF77FFE7B681B68F9681846FFF7D6FD9F
:1028D80004E07B681B681846FFF773FE7B681B687B
:1028E8001846FFF7ABFDFB78002B20D07B681B68F0
:1028F800114A934213D07B681B68104A93420ED04A
:102908007B681B680E4A934209D07B681B680D4A96
:10291800934204D07B681B680B4A934207D17B68BB
:102928001A687B685B7919461046FFF7D4FD00BF2B
:102938001037BD4680BD00BF002C01400034014067
:1029480000400140004401400048014080B582B089
:1029580000AF78607B681B681846FFF77FFD00BFF3
:102968000837BD4680BD80B485B000AF7860396057
:102978007B68012283F8D8203B68D3E90023796873
:10298800C1E902237B6801221A600023FB600CE086
:102998007B68D3E902237868F9680231C9000144E9
:1029A800C1E90023FB680133FB60FB68182BEFDDEE
:1029B80000BF00BF1437BD465DF8047B704780B583
:1029C800B8B000AF87ED040BF860B9607A60BB68F7
:1029D800D3E902017B68D3E90023FDF7F5FF03463D
:1029E800002B05D17B68D3E90023B968C1E902232C
:1029F800F868BB681033C82219460DF059FCD7E9AE
:102A08000423C7E90623BB6803F1100107F1180383
:102A18000833C02218460DF04BFCBB68103307F191
:102A28001801C82218460DF043FC00BFE037BD4628
:102A380080BD80B485B000AF786039607B680122C2
:102A480083F860203B68D3E900237968C1E9022351
:102A58007B6801221A600023FB600CE07B68D3E9E5
:102A680002237868F9680231C9000144C1E90023EA
:102A7800FB680133FB60FB68092BEFDD00BF00BF7B
:102A88001437BD465DF8047B704780B59AB000AF37
:102A980087ED040BF860B9607A60BB68D3E902017E
:102AA8007B68D3E90023FDF78FFF0346002B05D190
:102AB8007B68D3E90023B968C1E90223F868BB68D9
:102AC8001033502219460DF0F3FBD7E90423C7E968
:102AD8000623BB6803F1100107F1180308334822E5
:102AE80018460DF0E5FBBB68103307F118015022BA
:102AF80018460DF0DDFB00BF6837BD4680BD0000FD
:102B080080B483B000AF7860A84B01225A77A74BF6
:102B180001229A77A54B0122DA77A44B012283F888
:102B28002020A24B002283F82120A04B002283F80A
:102B380022207B681B78002B2AD09D4A136E23F431
:102B4800C03313669A4AB2F8603023F4E073A2F8EF
:102B58006030974A92F86030042161F3020382F8EA
:102B68006030924B00221A77904B00225A778F4B95
:102B780000229A778D4B0022DA778C4B002283F85B
:102B880020208A4B00221A83884B00225A8339E17D
:102B9800874BB3F86030C3F38213DBB2032B00F02A
:102BA800B580032B00F3EC80012B02D0022B52D00E
:102BB800E6E07E4B5B8940F60A72934210D97C4A64
:102BC800B2F86030032161F38813A2F86030774BC4
:102BD8004FF6D8721A83754B4FF6B5725A830CE1CB
:102BE800724B9B8840F63C72934210D9704AB2F8F7
:102BF8006030042161F38813A2F860306B4B4FF604
:102C0800B5721A83694B4FF6D8725A83F5E0674B51
:102C18009B89B3F5616F06D8644B5B8840F6F61262
:102C2800934240F2EA80624AB2F86030022161F3CE
:102C38008813A2F860305D4B00221A835B4B002298
:102C48005A835B4B0022A3F86420594A136E43F45D
:102C5800C0331366D1E0554B9B89B3F5FA6F1BD28D
:102C6800524B5B8840F2DB52934215D8504A136EA0
:102C780023F4C03313664E4AB2F86030012161F381
:102C88008813A2F86030494B4FF6AB721A83474B52
:102C98004FF6AB725A8338E0454B1B6EC3F3C13312
:102CA800DBB2012B02D0022B2AD012E0404BB3F842
:102CB8006430B3F5167F25D33D4A136E022161F3C4
:102CC800D0331366394B00221A83384B00225A83BB
:102CD80018E0374BB3F86430042B15D9344B002275
:102CE800A3F86420324A136E012161F3D0331366CE
:102CF8002E4B4FF6B5721A832C4B4B225A8303E0A6
:102D080000BF7FE000BF7DE000BF7BE0274B5B8911
:102D180040F6D762934210D8254AB2F860300121B4
:102D280061F38813A2F86030204B4FF6AB721A8318
:102D38001E4B4FF6AB725A8361E01C4B9B89B3F56F
:102D48007A6F05D8194B5B8840F62232934256D9E0
:102D5800174AB2F86030022161F38813A2F8603094
:102D6800124B00221A83114B00225A83104B002267
:102D7800A3F864200E4A136E43F4C03313663EE092
:102D88000A4B9B88B3F5616F14D2094AB2F86030D8
:102D9800012161F38813A2F86030044B4FF6AB723F
:102DA8001A83024B4FF6AB725A832AE0D0030020F5
:102DB800680C0020164B9B89B3F57A6F05D8144B25
:102DC8005B8840F6223293421BD9124AB2F860302F
:102DD800022161F38813A2F860300D4B00221A8398
:102DE8000B4B00225A830B4B0022A3F86420094A9C
:102DF800136E43F4C033136603E000BF02E000BF64
:102E080000E000BF00BF0C37BD465DF8047B70478B
:102E1800D0030020680C002080B58CB002AF786029
:102E28007B6800221A727B6801225A607B68103323
:102E3800BB6100237B741A4BFB611A4B3B62012375
:102E4800BB74002387F82430022387F82530092330
:102E5800FB6009233B7407F10C000823009304234B
:102E680001220421FFF7E6F802467B68DA607B68F6
:102E7800DB6802211846FFF757FA7B68DB681846BB
:102E8800FFF766F97B68DB6801211846FFF7A9F8A8
:102E98007B6801221A7200BF2837BD4680BD00BF7B
:102EA800000104500000024080B5A6B000AF786071
:102EB8001A4BBB6000233B7300237B7307F10803A5
:102EC8001846FEF763FB02467B68DA607B68DB68BE
:102ED80000211846FEF715F87B68DB6802211846C2
:102EE800FEF744F97B68DB6802211846FEF7DEF935
:102EF8007B68DB681846FFF791FC034687F8973034
:102F080097F89730002B05D17B68DB6800211846BD
:102F1800FFF79CFC00BF9837BD4680BD0004004009
:102F280080B5A6B000AF78601A4BBB6000233B7336
:102F380000237B7307F108031846FEF727FB0246B8
:102F48007B68DA607B68DB6800211846FDF7D9FFEB
:102F58007B68DB6802211846FEF748FA7B68DB6865
:102F680002211846FEF7EAFA7B68DB681846FFF785
:102F780055FC034687F8973097F89730002B05D112
:102F88007B68DB6800211846FFF760FC00BF9837B4
:102F9800BD4680BD00040040B0B5BEB000AF002300
:102FA800C7F8B43010E0A94AD7F8B4301A4400235F
:102FB8001370A749D7F8B420002321F81230D7F8A6
:102FC800B4300133C7F8B430D7F8B430072BEADD92
:102FD800A04A00231360A04A002313609F4BDB68BC
:102FE8009F4A04211846FFF7C8F89D4BDB899D4A84
:102FF80013809B4B1B889B4AD381994B9B89994A89
:103008005380974B5B88974A9381954B5B89954A88
:103018009380934B9B88934A5381914B1B89914A88
:10302800D3808F4BDB888F4A13810023C7F8B430D5
:1030380012E08C4AD7F8B43032F81320D7F8B430FD
:103048005B00783307F180010B4423F8702CD7F824
:10305800B4300133C7F8B430D7F8B430072BE8DD03
:10306800B7F888301846FDF7CDF904460D467E4A74
:103078007E497F4845EC104BFFF7A1FC794BD3E91B
:10308800D223C7E93C230023C7F8B4301CE0D7F8A3
:10309800B4300133734A6933DB001344D3E90023A6
:1030A800C7E92A23D7E92A23D7E93C01FDF796FC8B
:1030B8000346002B03D0D7E92A23C7E93C23D7F8D6
:1030C800B4300133C7F8B430D7F8B430172BDEDD8D
:1030D800B7F88A301846FDF795F904460D46654A53
:1030E8006549664845EC104BFFF7CFFC5D4B03F58F
:1030F800CE6353E90223C7E93A230023C7F8B43063
:103108001CE0D7F8B4300133564ACD33DB00134402
:10311800D3E90023C7E92A23D7E92A23D7E93A01C3
:10312800FDF75CFC0346002B03D0D7E92A23C7E947
:103138003A23D7F8B4300133C7F8B430D7F8B430ED
:10314800082BDEDD4E4A4F494F4897ED3A0BFFF703
:1031580036FC444B03F5FA63D3E90023C7E930236F
:103168000023C7F8B4301CE0D7F8B43001333D4A27
:10317800FA33DB001344D3E90023C7E92A23D7E94C
:103188002A23D7E93001FDF747FC0346002B03D07B
:10319800D7E92A23C7E93023D7F8B4300133C7F871
:1031A800B430D7F8B430172BDEDDB7F88C301846BA
:1031B800FDF728F904460D46344A3549354845ECAB
:1031C800104BFFF7FCFB274B03F58263D3E9002381
:1031D800C7E93A230023C7F8B4301CE0D7F8B43065
:1031E8000133204A8233DB001344D3E90023C7E9C3
:1031F8002A23D7E92A23D7E93A01FDF7EFFB03464B
:10320800002B03D0D7E92A23C7E93A23D7F8B430EB
:103218000133C7F8B430D7F8B430172BDEDDB7F870
:103228008E301846FDF7EEF804460D461A4A1B493B
:103238001B4845EC104BFFF7C2FB0A4BD3E9A02310
:10324800C7E938230023C7F8B43048E0C803002092
:103258007C0300207403002078030020680C002001
:103268008C030020D0030020780000205810002094
:103278001807002098000020D8130020380A0020E2
:10328800B000002088150020A00B0020800000203E
:1032980038110020E007002070000020780F00207F
:1032A80050060020D7F8B4300133A14A5033DB0070
:1032B8001344D3E90023C7E92A23D7E92A23D7E906
:1032C8003801FDF78BFB0346002B03D0D7E92A23EF
:1032D800C7E93823D7F8B4300133C7F8B430D7F882
:1032E800B430172BDEDDB7F890301846FDF78AF8B2
:1032F80004460D468F4A9049904845EC104BFFF71D
:103308005EFB8B4BD3E96E23C7E936230023C7F84E
:10331800B4301CE0D7F8B4300133854A3733DB00CA
:103328001344D3E90023C7E92A23D7E92A23D7E995
:103338003601FDF753FB0346002B03D0D7E92A23B8
:10334800C7E93623D7F8B4300133C7F8B430D7F813
:10335800B430172BDEDDB7F892301846FDF752F877
:1033680004460D46764A7749774845EC104BFFF7F7
:1033780026FB6F4BD3E93C23C7E934230023C7F866
:10338800B4301CE0D7F8B4300133694A1E33DB008F
:103398001344D3E90023C7E92A23D7E92A23D7E925
:1033A8003401FDF71BFB0346002B03D0D7E92A2382
:1033B800C7E93423D7F8B4300133C7F8B430D7F8A5
:1033C800B430172BDEDDB7F894301846FDF71AF83D
:1033D80004460D465D4A5E495E4845EC104BFFF7D2
:1033E80054FB534B03F5D86353E90223C7E932234F
:1033F8000023C7F8B4301CE0D7F8B43001334C4A86
:10340800D733DB001344D3E90023C7E92A23D7E9DC
:103418002A23D7E93201FDF7E1FA0346002B03D04E
:10342800D7E92A23C7E93223D7F8B4300133C7F8DC
:10343800B430D7F8B430082BDEDD474A474948484E
:1034480097ED320BFFF7BBFA394B03F5E26353E90B
:103458000223C7E92E230023C7F8B4301CE0D7F8AD
:10346800B4300133324AE133DB001344D3E900239B
:10347800C7E92A23D7E92A23D7E92E01FDF7CCFA91
:103488000346002B03D0D7E92A23C7E92E23D7F810
:10349800B4300133C7F8B430D7F8B430172BDEDDB9
:1034A800B7F896301846FCF7ADFF04460D462D4A8E
:1034B8002D492E4845EC104BFFF781FA1C4BD3E9F8
:1034C8000A23C7E9322397ED3C0B0CF0B5FCB0EEAC
:1034D800407AF0EE607A9FED141BB0EE470AF0EEEA
:1034E800670A0CF071FC87ED2A0B4FF000024FF0D1
:1034F8000003D7E92A01FDF771FA0346002B37D0FC
:10350800D7F8A830BB67D7F8AC3083F00043FB6727
:10351800D7E91E01FDF7A0FA03469BB25B429BB2B6
:103528002CE000BFAFF30080000000000000F04076
:10353800D003002068000020980E00208805002095
:1035480060000020B80D0020C0040020A00000206A
:1035580040140020880A0020A8000020A814002099
:10356800D80A002058000020D80C0020F8030020BA
:10357800D7E92A01FDF770FA03469BB2AC4A1380DB
:1035880097ED300B0CF058FCB0EE407AF0EE607A14
:103598009FEDA51BB0EE470AF0EE670A0CF014FC8D
:1035A80087ED2A0B4FF000024FF00003D7E92A01FC
:1035B800FDF714FA0346002B10D0D7F8A8303B6764
:1035C800D7F8AC3083F000437B67D7E91C01FDF7DF
:1035D80043FA03469BB25B429BB205E0D7E92A0156
:1035E800FDF73AFA03469BB2914A538097ED3A0B9E
:1035F8000CF022FCB0EE407AF0EE607A9FED8A1B68
:10360800B0EE470AF0EE670A0CF0DEFB87ED2A0BF6
:103618004FF000024FF00003D7E92A01FDF7DEF969
:103628000346002B10D0D7F8A830BB66D7F8AC30CB
:1036380083F00043FB66D7E91A01FDF70DFA03464C
:103648009BB25B429BB205E0D7E92A01FDF704FA79
:1036580003469BB2764A938097ED380B0CF0ECFB4F
:10366800B0EE407AF0EE607A9FED6F1BB0EE470A3D
:10367800F0EE670A0CF0A8FB87ED2A0B4FF000026A
:103688004FF00003D7E92A01FDF7A8F90346002BFC
:1036980010D0D7F8A8303B66D7F8AC3083F0004399
:1036A8007B66D7E91801FDF7D7F903469BB25B4261
:1036B8009BB205E0D7E92A01FDF7CEF903469BB294
:1036C8005B4AD38097ED360B0CF0B6FBB0EE407A30
:1036D800F0EE607A9FED541BB0EE470AF0EE670AF1
:1036E8000CF072FB87ED2A0B4FF000024FF000033D
:1036F800D7E92A01FDF772F90346002B10D0D7F855
:10370800A830BB65D7F8AC3083F00043FB65D7E938
:103718001601FDF7A1F903469BB25B429BB205E097
:10372800D7E92A01FDF798F903469BB2404A13816D
:1037380097ED340B0CF080FBB0EE407AF0EE607A37
:103748009FED391BB0EE470AF0EE670A0CF03CFB20
:1037580087ED2A0B4FF000024FF00003D7E92A014A
:10376800FDF73CF90346002B10D0D7F8A8303B658D
:10377800D7F8AC3083F000437B65D7E91401FDF737
:103788006BF903469BB25B429BB205E0D7E92A017D
:10379800FDF762F903469BB2254A538197ED2E0B3C
:1037A8000CF04AFBB0EE407AF0EE607A9FED1E1BFB
:1037B800B0EE470AF0EE670A0CF006FB87ED2A0B1D
:1037C8004FF000024FF00003D7E92A01FDF706F990
:1037D8000346002B10D0D7F8A830BB64D7F8AC301C
:1037E80083F00043FB64D7E91201FDF735F903467E
:1037F8009BB25B429BB205E0D7E92A01FDF72CF9A1
:1038080003469BB20A4A93810A4BB3F84A30084AE6
:103818001382094BD3E9D223C7E930230023C7F821
:10382800B43040E0AFF30080000000000000F0403A
:10383800A003002000000020D0030020D7F8B430F7
:1038480001339F4A0533DB001344D3E90023C7E95A
:103858002A23D7E92A23D7E93201FDF7BFF803461F
:10386800002B03D0D7E92A23C7E93223D7F8B4308D
:103878000133934A6933DB001344D3E90023C7E9D2
:103888002A23D7E92A23D7E93001FDF7C5F80346EB
:10389800002B03D0D7E92A23C7E93023D7F8B4305F
:1038A8000133C7F8B430D7F8B430172BC6DD97ED1D
:1038B800320B0CF0C1FAB0EE407AF0EE607A9FED70
:1038C8007E1BB0EE470AF0EE670A0CF07DFA87ED32
:1038D8002A0B4FF000024FF00003D7E92A01FDF749
:1038E8007DF80346002B10D0D7F8A8303B64D7F8F2
:1038F800AC3083F000437B64D7E91001FDF7ACF8E6
:1039080003469BB25B429BB205E0D7E92A01FDF76B
:10391800A3F803469BB26B4AD381B7F88A3018469E
:10392800FCF770FD04460D46674A6849684845EC4F
:10393800104BFFF744F8624B03F5B463D3E9002357
:10394800C7E92E235E4B03F58263D3E90023C7E959
:103958003A235B4BD3E9A023C7E93823584BD3E973
:103968006E23C7E93623564BD3E93C23C7E93423F2
:103978000023C7F8B4307CE0D7F8B4300133504A9C
:10398800B433DB001344D3E90023C7E92A23D7E97A
:103998002A23D7E92E01FDF73FF80346002B03D071
:1039A800D7E92A23C7E92E23D7F8B4300133444A8C
:1039B8008233DB001344D3E90023C7E92A23D7E97C
:1039C8002A23D7E93A01FDF727F80346002B03D04D
:1039D800D7E92A23C7E93A23D7F8B4300133384A5C
:1039E8005033DB001344D3E90023C7E92A23D7E97E
:1039F8002A23D7E93801FDF70FF80346002B03D037
:103A0800D7E92A23C7E93823D7F8B43001332C4A39
:103A18003733DB001344D3E90023C7E92A23D7E966
:103A28002A23D7E93601FCF7F7FF0346002B03D01A
:103A3800D7E92A23C7E93623D7F8B4300133204A17
:103A48001E33DB001344D3E90023C7E92A23D7E94F
:103A58002A23D7E93401FCF7DFFF0346002B03D004
:103A6800D7E92A23C7E93423D7F8B4300133C7F894
:103A7800B430D7F8B430172B7FF77EAFB7F894304F
:103A88001846FCF7BFFC04460D46124A1249134873
:103A980045EC104BFEF793FF094B03F59C6353E984
:103AA8000223C7E93223064BD3E90A23C7E93C239B
:103AB8000023C7F8B43048E0000000000000F040E0
:103AC800D0030020A003002090000020F81200205E
:103AD800700900208800002018120020A808002083
:103AE800D7F8B4300133BC4A9B33DB001344D3E925
:103AF8000023C7E92A23D7E92A23D7E93201FCF7AB
:103B08008BFF0346002B03D0D7E92A23C7E93223CA
:103B1800D7F8B4300133B04A0533DB001344D3E996
:103B28000023C7E92A23D7E92A23D7E93C01FCF770
:103B380073FF0346002B03D0D7E92A23C7E93C23A8
:103B4800D7F8B4300133C7F8B430D7F8B430172BEE
:103B5800C6DD97ED300B0CF06FF9B0EE407AF0EE61
:103B6800607A9FED9B1BB0EE470AF0EE670A0CF0F7
:103B78002BF987ED2A0B4FF000024FF00003D7E92D
:103B88002A01FCF72BFF0346002B10D0D7F8A830EA
:103B9800BB63D7F8AC3083F00043FB63D7E90E0171
:103BA800FCF75AFF03469BB25B429BB205E0D7E99C
:103BB8002A01FCF751FF03469BB2884A138097ED10
:103BC8002E0B0CF039F9B0EE407AF0EE607A9FEDEA
:103BD800801BB0EE470AF0EE670A0CF0F5F887EDA7
:103BE8002A0B4FF000024FF00003D7E92A01FCF737
:103BF800F5FE0346002B10D0D7F8A8303B63D7F862
:103C0800AC3083F000437B63D7E90C01FCF724FF59
:103C180003469BB25B429BB205E0D7E92A01FCF759
:103C28001BFF03469BB26D4A538097ED3A0B0CF08D
:103C380003F9B0EE407AF0EE607A9FED651BB0EEC6
:103C4800470AF0EE670A0CF0BFF887ED2A0B4FF031
:103C580000024FF00003D7E92A01FCF7BFFE034634
:103C6800002B10D0D7F8A830BB62D7F8AC3083F05F
:103C78000043FB62D7E90A01FCF7EEFE03469BB25C
:103C88005B429BB205E0D7E92A01FCF7E5FE034653
:103C98009BB2524A938097ED380B0CF0CDF8B0EEFA
:103CA800407AF0EE607A9FED4A1BB0EE470AF0EEDC
:103CB800670A0CF089F887ED2A0B4FF000024FF0E5
:103CC8000003D7E92A01FCF789FE0346002B10D030
:103CD800D7F8A8303B62D7F8AC3083F000437B625A
:103CE800D7E90801FCF7B8FE03469BB25B429BB2DA
:103CF80005E0D7E92A01FCF7AFFE03469BB2374A35
:103D0800D38097ED360B0CF097F8B0EE407AF0EED2
:103D1800607A9FED2F1BB0EE470AF0EE670A0CF0B1
:103D280053F887ED2A0B4FF000024FF00003D7E954
:103D38002A01FCF753FE0346002B10D0D7F8A83011
:103D4800BB61D7F8AC3083F00043FB61D7E90601CB
:103D5800FCF782FE03469BB25B429BB205E0D7E9C3
:103D68002A01FCF779FE03469BB21C4A138197EDA2
:103D7800340B0CF061F8B0EE407AF0EE607A9FED0B
:103D8800141BB0EE470AF0EE670A0CF01DF887ED39
:103D98002A0B4FF000024FF00003D7E92A01FCF785
:103DA8001DFE0346002B1BD0D7F8A8303B61D7F87F
:103DB800AC3083F000437B61D7E90401FCF74CFE8B
:103DC80003469BB25B429BB210E000BFAFF300809A
:103DD800000000000000F040D0030020B4030020E1
:103DE800D7E92A01FCF738FE03469BB2B84A53814B
:103DF80097ED320B0CF020F8B0EE407AF0EE607AD6
:103E08009FEDB11BB0EE470AF0EE670A0BF0DCFF3E
:103E180087ED2A0B4FF000024FF00003D7E92A0183
:103E2800FCF7DCFD0346002B10D0D7F8A830BB60A8
:103E3800D7F8AC3083F00043FB60D7E90201FCF708
:103E48000BFE03469BB25B429BB205E0D7E92A0111
:103E5800FCF702FE03469BB29D4A938197ED3C0B0B
:103E68000BF0EAFFB0EE407AF0EE607A9FED961B19
:103E7800B0EE470AF0EE670A0BF0A6FF87ED2A0BB3
:103E88004FF000024FF00003D7E92A01FCF7A6FD26
:103E98000346002B10D0D7F8A8303B60D7F8AC30D9
:103EA80083F000437B60D7E90001FCF7D5FD0346AA
:103EB8009BB25B429BB205E0D7E92A01FCF7CCFD37
:103EC80003469BB2824AD381824BB3F84C20804B85
:103ED8001A828148FEF785FBC7F8A400D7F8A430FA
:103EE80003F00403002B0CBF01230023DBB287F887
:103EF80087307A48FEF775FBC7F8A400D7F8A430D6
:103F080003F04003002B0CBF01230023DBB287F82A
:103F1800A330734BB3F8643040F2FE32934207D8B3
:103F28006F4BB3F8643001339AB26D4BA3F8642039
:103F38006B4B93F868301E2B07D8694B93F86830A1
:103F48000133DAB2664B83F86820654B93F8623028
:103F580003F00203DBB2002B0FD1614A92F8623002
:103F680043F0020382F862305D4A92F86030032120
:103F780061F3020382F860302CE2594B93F8603009
:103F8800C3F30203DBB2032B00F09481032B00F38D
:103F98000B82012B03D0022B00F0868104E2514BE7
:103FA80001225A774F4B01229A774E4B0122DA773A
:103FB8004C4B012283F820204A4B012283F8212010
:103FC800484B012283F8222097F8A330002B3FD0DA
:103FD800434A92F8613023F0060382F86130404A80
:103FE80092F8613023F0180382F861303C4A92F865
:103FF800613023F0600382F86130394A92F860300A
:1040080023F0380382F86030354A92F86030022194
:1040180061F3020382F86030324B01221A77314B88
:10402800002283F821202F4B002283F822202C4ADB
:10403800B2F86030012161F38813A2F86030294B8F
:104048004FF6AB721A83274B4FF6AB725A83C1E116
:10405800234B93F86030C3F3C203DBB2032B74D055
:10406800032B00F3C980012B02D0022B3CD0C3E004
:104078001C4B002283F82420194B93F8613003F07D
:104088000603DBB2022B14D1154BB3F86430042BB2
:1040980040F20281124A92F86130022161F3420330
:1040A80082F861300F4B00221A830E4B00225A838C
:1040B800F2E00C4B1B7F002B0CBF01230023DBB26B
:1040C8001A46084B1A77E7E0000000000000F040AD
:1040D800B40300200000002000040048001000483D
:1040E800680C0020D0030020AD4B012283F8232068
:1040F800AC4BB3F86430132B40F2D080A94B0022AC
:1041080083F86820A74A92F86030032161F3C50359
:1041180082F86030A24B01221A77A14B002283F863
:104128002320A04B0022A3F864209E4A92F8613015
:10413800012161F3C40382F86130994B4B221A8341
:10414800974B4FF6B5725A83A8E0954B002283F837
:104158002320944B93F86830132B2DD9914A92F869
:10416800613023F0180382F861308E4B002283F807
:1041780068208C4A92F86030042161F3C50382F804
:104188006030874B00221A77854B012283F8242060
:10419800844B0022A3F86420824A92F861300121FE
:1041A80061F3461382F861307D4B4FF6B5721A837E
:1041B8007B4B4B225A8373E07A4B93F8613003F0C0
:1041C8001803DBB2082B6BD1764BB3F86430042BA1
:1041D80066D9744B0022A3F86420724A92F86130C1
:1041E800022161F3C40382F861306D4B00221A8307
:1041F8006B4B00225A8353E0694B012283F8242039
:10420800684B93F868301D2B26D9664A92F86130BE
:1042180023F0600382F86130624A92F8603001212D
:1042280061F3C50382F860305D4B002283F82420D7
:104238005C4B0022A3F864205A4A92F861300121AD
:1042480061F3420382F86130554B4B221A83544B79
:104258004FF6B5725A8325E0524B93F8613003F05C
:104268006003DBB2202B1DD14E4BB3F86430092B11
:1042780018D94C4B0022A3F864204A4A92F86130BE
:10428800022161F3461382F86130454B00221A83FC
:10429800434B00225A8305E000BF9BE000BF99E032
:1042A80000BF97E000BF95E007F187031846FEF7C7
:1042B80027FC8FE097F8A330002B30D0394A92F8CA
:1042C8006030012161F3020382F86030344B002230
:1042D8001A77334B01225A77314B01229A77304BA8
:1042E8000122DA772E4B012283F820202C4B012261
:1042F80083F821202A4B012283F82220294B00220F
:10430800A3F86420274A92F86030022161F3C503BC
:1043180082F86030224B012283F823205AE097F874
:104328008730002B30D01F4A92F86030022161F3A9
:10433800020382F860301A4B01221A77184B0122C7
:104348005A77174B01229A77154B0122DA77144BCB
:10435800012283F82020124B002283F82120104BE1
:10436800002283F822200F4AB2F86030012161F35D
:104378008813A2F860300A4B4FF6AB721A83084BC9
:104388004FF6AB725A8325E0054B1B7F002B0CBF01
:1043980001230023DBB21A46014B1A771AE000BF4B
:1043A800D0030020680C0020C34B00225A77C24B70
:1043B80000229A77C04B0022DA77BF4B002283F89D
:1043C8002020BD4B002283F82120BB4B002283F81C
:1043D800222000BFB94BC7F89C30B74B5B7F002B3E
:1043E80004D04FF40073C7F8B43002E00023C7F8D4
:1043F800B430D7F8B4301946D7F89C00FEF7FDF86A
:10440800D7F8B430DB4303F400731946D7F89C009F
:10441800FEF701F9A94BC7F89C30A74B9B7F002BEF
:1044280004D04FF48043C7F8B43002E00023C7F843
:10443800B430D7F8B4301946D7F89C00FEF7DDF849
:10444800D7F8B430DB4303F480431946D7F89C000F
:10445800FEF7E1F8994BC7F89C30974BDB7F002BB0
:1044680004D04FF48073C7F8B43002E00023C7F8D3
:10447800B430D7F8B4301946D7F89C00FEF7BDF829
:10448800D7F8B430DB4303F480731946D7F89C009F
:10449800FEF7C1F8894BC7F89C30874B93F820305A
:1044A800002B04D04FF40043C7F8B43002E00023D7
:1044B800C7F8B430D7F8B4301946D7F89C00FEF7DF
:1044C8009CF8D7F8B430DB4303F400431946D7F817
:1044D8009C00FEF7A0F8794BC7F89C30764B93F810
:1044E8002130002B04D04FF48053C7F8B43002E0D9
:1044F8000023C7F8B430D7F8B4301946D7F89C0071
:10450800FEF77BF8D7F8B430DB4303F48053194641
:10451800D7F89C00FEF77FF8694BC7F89C3000215C
:10452800D7F89C00FEF769F84FF48051D7F89C0043
:10453800FEF771F8614BC7F89C300021D7F89C0052
:10454800FEF75BF84FF40051D7F89C00FEF763F8CC
:104558005A4BC7F89C30584B93F82230002B04D0A4
:104568004FF40063C7F8B43002E00023C7F8B43052
:10457800D7F8B4301946D7F89C00FEF73EF8D7F8BC
:10458800B430DB4303F400631946D7F89C00FEF708
:1045980042F84C4B93F8663087F89B30464BB3F99A
:1045A8001A30002B04DD474B002283F8662003E015
:1045B800444B012283F86620424B93F9663097F901
:1045C8009B209A4217D097F99B30022B12D0022BCE
:1045D80011DC002B02D0012B06D00CE03A4BB3F9CA
:1045E8004420354B5A8206E0374BB3F94620324B0C
:1045F8001A8200E000BF334B93F96630002B05D1D7
:104608002D4BB3F91A202C4B5A8213E02A4BB3F9DD
:104618001A30002B09DA284BB3F91A309BB25B42E7
:104628009BB21AB2244B1A8204E0234BB3F91A2026
:10463800214B1A82234B1B6C1F4AB2F9122007EE3A
:10464800902AF8EEE77AB0EE670A1846FEF796F871
:104658001C4B1B6C184AB2F9102007EE902AF8EE92
:10466800E77AB0EE670A1846FEF79CF8154B93F800
:10467800673087F89B30104BB3F91830002B04DDF6
:10468800104B002283F8672003E00E4B012283F8C9
:1046980067200C4B93F9673097F99B209A4222D0F8
:1046A80097F99B30022B1DD0022B1CDC002B0DD060
:1046B800012B11D017E000BFD003002000100048E4
:1046C80000040048680C002000000020864BB3F965
:1046D8004020864BDA8206E0834BB3F94220834BB5
:1046E8009A8200E000BF824B93F96730002B05D116
:1046F8007E4BB3F918207D4BDA8213E07B4BB3F97C
:104708001830002B09DA794BB3F918309BB25B42A9
:104718009BB21AB2754B9A8204E0744BB3F9182015
:10472800724B9A82724B1B6D704AB2F9162007EED3
:10473800902AF8EEE77AB0EE670A1846FEF746F8D0
:104748006B4B1B6D694AB2F9142007EE902AF8EEFC
:10475800E77AB0EE670A1846FEF74CF8654BC7F8DB
:104768009C30614BD3E904014FF000024FF0000385
:10477800FCF72AF90346002B03D18023C7F8B4308D
:1047880002E00023C7F8B430D7F8B4301946D7F898
:104798009C00FDF732FFD7F8B430DB4303F0800309
:1047A8001946D7F89C00FDF736FF534BC7F89C30E5
:1047B8004E4B1B7F002B04D04FF40053C7F8B43086
:1047C80002E00023C7F8B430D7F8B4301946D7F858
:1047D8009C00FDF712FFD7F8B430DB4303F4005315
:1047E8001946D7F89C00FDF716FF434BC7F89C30D5
:1047F8003E4B93F82330002B04D04FF48043C7F886
:10480800B43002E00023C7F8B430D7F8B430194602
:10481800D7F89C00FDF7F1FED7F8B430DB4303F47A
:1048280080431946D7F89C00FDF7F5FE324BC7F8D0
:104838009C302E4B93F82430002B04D04FF40043C7
:10484800C7F8B43002E00023C7F8B430D7F8B43062
:104858001946D7F89C00FDF7D0FED7F8B430DB43F3
:1048680003F400431946D7F89C00FDF7D4FE234B08
:10487800C7F89C301C4BD3E906014FF000024FF0FB
:104888000003FCF7A1F80346002B03D10823C7F85F
:10489800B43002E00023C7F8B430D7F8B430194672
:1048A800D7F89C00FDF7A9FED7F8B430DB4303F036
:1048B80008031946D7F89C00FDF7ADFE0A4BD3E96B
:1048C80008010B4BD3E91623FBF75EFC02460B46A7
:1048D8000749C1E9162300F0FBFA00F00FFC00BFFE
:1048E800F837BD46B0BD00BF00000020D00300204F
:1048F800680C0020000C004800080048000400482C
:1049080080B582B000AF00237B6011E06B4B93F859
:1049180054106B4A7B6813440A461A70674BB3F805
:104928004810684A7B6822F813107B6801337B6063
:104938007B68072BEADD614B1B6B634A13605F4B97
:104948005B6B624A136000237B6017E05B4BB3F834
:104958004E105F4A7B6822F81310584BB3F850107A
:104968005C4A7B6822F81310544BB3F852105A4A29
:104978007B6822F813107B6801337B607B68082B07
:10498800E4DD564BFF2283F86620544BFF2283F860
:1049980067204A4B9B6B524A1360484BDB6B514A6A
:1049A8001360464B9B6B4E4A5360444BDB6B4D4A3E
:1049B8005360424B9B6B4A4A9360404BDB6B494ABE
:1049C800936000F019FB3D4BD3E90A234349C1E941
:1049D80016233A4BB3F94420434B5A82374BB3F969
:1049E8004620414B1A82354BB3F940203E4BDA82C0
:1049F800324BB3F942203C4B9A82384B00225A6022
:104A0800364B00221A703548FEF706FA37493848FF
:104A1800FDF7A9FF37493848FEF70BF837493848FA
:104A2800FDF7A1FF37493848FDF79DFF374938485A
:104A3800FDF799FF37493848FDF795FF374938485A
:104A4800FDF791FF37493848FDF7F3FF37493848F4
:104A5800FDF789FF37493848FDF785FF374938485A
:104A6800FDF781FF37493848FDF77DFF1B4B0022D2
:104A780083F83420194B002283F83C20174B01227D
:104A88009A633248FEF710FA144B012283F83C204F
:104A9800124B002283F84420104B002283F84C204C
:104AA8000E4B01229A642A48FEF73AFA0B4B012270
:104AB80083F84C2000BF0837BD4680BD00000020A9
:104AC800C80300207C030020740300207803002022
:104AD8008C030020A0030020B4030020680C0020F1
:104AE8005C03002068030020D00300207800002029
:104AF8005810002098000020D8130020B000002093
:104B08008815002080000020381100207000002047
:104B1800780F002068000020980E00206000002018
:104B2800B80D0020A000002040140020A80000209C
:104B3800A814002058000020D80C00209000002065
:104B4800F812002088000020181200209C0C002079
:104B5800AC0C002080B500AF344B1B78002B11D172
:104B6800324B01221A70314B5B68012B0AD12F4B53
:104B78001B7A002B06D02D4BDB6801220421184636
:104B8800FDF754FB294B93F83430002B23D1274BE6
:104B9800012283F83420254B9B6B012B1BD1234B1F
:104BA80093F83C30002B16D0204B1B6C1846FDF7B1
:104BB800CDFE1E4B1B6C00211846FCF73CFA1B4B24
:104BC8001B6C02211846FCF721FB184B1B6C0221B9
:104BD8001846FCF7BBFB154B93F84430002B23D148
:104BE800124B012283F84420104B9B6C012B1BD1E4
:104BF8000E4B93F84C30002B16D00C4B1B6D1846FF
:104C0800FDF7A4FE094B1B6D00211846FCF713FAAB
:104C1800064B1B6D02211846FCF73CFC034B1B6D31
:104C280002211846FCF79EFC00BF80BD680C0020DE
:104C380080B489B000AFF860B9607A60FB68BB6186
:104C48000023FB61BB689B087B611B4B1B68B3F5AA
:104C5800C87F2AD00023FB6122E0174B1B68174945
:104C68007A6841F82320FB699B00BA691A44124B01
:104C78001B681268114903F5C87341F823200E4BCD
:104C88001B680F4A12680D4903F5487341F8232041
:104C9800094B1B680133084A1360FB690133FB6148
:104CA800FA697B699A42D8D300E000BF2437BD4631
:104CB8005DF8047B704700BF6C1600207416002056
:104CC8007016002080B584B000AF786072B600BF5F
:104CD80000F062FC0346FB6007F10C037A680421CC
:104CE8001846FFF7A5FF62B600BF00BF1037BD46E4
:104CF80080BD000080B500AF124B1B785A1CD1B2A2
:104D0800104A1170002B09D00F4B01221A600D4B6D
:104D18001B78013BDAB20B4B1A7011E062B600BF88
:104D280002200BF035F8FEF737F902200BF03BF8BC
:104D380072B600BF034B1B78013BDAB2014B1A7005
:104D480080BD00BF382900203429002080B584B0F8
:104D580000AF78603960374BFB60374BBB60374B2F
:104D680000221A70364B00221A7001DF06F02CFB65
:104D780000F0E2FE00F030FF00F090FF01F056FF77
:104D880001F074FB02F0A0F901F0C0FF02F04CFA48
:104D980001F010FD02F010FD02F068FC294B1B68C1
:104DA80000221A6001200AF0F3FFFFF7A9FD012095
:104DB8000AF0F9FF72B600BF97ED030A00F08CFC09
:104DC800204B1B681B68002B0CBF01230023DBB2A0
:104DD8001A461B4B1A7062B600BF62B600BF15E0D8
:104DE800184B1B681B68002B14BF01230023DBB280
:104DF8001A46124B1A70114B1B78DBB2002B05D0E8
:104E0800114B1B68104A23F0010313600C4B1B78ED
:104E1800DBB2002BE4D103200AF0BAFFFFF79AFEB9
:104E280003200AF0C0FF72B600BF002318461037EF
:104E3800BD4680BDCDCCCC3D0000A0423929002024
:104E48003A2900204C03010810E000E080B485B046
:104E580000AF0346FB80B7F90630002B02DBFB8866
:104E6800FB8101E0FB88FB81B7F90E301846143747
:104E7800BD465DF8047B704780B588B004AF034633
:104E88000A46FB711346BB71FB799BB25B009BB270
:104E9800013399B2BB799AB24FF0FF3302930223E0
:104EA800019307F10C0300930123084806F07EFEE6
:104EB8003B7B1BB21B021AB27B7B1BB213431BB298
:104EC8009BB218461037BD4680BD00BF642900203C
:104ED80080B500AF3B216920FFF7CEFF0346184697
:104EE800FFF7B4FF03461A4613469B0013445B00C2
:104EF80007EE903AB8EEE77ADFED3B6AC7EE267A1E
:104F08003A4BC3ED007A3D216920FFF7B5FF034610
:104F18001846FFF79BFF03461A4613469B001344A7
:104F28005B0007EE903AB8EEE77ADFED2F6AC7EE3E
:104F3800267A2E4BC3ED017A3F216920FFF79CFFAB
:104F480003461846FFF782FF03461A4613469B009E
:104F580013445B0007EE903AB8EEE77ADFED226A79
:104F6800C7EE267A214BC3ED027A43216920FFF769
:104F780083FF03461846FFF769FF034607EE903A9A
:104F8800B8EEE77ADFED1A6AC7EE267A194BC3ED59
:104F9800007A45216920FFF76FFF03461846FFF79F
:104FA80055FF034607EE903AB8EEE77ADFED106A50
:104FB800C7EE267A0F4BC3ED017A47216920FFF728
:104FC8005BFF03461846FFF741FF034607EE903A9A
:104FD800B8EEE77ADFED066AC7EE267A054BC3ED31
:104FE800027A00BF80BD00BF000080465C0300203D
:104FF800000003436803002080B586B004AF002397
:10500800FB714FF0FF33029301230193FB1D0093C3
:1050180001236B22D2211D4806F0B4FC4FF0FF3368
:105028000293012301930723009301231922D2211C
:10503800164806F0A7FC4FF0FF33029301230193B3
:105048000023009301231C22D221104806F09AFC69
:105058004FF0FF33029301230193002300930123B0
:105068001B22D221094806F08DFC4FF0FF33029332
:1050780001230193064B009301237522D321034892
:1050880006F094FD00BF0837BD4680BD64290020A6
:105098003B29002080B582B000AF00237B600FE081
:1050A8007B68432B08D07B68052B05D07B685BB2F7
:1050B800184607F0E9FA00E000BF7B6801337B601F
:1050C8007B68EF2BECD900BF00BF0837BD4680BD19
:1050D80080B582B000AF00237B6007E07B685BB2DD
:1050E800184607F0C3FA7B6801337B607B68EF2BB7
:1050F800F4D900BF00BF0837BD4680BD80B500AFFA
:105108004021AA4806F096FB0346002B14BF012352
:105118000023DAB2A64B1A700421A64806F08AFBCF
:105128000346002B14BF01230023DAB2A04B5A70A8
:105138004FF40051A04806F07DFB0346002B14BF36
:1051480001230023DAB29D4B1A704FF480419A482C
:1051580006F070FB0346002B14BF01230023DAB2CC
:10516800964B5A704FF40041934806F063FB034690
:10517800002B14BF01230023DAB2904B9A704FF42E
:1051880080518C4806F056FB0346002B14BF0123C0
:105198000023DAB28A4B1A704FF48071834806F004
:1051A80049FB0346002B14BF01230023DAB2844BCA
:1051B8005A704FF400717D4806F03CFB0346002B03
:1051C80014BF01230023DAB27D4B9A704FF480514B
:1051D800764806F02FFB0346002B14BF012300235B
:1051E800DAB2774BDA704FF40061704806F022FBB0
:1051F8000346002B14BF01230023DAB2704B1A7147
:105208004FF48041694806F015FB0346002B14BF94
:1052180001230023DAB26A4B5A714FF40041634804
:1052280006F008FB0346002B14BF01230023DAB263
:10523800634B9A714FF400515C4806F0FBFA034641
:10524800002B14BF01230023DAB25D4BDA715D4BEA
:105258005B6B9AB25C4B1A805A4B9B6B9AB25A4B57
:105268005A80584BDB6B9AB2584B1A80554B1B6CC3
:105278009AB2564B5A80FFF70DFF08E04FF40071C1
:105288004FF0904006F0D6FA0346012B07D10321D0
:105298004F4803F0C1F80346002BEFD10AE000BFE6
:1052A80008E04FF400714FF0904006F0C3FA03464F
:1052B800012B07D102213E4803F0AEF80346002B2C
:1052C800EFD10AE000BF08E04FF400714FF09040C2
:1052D80006F0B0FA0346012B07D10321374803F043
:1052E8009BF80346002BEFD10AE000BF08E04FF41B
:1052F80000714FF0904006F09DFA0346012B07D14C
:105308000C21344803F088F80346002BEFD10AE05B
:1053180000BF08E04FF400714FF0904006F08AFAA1
:105328000346012B07D10C212B4803F075F80346DF
:10533800002BEFD10AE000BF08E04FF400714FF0F6
:10534800904006F077FA0346012B07D11221234833
:1053580003F062F80346002BEFD10AE000BF08E033
:105368004FF400714FF0904006F064FA0346012BA9
:1053780007D112211A4803F04FF80346002BEFD14A
:105388000AE000BF08E04FF400714FF0904006F0CB
:1053980051FA0346012B07D11221124803F03CF8B9
:1053A8000346002BEFD128E000BF26E0001000489C
:1053B8003C2900200004004800080048402900203B
:1053C80044290020000400405429002050290020CE
:1053D800F00201085C030020680300208C03002011
:1053E800A0030020B40300204FF400714FF0904058
:1053F80006F020FA0346012B07D10821514803F093
:105408000BF80346002BEFD10AE000BF08E04FF489
:1054180000714FF0904006F00DFA0346012B07D1BA
:105428000421494802F0F8FF0346002BEFD10AE0B7
:1054380000BF08E04FF400714FF0904006F0FAF911
:105448000346012B07D10421404802F0E5FF03463B
:10545800002BEFD10AE000BF08E04FF400714FF0D5
:10546800904006F0E7F90346012B07D1042138489C
:1054780002F0D2FF0346002BEFD10AE000BF08E09C
:105488004FF400714FF0904006F0D4F90346012B19
:1054980007D108212F4802F0BFFF0346002BEFD1A8
:1054A8000AE000BF08E04FF400714FF0904006F0AA
:1054B800C1F90346012B07D11021274802F0ACFFA0
:1054C8000346002BEFD10AE000BF08E04FF400715B
:1054D8004FF0904006F0AEF90346012B07D10421A6
:1054E8001E4802F099FF0346002BEFD10AE000BFE7
:1054F80008E04FF400714FF0904006F09BF9034626
:10550800012B07D10421164802F086FF0346002B21
:10551800EFD10AE000BF08E04FF400714FF090406F
:1055280006F088F90346012B07D104210D4802F043
:1055380073FF0346002BEFD100E000BFFFF7C8FD63
:1055480000BF80BD442900204C290020502900209C
:1055580054290020C80300207C0300207803002081
:1055680074030020F402010880B584B000AF7860AD
:1055780005F056FFF8607B68BB6000BF05F050FF80
:105588000246FB68D31ABA689A42F7D800BF00BF30
:105598001037BD4680BD000010B50E4C82B0636A5E
:1055A800019305F03DFF0090626A019B9A4207D380
:1055B800009B01984FF47A7202FB030002B010BD01
:1055C80005F02EFF636A4FF47A7202FB003002B0D6
:1055D80010BD00BF002C014080B483B000AF03466B
:1055E8003960FB7197F90730002B0ADB3B68DAB2A8
:1055F8000C4997F907301201D2B20B4483F8002303
:105608000AE03B68DAB20849FB7903F00F03043B70
:105618001201D2B20B441A7600BF0C37BD465DF8B2
:10562800047B704700E100E000ED00E080B582B047
:1056380000AF78607B68013BB3F1807F01D3012321
:105648000FE00A4A7B68013B53600F214FF0FF309F
:10565800FFF7C2FF054B00229A60044B07221A602D
:10566800002318460837BD4680BD00BF10E000E0A3
:1056780080B500AFBFF34F8F00BFBFF36F8F00BF80
:105688000B4B1A680B4B1B689A4202D3084B00223B
:105698001A60074B1B685A1C05490A60002B05D184
:1056A80072B600BFFFF726FB62B600BF00BF80BD21
:1056B800582900205C29002080B400AF054B5B68A6
:1056C800044A43F08053536000BFBD465DF8047B35
:1056D800704700BF00ED00E080B584B000AF87EDF3
:1056E800010A234B1B6807EE903AB8EE677AD7EDAC
:1056F800017A67EE277AFCEEE77A17EE903AFB60BC
:10570800FB68B3F1807F18D3FB6807EE903AB8EED8
:10571800677ADFED186AC7EE267AFCEEE77A17EEAD
:10572800903A0133144A1360134B1B68FA68B2FBB2
:10573800F3F31846FFF77AFF05E00F4B00221A60D3
:10574800F868FFF773FF0D4B00221A600C4A0D4BE7
:105758001A600F216FF00400FFF73EFF0F216FF072
:105768000100FFF739FF00BF1037BD4680BD00BFFD
:1057780044020020FFFF7F4B5C29002058290020AD
:105788007956000860290020EFF3008001B5EFF397
:10579800118003B41EF0100F08BFB0EE400A0A488B
:1057A800006803B488B004A006904FF0807007909A
:1057B8006FF006008646704703BC8047BFF36F8FC3
:1057C80000DFFEE700BF0000602900201EF0100F78
:1057D80008BFB0EE400A1EF0040F0CBFEFF30880BC
:1057E800EFF30980816911F8020C10B101280DD07E
:1057F8000BE01EF0100F0CBF1AB008B003BC80F30A
:10580800118803BC80F300880847FEE74EF6145160
:10581800CEF200010A6842F001020A607047F4E71C
:1058280000BF00BF80B400AF054B1B68044A43F4B7
:105838000023136000BFBD465DF8047B704700BFBE
:105848000010024080B400AF054B1B68044A43F4C3
:105858008033136000BFBD465DF8047B704700BF0E
:105868000010024080B400AF074B1B6803F40033FC
:10587800B3F5003F01D1012300E000231846BD46DF
:105888005DF8047B704700BF0010024080B483B00D
:1058980000AF7860064B9B6823F0030204497B68DD
:1058A80013438B6000BF0C37BD465DF8047B70471F
:1058B8000010024080B400AF044B9B6803F00C0357
:1058C8001846BD465DF8047B704700BF00100240D3
:1058D80080B483B000AF7860064B9B6823F0F00279
:1058E80004497B6813438B6000BF0C37BD465DF8E5
:1058F800047B70470010024080B483B000AF78602A
:10590800064B9B6823F4E06204497B6813438B6071
:1059180000BF0C37BD465DF8047B7047001002409D
:1059280080B483B000AF7860064B9B6823F4605264
:1059380004497B6813438B6000BF0C37BD465DF894
:10594800047B70470010024080B400AF054B1B6811
:10595800044A43F08073136000BFBD465DF8047BC2
:10596800704700BF0010024080B400AF074B1B68AF
:1059780003F00073B3F1007F01D1012300E000239D
:105988001846BD465DF8047B704700BF0010024012
:1059980080B485B000AFF860B9607A603B600A4BAC
:1059A800DA680A4B1340F968BA6811437A68120238
:1059B80011433A680A4304491343CB6000BF1437C4
:1059C800BD465DF8047B7047001002408C80FFF9EB
:1059D80080B400AF054BDB68044A43F08073D360A2
:1059E80000BFBD465DF8047B704700BF0010024051
:1059F80080B400AF054B1B68044A43F08063136012
:105A080000BFBD465DF8047B704700BF0010024030
:105A180080B400AF074B1B6803F00063B3F1006F5D
:105A280001D1012300E000231846BD465DF8047B40
:105A3800704700BF0010024080B485B000AFF86026
:105A4800B9607A603B600E4BDB6823F07302F9683B
:105A5800BB680B430A491343CB60094B1B6923F40A
:105A6800C00323F4FE437A6811023A680A430449E2
:105A780013430B6100BF1437BD465DF8047B7047C4
:105A88000010024080B400AF054B1B69044A43F480
:105A98008013136100BFBD465DF8047B704700BFEB
:105AA8000010024080B483B000AF7860064B1B68DA
:105AB80023F0070204497B6813430B6000BF0C37CF
:105AC800BD465DF8047B70470020024080B400AFFB
